{
	"ShibStyleToken.sol": {
		"ShibStyleToken": {
			"abi": [
				{
					"inputs": [
						{
							"internalType": "string",
							"name": "name",
							"type": "string"
						},
						{
							"internalType": "string",
							"name": "symbol",
							"type": "string"
						},
						{
							"internalType": "uint256",
							"name": "_initialSupply",
							"type": "uint256"
						},
						{
							"internalType": "uint256",
							"name": "_maxTransactionAmount",
							"type": "uint256"
						},
						{
							"internalType": "uint256",
							"name": "_dailyTransactionCountLimit",
							"type": "uint256"
						},
						{
							"internalType": "address",
							"name": "_taxReceiver",
							"type": "address"
						},
						{
							"internalType": "address",
							"name": "_liquidityPool",
							"type": "address"
						}
					],
					"stateMutability": "nonpayable",
					"type": "constructor"
				},
				{
					"inputs": [
						{
							"internalType": "address",
							"name": "spender",
							"type": "address"
						},
						{
							"internalType": "uint256",
							"name": "allowance",
							"type": "uint256"
						},
						{
							"internalType": "uint256",
							"name": "needed",
							"type": "uint256"
						}
					],
					"name": "ERC20InsufficientAllowance",
					"type": "error"
				},
				{
					"inputs": [
						{
							"internalType": "address",
							"name": "sender",
							"type": "address"
						},
						{
							"internalType": "uint256",
							"name": "balance",
							"type": "uint256"
						},
						{
							"internalType": "uint256",
							"name": "needed",
							"type": "uint256"
						}
					],
					"name": "ERC20InsufficientBalance",
					"type": "error"
				},
				{
					"inputs": [
						{
							"internalType": "address",
							"name": "approver",
							"type": "address"
						}
					],
					"name": "ERC20InvalidApprover",
					"type": "error"
				},
				{
					"inputs": [
						{
							"internalType": "address",
							"name": "receiver",
							"type": "address"
						}
					],
					"name": "ERC20InvalidReceiver",
					"type": "error"
				},
				{
					"inputs": [
						{
							"internalType": "address",
							"name": "sender",
							"type": "address"
						}
					],
					"name": "ERC20InvalidSender",
					"type": "error"
				},
				{
					"inputs": [
						{
							"internalType": "address",
							"name": "spender",
							"type": "address"
						}
					],
					"name": "ERC20InvalidSpender",
					"type": "error"
				},
				{
					"anonymous": false,
					"inputs": [
						{
							"indexed": true,
							"internalType": "address",
							"name": "owner",
							"type": "address"
						},
						{
							"indexed": true,
							"internalType": "address",
							"name": "spender",
							"type": "address"
						},
						{
							"indexed": false,
							"internalType": "uint256",
							"name": "value",
							"type": "uint256"
						}
					],
					"name": "Approval",
					"type": "event"
				},
				{
					"anonymous": false,
					"inputs": [
						{
							"indexed": true,
							"internalType": "address",
							"name": "from",
							"type": "address"
						},
						{
							"indexed": true,
							"internalType": "address",
							"name": "to",
							"type": "address"
						},
						{
							"indexed": false,
							"internalType": "uint256",
							"name": "value",
							"type": "uint256"
						}
					],
					"name": "Transfer",
					"type": "event"
				},
				{
					"inputs": [
						{
							"internalType": "uint256",
							"name": "tokenAmount",
							"type": "uint256"
						},
						{
							"internalType": "uint256",
							"name": "ethAmount",
							"type": "uint256"
						}
					],
					"name": "addLiquidity",
					"outputs": [],
					"stateMutability": "payable",
					"type": "function"
				},
				{
					"inputs": [
						{
							"internalType": "address",
							"name": "owner",
							"type": "address"
						},
						{
							"internalType": "address",
							"name": "spender",
							"type": "address"
						}
					],
					"name": "allowance",
					"outputs": [
						{
							"internalType": "uint256",
							"name": "",
							"type": "uint256"
						}
					],
					"stateMutability": "view",
					"type": "function"
				},
				{
					"inputs": [
						{
							"internalType": "address",
							"name": "spender",
							"type": "address"
						},
						{
							"internalType": "uint256",
							"name": "value",
							"type": "uint256"
						}
					],
					"name": "approve",
					"outputs": [
						{
							"internalType": "bool",
							"name": "",
							"type": "bool"
						}
					],
					"stateMutability": "nonpayable",
					"type": "function"
				},
				{
					"inputs": [
						{
							"internalType": "address",
							"name": "account",
							"type": "address"
						}
					],
					"name": "balanceOf",
					"outputs": [
						{
							"internalType": "uint256",
							"name": "",
							"type": "uint256"
						}
					],
					"stateMutability": "view",
					"type": "function"
				},
				{
					"inputs": [],
					"name": "dailyTransactionCountLimit",
					"outputs": [
						{
							"internalType": "uint256",
							"name": "",
							"type": "uint256"
						}
					],
					"stateMutability": "view",
					"type": "function"
				},
				{
					"inputs": [],
					"name": "decimals",
					"outputs": [
						{
							"internalType": "uint8",
							"name": "",
							"type": "uint8"
						}
					],
					"stateMutability": "view",
					"type": "function"
				},
				{
					"inputs": [],
					"name": "liquidityPool",
					"outputs": [
						{
							"internalType": "address",
							"name": "",
							"type": "address"
						}
					],
					"stateMutability": "view",
					"type": "function"
				},
				{
					"inputs": [],
					"name": "maxTransactionAmount",
					"outputs": [
						{
							"internalType": "uint256",
							"name": "",
							"type": "uint256"
						}
					],
					"stateMutability": "view",
					"type": "function"
				},
				{
					"inputs": [],
					"name": "name",
					"outputs": [
						{
							"internalType": "string",
							"name": "",
							"type": "string"
						}
					],
					"stateMutability": "view",
					"type": "function"
				},
				{
					"inputs": [
						{
							"internalType": "uint256",
							"name": "liquidityTokens",
							"type": "uint256"
						}
					],
					"name": "removeLiquidity",
					"outputs": [
						{
							"internalType": "uint256",
							"name": "amount0",
							"type": "uint256"
						},
						{
							"internalType": "uint256",
							"name": "amount1",
							"type": "uint256"
						}
					],
					"stateMutability": "nonpayable",
					"type": "function"
				},
				{
					"inputs": [],
					"name": "symbol",
					"outputs": [
						{
							"internalType": "string",
							"name": "",
							"type": "string"
						}
					],
					"stateMutability": "view",
					"type": "function"
				},
				{
					"inputs": [],
					"name": "taxRate",
					"outputs": [
						{
							"internalType": "uint256",
							"name": "",
							"type": "uint256"
						}
					],
					"stateMutability": "view",
					"type": "function"
				},
				{
					"inputs": [],
					"name": "taxReceiver",
					"outputs": [
						{
							"internalType": "address",
							"name": "",
							"type": "address"
						}
					],
					"stateMutability": "view",
					"type": "function"
				},
				{
					"inputs": [],
					"name": "totalSupply",
					"outputs": [
						{
							"internalType": "uint256",
							"name": "",
							"type": "uint256"
						}
					],
					"stateMutability": "view",
					"type": "function"
				},
				{
					"inputs": [
						{
							"internalType": "address",
							"name": "recipient",
							"type": "address"
						},
						{
							"internalType": "uint256",
							"name": "amount",
							"type": "uint256"
						}
					],
					"name": "transfer",
					"outputs": [
						{
							"internalType": "bool",
							"name": "",
							"type": "bool"
						}
					],
					"stateMutability": "nonpayable",
					"type": "function"
				},
				{
					"inputs": [
						{
							"internalType": "address",
							"name": "sender",
							"type": "address"
						},
						{
							"internalType": "address",
							"name": "recipient",
							"type": "address"
						},
						{
							"internalType": "uint256",
							"name": "amount",
							"type": "uint256"
						}
					],
					"name": "transferFrom",
					"outputs": [
						{
							"internalType": "bool",
							"name": "",
							"type": "bool"
						}
					],
					"stateMutability": "nonpayable",
					"type": "function"
				}
			],
			"devdoc": {
				"errors": {
					"ERC20InsufficientAllowance(address,uint256,uint256)": [
						{
							"details": "Indicates a failure with the `spender`’s `allowance`. Used in transfers.",
							"params": {
								"allowance": "Amount of tokens a `spender` is allowed to operate with.",
								"needed": "Minimum amount required to perform a transfer.",
								"spender": "Address that may be allowed to operate on tokens without being their owner."
							}
						}
					],
					"ERC20InsufficientBalance(address,uint256,uint256)": [
						{
							"details": "Indicates an error related to the current `balance` of a `sender`. Used in transfers.",
							"params": {
								"balance": "Current balance for the interacting account.",
								"needed": "Minimum amount required to perform a transfer.",
								"sender": "Address whose tokens are being transferred."
							}
						}
					],
					"ERC20InvalidApprover(address)": [
						{
							"details": "Indicates a failure with the `approver` of a token to be approved. Used in approvals.",
							"params": {
								"approver": "Address initiating an approval operation."
							}
						}
					],
					"ERC20InvalidReceiver(address)": [
						{
							"details": "Indicates a failure with the token `receiver`. Used in transfers.",
							"params": {
								"receiver": "Address to which tokens are being transferred."
							}
						}
					],
					"ERC20InvalidSender(address)": [
						{
							"details": "Indicates a failure with the token `sender`. Used in transfers.",
							"params": {
								"sender": "Address whose tokens are being transferred."
							}
						}
					],
					"ERC20InvalidSpender(address)": [
						{
							"details": "Indicates a failure with the `spender` to be approved. Used in approvals.",
							"params": {
								"spender": "Address that may be allowed to operate on tokens without being their owner."
							}
						}
					]
				},
				"events": {
					"Approval(address,address,uint256)": {
						"details": "Emitted when the allowance of a `spender` for an `owner` is set by a call to {approve}. `value` is the new allowance."
					},
					"Transfer(address,address,uint256)": {
						"details": "Emitted when `value` tokens are moved from one account (`from`) to another (`to`). Note that `value` may be zero."
					}
				},
				"kind": "dev",
				"methods": {
					"allowance(address,address)": {
						"details": "Returns the remaining number of tokens that `spender` will be allowed to spend on behalf of `owner` through {transferFrom}. This is zero by default. This value changes when {approve} or {transferFrom} are called."
					},
					"approve(address,uint256)": {
						"details": "See {IERC20-approve}. NOTE: If `value` is the maximum `uint256`, the allowance is not updated on `transferFrom`. This is semantically equivalent to an infinite approval. Requirements: - `spender` cannot be the zero address."
					},
					"balanceOf(address)": {
						"details": "Returns the value of tokens owned by `account`."
					},
					"decimals()": {
						"details": "Returns the number of decimals used to get its user representation. For example, if `decimals` equals `2`, a balance of `505` tokens should be displayed to a user as `5.05` (`505 / 10 ** 2`). Tokens usually opt for a value of 18, imitating the relationship between Ether and Wei. This is the default value returned by this function, unless it's overridden. NOTE: This information is only used for _display_ purposes: it in no way affects any of the arithmetic of the contract, including {IERC20-balanceOf} and {IERC20-transfer}."
					},
					"name()": {
						"details": "Returns the name of the token."
					},
					"symbol()": {
						"details": "Returns the symbol of the token, usually a shorter version of the name."
					},
					"totalSupply()": {
						"details": "Returns the value of tokens in existence."
					}
				},
				"version": 1
			},
			"evm": {
				"assembly": "    /* \"ShibStyleToken.sol\":510:6392  contract ShibStyleToken is ERC20 {... */\n  mstore(0x40, 0x80)\n    /* \"ShibStyleToken.sol\":693:696  200 */\n  0xc8\n    /* \"ShibStyleToken.sol\":668:696  uint256 public taxRate = 200 */\n  0x05\n  sstore\n    /* \"ShibStyleToken.sol\":1178:1712  constructor(... */\n  callvalue\n  dup1\n  iszero\n  tag_1\n  jumpi\n  revert(0x00, 0x00)\ntag_1:\n  pop\n  mload(0x40)\n  sub(codesize, bytecodeSize)\n  dup1\n  bytecodeSize\n  dup4\n  codecopy\n  dup2\n  dup2\n  add\n  0x40\n  mstore\n  dup2\n  add\n  swap1\n  tag_2\n  swap2\n  swap1\n  tag_3\n  jump\t// in\ntag_2:\n    /* \"ShibStyleToken.sol\":1446:1450  name */\n  dup7\n    /* \"ShibStyleToken.sol\":1452:1458  symbol */\n  dup7\n    /* \"node_modules/@openzeppelin/contracts/token/ERC20/ERC20.sol\":1656:1661  name_ */\n  dup2\n    /* \"node_modules/@openzeppelin/contracts/token/ERC20/ERC20.sol\":1648:1653  _name */\n  0x03\n    /* \"node_modules/@openzeppelin/contracts/token/ERC20/ERC20.sol\":1648:1661  _name = name_ */\n  swap1\n  dup2\n  tag_7\n  swap2\n  swap1\n  tag_8\n  jump\t// in\ntag_7:\n  pop\n    /* \"node_modules/@openzeppelin/contracts/token/ERC20/ERC20.sol\":1681:1688  symbol_ */\n  dup1\n    /* \"node_modules/@openzeppelin/contracts/token/ERC20/ERC20.sol\":1671:1678  _symbol */\n  0x04\n    /* \"node_modules/@openzeppelin/contracts/token/ERC20/ERC20.sol\":1671:1688  _symbol = symbol_ */\n  swap1\n  dup2\n  tag_9\n  swap2\n  swap1\n  tag_8\n  jump\t// in\ntag_9:\n  pop\n    /* \"node_modules/@openzeppelin/contracts/token/ERC20/ERC20.sol\":1582:1695  constructor(string memory name_, string memory symbol_) {... */\n  pop\n  pop\n    /* \"ShibStyleToken.sol\":1471:1504  _mint(msg.sender, _initialSupply) */\n  tag_11\n    /* \"ShibStyleToken.sol\":1477:1487  msg.sender */\n  caller\n    /* \"ShibStyleToken.sol\":1489:1503  _initialSupply */\n  dup7\n    /* \"ShibStyleToken.sol\":1471:1476  _mint */\n  shl(0x20, tag_12)\n    /* \"ShibStyleToken.sol\":1471:1504  _mint(msg.sender, _initialSupply) */\n  0x20\n  shr\n  jump\t// in\ntag_11:\n    /* \"ShibStyleToken.sol\":1538:1559  _maxTransactionAmount */\n  dup4\n    /* \"ShibStyleToken.sol\":1515:1535  maxTransactionAmount */\n  0x07\n    /* \"ShibStyleToken.sol\":1515:1559  maxTransactionAmount = _maxTransactionAmount */\n  dup2\n  swap1\n  sstore\n  pop\n    /* \"ShibStyleToken.sol\":1599:1626  _dailyTransactionCountLimit */\n  dup3\n    /* \"ShibStyleToken.sol\":1570:1596  dailyTransactionCountLimit */\n  0x08\n    /* \"ShibStyleToken.sol\":1570:1626  dailyTransactionCountLimit = _dailyTransactionCountLimit */\n  dup2\n  swap1\n  sstore\n  pop\n    /* \"ShibStyleToken.sol\":1651:1663  _taxReceiver */\n  dup2\n    /* \"ShibStyleToken.sol\":1637:1648  taxReceiver */\n  0x06\n  0x00\n    /* \"ShibStyleToken.sol\":1637:1663  taxReceiver = _taxReceiver */\n  0x0100\n  exp\n  dup2\n  sload\n  dup2\n  0xffffffffffffffffffffffffffffffffffffffff\n  mul\n  not\n  and\n  swap1\n  dup4\n  0xffffffffffffffffffffffffffffffffffffffff\n  and\n  mul\n  or\n  swap1\n  sstore\n  pop\n    /* \"ShibStyleToken.sol\":1690:1704  _liquidityPool */\n  dup1\n    /* \"ShibStyleToken.sol\":1674:1687  liquidityPool */\n  0x0b\n  0x00\n    /* \"ShibStyleToken.sol\":1674:1704  liquidityPool = _liquidityPool */\n  0x0100\n  exp\n  dup2\n  sload\n  dup2\n  0xffffffffffffffffffffffffffffffffffffffff\n  mul\n  not\n  and\n  swap1\n  dup4\n  0xffffffffffffffffffffffffffffffffffffffff\n  and\n  mul\n  or\n  swap1\n  sstore\n  pop\n    /* \"ShibStyleToken.sol\":1178:1712  constructor(... */\n  pop\n  pop\n  pop\n  pop\n  pop\n  pop\n  pop\n    /* \"ShibStyleToken.sol\":510:6392  contract ShibStyleToken is ERC20 {... */\n  jump(tag_13)\n    /* \"node_modules/@openzeppelin/contracts/token/ERC20/ERC20.sol\":7362:7570  function _mint(address account, uint256 value) internal {... */\ntag_12:\n    /* \"node_modules/@openzeppelin/contracts/token/ERC20/ERC20.sol\":7451:7452  0 */\n  0x00\n    /* \"node_modules/@openzeppelin/contracts/token/ERC20/ERC20.sol\":7432:7453  account == address(0) */\n  0xffffffffffffffffffffffffffffffffffffffff\n  and\n    /* \"node_modules/@openzeppelin/contracts/token/ERC20/ERC20.sol\":7432:7439  account */\n  dup3\n    /* \"node_modules/@openzeppelin/contracts/token/ERC20/ERC20.sol\":7432:7453  account == address(0) */\n  0xffffffffffffffffffffffffffffffffffffffff\n  and\n  sub\n    /* \"node_modules/@openzeppelin/contracts/token/ERC20/ERC20.sol\":7428:7519  if (account == address(0)) {... */\n  tag_15\n  jumpi\n    /* \"node_modules/@openzeppelin/contracts/token/ERC20/ERC20.sol\":7505:7506  0 */\n  0x00\n    /* \"node_modules/@openzeppelin/contracts/token/ERC20/ERC20.sol\":7476:7508  ERC20InvalidReceiver(address(0)) */\n  mload(0x40)\n  0xec442f0500000000000000000000000000000000000000000000000000000000\n  dup2\n  mstore\n  0x04\n  add\n  tag_16\n  swap2\n  swap1\n  tag_17\n  jump\t// in\ntag_16:\n  mload(0x40)\n  dup1\n  swap2\n  sub\n  swap1\n  revert\n    /* \"node_modules/@openzeppelin/contracts/token/ERC20/ERC20.sol\":7428:7519  if (account == address(0)) {... */\ntag_15:\n    /* \"node_modules/@openzeppelin/contracts/token/ERC20/ERC20.sol\":7528:7563  _update(address(0), account, value) */\n  tag_18\n    /* \"node_modules/@openzeppelin/contracts/token/ERC20/ERC20.sol\":7544:7545  0 */\n  0x00\n    /* \"node_modules/@openzeppelin/contracts/token/ERC20/ERC20.sol\":7548:7555  account */\n  dup4\n    /* \"node_modules/@openzeppelin/contracts/token/ERC20/ERC20.sol\":7557:7562  value */\n  dup4\n    /* \"node_modules/@openzeppelin/contracts/token/ERC20/ERC20.sol\":7528:7535  _update */\n  shl(0x20, tag_19)\n    /* \"node_modules/@openzeppelin/contracts/token/ERC20/ERC20.sol\":7528:7563  _update(address(0), account, value) */\n  0x20\n  shr\n  jump\t// in\ntag_18:\n    /* \"node_modules/@openzeppelin/contracts/token/ERC20/ERC20.sol\":7362:7570  function _mint(address account, uint256 value) internal {... */\n  pop\n  pop\n  jump\t// out\n    /* \"node_modules/@openzeppelin/contracts/token/ERC20/ERC20.sol\":5912:7019  function _update(address from, address to, uint256 value) internal virtual {... */\ntag_19:\n    /* \"node_modules/@openzeppelin/contracts/token/ERC20/ERC20.sol\":6017:6018  0 */\n  0x00\n    /* \"node_modules/@openzeppelin/contracts/token/ERC20/ERC20.sol\":6001:6019  from == address(0) */\n  0xffffffffffffffffffffffffffffffffffffffff\n  and\n    /* \"node_modules/@openzeppelin/contracts/token/ERC20/ERC20.sol\":6001:6005  from */\n  dup4\n    /* \"node_modules/@openzeppelin/contracts/token/ERC20/ERC20.sol\":6001:6019  from == address(0) */\n  0xffffffffffffffffffffffffffffffffffffffff\n  and\n  sub\n    /* \"node_modules/@openzeppelin/contracts/token/ERC20/ERC20.sol\":5997:6537  if (from == address(0)) {... */\n  tag_21\n  jumpi\n    /* \"node_modules/@openzeppelin/contracts/token/ERC20/ERC20.sol\":6153:6158  value */\n  dup1\n    /* \"node_modules/@openzeppelin/contracts/token/ERC20/ERC20.sol\":6137:6149  _totalSupply */\n  0x02\n  0x00\n    /* \"node_modules/@openzeppelin/contracts/token/ERC20/ERC20.sol\":6137:6158  _totalSupply += value */\n  dup3\n  dup3\n  sload\n  tag_22\n  swap2\n  swap1\n  tag_23\n  jump\t// in\ntag_22:\n  swap3\n  pop\n  pop\n  dup2\n  swap1\n  sstore\n  pop\n    /* \"node_modules/@openzeppelin/contracts/token/ERC20/ERC20.sol\":5997:6537  if (from == address(0)) {... */\n  jump(tag_24)\ntag_21:\n    /* \"node_modules/@openzeppelin/contracts/token/ERC20/ERC20.sol\":6189:6208  uint256 fromBalance */\n  0x00\n    /* \"node_modules/@openzeppelin/contracts/token/ERC20/ERC20.sol\":6211:6220  _balances */\n  0x00\n    /* \"node_modules/@openzeppelin/contracts/token/ERC20/ERC20.sol\":6211:6226  _balances[from] */\n  0x00\n    /* \"node_modules/@openzeppelin/contracts/token/ERC20/ERC20.sol\":6221:6225  from */\n  dup6\n    /* \"node_modules/@openzeppelin/contracts/token/ERC20/ERC20.sol\":6211:6226  _balances[from] */\n  0xffffffffffffffffffffffffffffffffffffffff\n  and\n  0xffffffffffffffffffffffffffffffffffffffff\n  and\n  dup2\n  mstore\n  0x20\n  add\n  swap1\n  dup2\n  mstore\n  0x20\n  add\n  0x00\n  keccak256\n  sload\n    /* \"node_modules/@openzeppelin/contracts/token/ERC20/ERC20.sol\":6189:6226  uint256 fromBalance = _balances[from] */\n  swap1\n  pop\n    /* \"node_modules/@openzeppelin/contracts/token/ERC20/ERC20.sol\":6258:6263  value */\n  dup2\n    /* \"node_modules/@openzeppelin/contracts/token/ERC20/ERC20.sol\":6244:6255  fromBalance */\n  dup2\n    /* \"node_modules/@openzeppelin/contracts/token/ERC20/ERC20.sol\":6244:6263  fromBalance < value */\n  lt\n    /* \"node_modules/@openzeppelin/contracts/token/ERC20/ERC20.sol\":6240:6355  if (fromBalance < value) {... */\n  iszero\n  tag_25\n  jumpi\n    /* \"node_modules/@openzeppelin/contracts/token/ERC20/ERC20.sol\":6315:6319  from */\n  dup4\n    /* \"node_modules/@openzeppelin/contracts/token/ERC20/ERC20.sol\":6321:6332  fromBalance */\n  dup2\n    /* \"node_modules/@openzeppelin/contracts/token/ERC20/ERC20.sol\":6334:6339  value */\n  dup4\n    /* \"node_modules/@openzeppelin/contracts/token/ERC20/ERC20.sol\":6290:6340  ERC20InsufficientBalance(from, fromBalance, value) */\n  mload(0x40)\n  0xe450d38c00000000000000000000000000000000000000000000000000000000\n  dup2\n  mstore\n  0x04\n  add\n  tag_26\n  swap4\n  swap3\n  swap2\n  swap1\n  tag_27\n  jump\t// in\ntag_26:\n  mload(0x40)\n  dup1\n  swap2\n  sub\n  swap1\n  revert\n    /* \"node_modules/@openzeppelin/contracts/token/ERC20/ERC20.sol\":6240:6355  if (fromBalance < value) {... */\ntag_25:\n    /* \"node_modules/@openzeppelin/contracts/token/ERC20/ERC20.sol\":6507:6512  value */\n  dup2\n    /* \"node_modules/@openzeppelin/contracts/token/ERC20/ERC20.sol\":6493:6504  fromBalance */\n  dup2\n    /* \"node_modules/@openzeppelin/contracts/token/ERC20/ERC20.sol\":6493:6512  fromBalance - value */\n  sub\n    /* \"node_modules/@openzeppelin/contracts/token/ERC20/ERC20.sol\":6475:6484  _balances */\n  0x00\n    /* \"node_modules/@openzeppelin/contracts/token/ERC20/ERC20.sol\":6475:6490  _balances[from] */\n  0x00\n    /* \"node_modules/@openzeppelin/contracts/token/ERC20/ERC20.sol\":6485:6489  from */\n  dup7\n    /* \"node_modules/@openzeppelin/contracts/token/ERC20/ERC20.sol\":6475:6490  _balances[from] */\n  0xffffffffffffffffffffffffffffffffffffffff\n  and\n  0xffffffffffffffffffffffffffffffffffffffff\n  and\n  dup2\n  mstore\n  0x20\n  add\n  swap1\n  dup2\n  mstore\n  0x20\n  add\n  0x00\n  keccak256\n    /* \"node_modules/@openzeppelin/contracts/token/ERC20/ERC20.sol\":6475:6512  _balances[from] = fromBalance - value */\n  dup2\n  swap1\n  sstore\n  pop\n    /* \"node_modules/@openzeppelin/contracts/token/ERC20/ERC20.sol\":6175:6537  {... */\n  pop\n    /* \"node_modules/@openzeppelin/contracts/token/ERC20/ERC20.sol\":5997:6537  if (from == address(0)) {... */\ntag_24:\n    /* \"node_modules/@openzeppelin/contracts/token/ERC20/ERC20.sol\":6565:6566  0 */\n  0x00\n    /* \"node_modules/@openzeppelin/contracts/token/ERC20/ERC20.sol\":6551:6567  to == address(0) */\n  0xffffffffffffffffffffffffffffffffffffffff\n  and\n    /* \"node_modules/@openzeppelin/contracts/token/ERC20/ERC20.sol\":6551:6553  to */\n  dup3\n    /* \"node_modules/@openzeppelin/contracts/token/ERC20/ERC20.sol\":6551:6567  to == address(0) */\n  0xffffffffffffffffffffffffffffffffffffffff\n  and\n  sub\n    /* \"node_modules/@openzeppelin/contracts/token/ERC20/ERC20.sol\":6547:6972  if (to == address(0)) {... */\n  tag_28\n  jumpi\n    /* \"node_modules/@openzeppelin/contracts/token/ERC20/ERC20.sol\":6730:6735  value */\n  dup1\n    /* \"node_modules/@openzeppelin/contracts/token/ERC20/ERC20.sol\":6714:6726  _totalSupply */\n  0x02\n  0x00\n    /* \"node_modules/@openzeppelin/contracts/token/ERC20/ERC20.sol\":6714:6735  _totalSupply -= value */\n  dup3\n  dup3\n  sload\n  sub\n  swap3\n  pop\n  pop\n  dup2\n  swap1\n  sstore\n  pop\n    /* \"node_modules/@openzeppelin/contracts/token/ERC20/ERC20.sol\":6547:6972  if (to == address(0)) {... */\n  jump(tag_29)\ntag_28:\n    /* \"node_modules/@openzeppelin/contracts/token/ERC20/ERC20.sol\":6942:6947  value */\n  dup1\n    /* \"node_modules/@openzeppelin/contracts/token/ERC20/ERC20.sol\":6925:6934  _balances */\n  0x00\n    /* \"node_modules/@openzeppelin/contracts/token/ERC20/ERC20.sol\":6925:6938  _balances[to] */\n  0x00\n    /* \"node_modules/@openzeppelin/contracts/token/ERC20/ERC20.sol\":6935:6937  to */\n  dup5\n    /* \"node_modules/@openzeppelin/contracts/token/ERC20/ERC20.sol\":6925:6938  _balances[to] */\n  0xffffffffffffffffffffffffffffffffffffffff\n  and\n  0xffffffffffffffffffffffffffffffffffffffff\n  and\n  dup2\n  mstore\n  0x20\n  add\n  swap1\n  dup2\n  mstore\n  0x20\n  add\n  0x00\n  keccak256\n  0x00\n    /* \"node_modules/@openzeppelin/contracts/token/ERC20/ERC20.sol\":6925:6947  _balances[to] += value */\n  dup3\n  dup3\n  sload\n  add\n  swap3\n  pop\n  pop\n  dup2\n  swap1\n  sstore\n  pop\n    /* \"node_modules/@openzeppelin/contracts/token/ERC20/ERC20.sol\":6547:6972  if (to == address(0)) {... */\ntag_29:\n    /* \"node_modules/@openzeppelin/contracts/token/ERC20/ERC20.sol\":7002:7004  to */\n  dup2\n    /* \"node_modules/@openzeppelin/contracts/token/ERC20/ERC20.sol\":6987:7012  Transfer(from, to, value) */\n  0xffffffffffffffffffffffffffffffffffffffff\n  and\n    /* \"node_modules/@openzeppelin/contracts/token/ERC20/ERC20.sol\":6996:7000  from */\n  dup4\n    /* \"node_modules/@openzeppelin/contracts/token/ERC20/ERC20.sol\":6987:7012  Transfer(from, to, value) */\n  0xffffffffffffffffffffffffffffffffffffffff\n  and\n  0xddf252ad1be2c89b69c2b068fc378daa952ba7f163c4a11628f55a4df523b3ef\n    /* \"node_modules/@openzeppelin/contracts/token/ERC20/ERC20.sol\":7006:7011  value */\n  dup4\n    /* \"node_modules/@openzeppelin/contracts/token/ERC20/ERC20.sol\":6987:7012  Transfer(from, to, value) */\n  mload(0x40)\n  tag_30\n  swap2\n  swap1\n  tag_31\n  jump\t// in\ntag_30:\n  mload(0x40)\n  dup1\n  swap2\n  sub\n  swap1\n  log3\n    /* \"node_modules/@openzeppelin/contracts/token/ERC20/ERC20.sol\":5912:7019  function _update(address from, address to, uint256 value) internal virtual {... */\n  pop\n  pop\n  pop\n  jump\t// out\n    /* \"#utility.yul\":7:82   */\ntag_32:\n    /* \"#utility.yul\":40:46   */\n  0x00\n    /* \"#utility.yul\":73:75   */\n  0x40\n    /* \"#utility.yul\":67:76   */\n  mload\n    /* \"#utility.yul\":57:76   */\n  swap1\n  pop\n    /* \"#utility.yul\":7:82   */\n  swap1\n  jump\t// out\n    /* \"#utility.yul\":88:205   */\ntag_33:\n    /* \"#utility.yul\":197:198   */\n  0x00\n    /* \"#utility.yul\":194:195   */\n  0x00\n    /* \"#utility.yul\":187:199   */\n  revert\n    /* \"#utility.yul\":211:328   */\ntag_34:\n    /* \"#utility.yul\":320:321   */\n  0x00\n    /* \"#utility.yul\":317:318   */\n  0x00\n    /* \"#utility.yul\":310:322   */\n  revert\n    /* \"#utility.yul\":334:451   */\ntag_35:\n    /* \"#utility.yul\":443:444   */\n  0x00\n    /* \"#utility.yul\":440:441   */\n  0x00\n    /* \"#utility.yul\":433:445   */\n  revert\n    /* \"#utility.yul\":457:574   */\ntag_36:\n    /* \"#utility.yul\":566:567   */\n  0x00\n    /* \"#utility.yul\":563:564   */\n  0x00\n    /* \"#utility.yul\":556:568   */\n  revert\n    /* \"#utility.yul\":580:682   */\ntag_37:\n    /* \"#utility.yul\":621:627   */\n  0x00\n    /* \"#utility.yul\":672:674   */\n  0x1f\n    /* \"#utility.yul\":668:675   */\n  not\n    /* \"#utility.yul\":663:665   */\n  0x1f\n    /* \"#utility.yul\":656:661   */\n  dup4\n    /* \"#utility.yul\":652:666   */\n  add\n    /* \"#utility.yul\":648:676   */\n  and\n    /* \"#utility.yul\":638:676   */\n  swap1\n  pop\n    /* \"#utility.yul\":580:682   */\n  swap2\n  swap1\n  pop\n  jump\t// out\n    /* \"#utility.yul\":688:868   */\ntag_38:\n    /* \"#utility.yul\":736:813   */\n  0x4e487b7100000000000000000000000000000000000000000000000000000000\n    /* \"#utility.yul\":733:734   */\n  0x00\n    /* \"#utility.yul\":726:814   */\n  mstore\n    /* \"#utility.yul\":833:837   */\n  0x41\n    /* \"#utility.yul\":830:831   */\n  0x04\n    /* \"#utility.yul\":823:838   */\n  mstore\n    /* \"#utility.yul\":857:861   */\n  0x24\n    /* \"#utility.yul\":854:855   */\n  0x00\n    /* \"#utility.yul\":847:862   */\n  revert\n    /* \"#utility.yul\":874:1155   */\ntag_39:\n    /* \"#utility.yul\":957:984   */\n  tag_82\n    /* \"#utility.yul\":979:983   */\n  dup3\n    /* \"#utility.yul\":957:984   */\n  tag_37\n  jump\t// in\ntag_82:\n    /* \"#utility.yul\":949:955   */\n  dup2\n    /* \"#utility.yul\":945:985   */\n  add\n    /* \"#utility.yul\":1087:1093   */\n  dup2\n    /* \"#utility.yul\":1075:1085   */\n  dup2\n    /* \"#utility.yul\":1072:1094   */\n  lt\n    /* \"#utility.yul\":1051:1069   */\n  0xffffffffffffffff\n    /* \"#utility.yul\":1039:1049   */\n  dup3\n    /* \"#utility.yul\":1036:1070   */\n  gt\n    /* \"#utility.yul\":1033:1095   */\n  or\n    /* \"#utility.yul\":1030:1118   */\n  iszero\n  tag_83\n  jumpi\n    /* \"#utility.yul\":1098:1116   */\n  tag_84\n  tag_38\n  jump\t// in\ntag_84:\n    /* \"#utility.yul\":1030:1118   */\ntag_83:\n    /* \"#utility.yul\":1138:1148   */\n  dup1\n    /* \"#utility.yul\":1134:1136   */\n  0x40\n    /* \"#utility.yul\":1127:1149   */\n  mstore\n    /* \"#utility.yul\":917:1155   */\n  pop\n    /* \"#utility.yul\":874:1155   */\n  pop\n  pop\n  jump\t// out\n    /* \"#utility.yul\":1161:1290   */\ntag_40:\n    /* \"#utility.yul\":1195:1201   */\n  0x00\n    /* \"#utility.yul\":1222:1242   */\n  tag_86\n  tag_32\n  jump\t// in\ntag_86:\n    /* \"#utility.yul\":1212:1242   */\n  swap1\n  pop\n    /* \"#utility.yul\":1251:1284   */\n  tag_87\n    /* \"#utility.yul\":1279:1283   */\n  dup3\n    /* \"#utility.yul\":1271:1277   */\n  dup3\n    /* \"#utility.yul\":1251:1284   */\n  tag_39\n  jump\t// in\ntag_87:\n    /* \"#utility.yul\":1161:1290   */\n  swap2\n  swap1\n  pop\n  jump\t// out\n    /* \"#utility.yul\":1296:1604   */\ntag_41:\n    /* \"#utility.yul\":1358:1362   */\n  0x00\n    /* \"#utility.yul\":1448:1466   */\n  0xffffffffffffffff\n    /* \"#utility.yul\":1440:1446   */\n  dup3\n    /* \"#utility.yul\":1437:1467   */\n  gt\n    /* \"#utility.yul\":1434:1490   */\n  iszero\n  tag_89\n  jumpi\n    /* \"#utility.yul\":1470:1488   */\n  tag_90\n  tag_38\n  jump\t// in\ntag_90:\n    /* \"#utility.yul\":1434:1490   */\ntag_89:\n    /* \"#utility.yul\":1508:1537   */\n  tag_91\n    /* \"#utility.yul\":1530:1536   */\n  dup3\n    /* \"#utility.yul\":1508:1537   */\n  tag_37\n  jump\t// in\ntag_91:\n    /* \"#utility.yul\":1500:1537   */\n  swap1\n  pop\n    /* \"#utility.yul\":1592:1596   */\n  0x20\n    /* \"#utility.yul\":1586:1590   */\n  dup2\n    /* \"#utility.yul\":1582:1597   */\n  add\n    /* \"#utility.yul\":1574:1597   */\n  swap1\n  pop\n    /* \"#utility.yul\":1296:1604   */\n  swap2\n  swap1\n  pop\n  jump\t// out\n    /* \"#utility.yul\":1610:1749   */\ntag_42:\n    /* \"#utility.yul\":1699:1705   */\n  dup3\n    /* \"#utility.yul\":1694:1697   */\n  dup2\n    /* \"#utility.yul\":1689:1692   */\n  dup4\n    /* \"#utility.yul\":1683:1706   */\n  mcopy\n    /* \"#utility.yul\":1740:1741   */\n  0x00\n    /* \"#utility.yul\":1731:1737   */\n  dup4\n    /* \"#utility.yul\":1726:1729   */\n  dup4\n    /* \"#utility.yul\":1722:1738   */\n  add\n    /* \"#utility.yul\":1715:1742   */\n  mstore\n    /* \"#utility.yul\":1610:1749   */\n  pop\n  pop\n  pop\n  jump\t// out\n    /* \"#utility.yul\":1755:2189   */\ntag_43:\n    /* \"#utility.yul\":1844:1849   */\n  0x00\n    /* \"#utility.yul\":1869:1935   */\n  tag_94\n    /* \"#utility.yul\":1885:1934   */\n  tag_95\n    /* \"#utility.yul\":1927:1933   */\n  dup5\n    /* \"#utility.yul\":1885:1934   */\n  tag_41\n  jump\t// in\ntag_95:\n    /* \"#utility.yul\":1869:1935   */\n  tag_40\n  jump\t// in\ntag_94:\n    /* \"#utility.yul\":1860:1935   */\n  swap1\n  pop\n    /* \"#utility.yul\":1958:1964   */\n  dup3\n    /* \"#utility.yul\":1951:1956   */\n  dup2\n    /* \"#utility.yul\":1944:1965   */\n  mstore\n    /* \"#utility.yul\":1996:2000   */\n  0x20\n    /* \"#utility.yul\":1989:1994   */\n  dup2\n    /* \"#utility.yul\":1985:2001   */\n  add\n    /* \"#utility.yul\":2034:2037   */\n  dup5\n    /* \"#utility.yul\":2025:2031   */\n  dup5\n    /* \"#utility.yul\":2020:2023   */\n  dup5\n    /* \"#utility.yul\":2016:2032   */\n  add\n    /* \"#utility.yul\":2013:2038   */\n  gt\n    /* \"#utility.yul\":2010:2122   */\n  iszero\n  tag_96\n  jumpi\n    /* \"#utility.yul\":2041:2120   */\n  tag_97\n  tag_36\n  jump\t// in\ntag_97:\n    /* \"#utility.yul\":2010:2122   */\ntag_96:\n    /* \"#utility.yul\":2131:2183   */\n  tag_98\n    /* \"#utility.yul\":2176:2182   */\n  dup5\n    /* \"#utility.yul\":2171:2174   */\n  dup3\n    /* \"#utility.yul\":2166:2169   */\n  dup6\n    /* \"#utility.yul\":2131:2183   */\n  tag_42\n  jump\t// in\ntag_98:\n    /* \"#utility.yul\":1850:2189   */\n  pop\n    /* \"#utility.yul\":1755:2189   */\n  swap4\n  swap3\n  pop\n  pop\n  pop\n  jump\t// out\n    /* \"#utility.yul\":2209:2564   */\ntag_44:\n    /* \"#utility.yul\":2276:2281   */\n  0x00\n    /* \"#utility.yul\":2325:2328   */\n  dup3\n    /* \"#utility.yul\":2318:2322   */\n  0x1f\n    /* \"#utility.yul\":2310:2316   */\n  dup4\n    /* \"#utility.yul\":2306:2323   */\n  add\n    /* \"#utility.yul\":2302:2329   */\n  slt\n    /* \"#utility.yul\":2292:2414   */\n  tag_100\n  jumpi\n    /* \"#utility.yul\":2333:2412   */\n  tag_101\n  tag_35\n  jump\t// in\ntag_101:\n    /* \"#utility.yul\":2292:2414   */\ntag_100:\n    /* \"#utility.yul\":2443:2449   */\n  dup2\n    /* \"#utility.yul\":2437:2450   */\n  mload\n    /* \"#utility.yul\":2468:2558   */\n  tag_102\n    /* \"#utility.yul\":2554:2557   */\n  dup5\n    /* \"#utility.yul\":2546:2552   */\n  dup3\n    /* \"#utility.yul\":2539:2543   */\n  0x20\n    /* \"#utility.yul\":2531:2537   */\n  dup7\n    /* \"#utility.yul\":2527:2544   */\n  add\n    /* \"#utility.yul\":2468:2558   */\n  tag_43\n  jump\t// in\ntag_102:\n    /* \"#utility.yul\":2459:2558   */\n  swap2\n  pop\n    /* \"#utility.yul\":2282:2564   */\n  pop\n    /* \"#utility.yul\":2209:2564   */\n  swap3\n  swap2\n  pop\n  pop\n  jump\t// out\n    /* \"#utility.yul\":2570:2647   */\ntag_45:\n    /* \"#utility.yul\":2607:2614   */\n  0x00\n    /* \"#utility.yul\":2636:2641   */\n  dup2\n    /* \"#utility.yul\":2625:2641   */\n  swap1\n  pop\n    /* \"#utility.yul\":2570:2647   */\n  swap2\n  swap1\n  pop\n  jump\t// out\n    /* \"#utility.yul\":2653:2775   */\ntag_46:\n    /* \"#utility.yul\":2726:2750   */\n  tag_105\n    /* \"#utility.yul\":2744:2749   */\n  dup2\n    /* \"#utility.yul\":2726:2750   */\n  tag_45\n  jump\t// in\ntag_105:\n    /* \"#utility.yul\":2719:2724   */\n  dup2\n    /* \"#utility.yul\":2716:2751   */\n  eq\n    /* \"#utility.yul\":2706:2769   */\n  tag_106\n  jumpi\n    /* \"#utility.yul\":2765:2766   */\n  0x00\n    /* \"#utility.yul\":2762:2763   */\n  0x00\n    /* \"#utility.yul\":2755:2767   */\n  revert\n    /* \"#utility.yul\":2706:2769   */\ntag_106:\n    /* \"#utility.yul\":2653:2775   */\n  pop\n  jump\t// out\n    /* \"#utility.yul\":2781:2924   */\ntag_47:\n    /* \"#utility.yul\":2838:2843   */\n  0x00\n    /* \"#utility.yul\":2869:2875   */\n  dup2\n    /* \"#utility.yul\":2863:2876   */\n  mload\n    /* \"#utility.yul\":2854:2876   */\n  swap1\n  pop\n    /* \"#utility.yul\":2885:2918   */\n  tag_108\n    /* \"#utility.yul\":2912:2917   */\n  dup2\n    /* \"#utility.yul\":2885:2918   */\n  tag_46\n  jump\t// in\ntag_108:\n    /* \"#utility.yul\":2781:2924   */\n  swap3\n  swap2\n  pop\n  pop\n  jump\t// out\n    /* \"#utility.yul\":2930:3056   */\ntag_48:\n    /* \"#utility.yul\":2967:2974   */\n  0x00\n    /* \"#utility.yul\":3007:3049   */\n  0xffffffffffffffffffffffffffffffffffffffff\n    /* \"#utility.yul\":3000:3005   */\n  dup3\n    /* \"#utility.yul\":2996:3050   */\n  and\n    /* \"#utility.yul\":2985:3050   */\n  swap1\n  pop\n    /* \"#utility.yul\":2930:3056   */\n  swap2\n  swap1\n  pop\n  jump\t// out\n    /* \"#utility.yul\":3062:3158   */\ntag_49:\n    /* \"#utility.yul\":3099:3106   */\n  0x00\n    /* \"#utility.yul\":3128:3152   */\n  tag_111\n    /* \"#utility.yul\":3146:3151   */\n  dup3\n    /* \"#utility.yul\":3128:3152   */\n  tag_48\n  jump\t// in\ntag_111:\n    /* \"#utility.yul\":3117:3152   */\n  swap1\n  pop\n    /* \"#utility.yul\":3062:3158   */\n  swap2\n  swap1\n  pop\n  jump\t// out\n    /* \"#utility.yul\":3164:3286   */\ntag_50:\n    /* \"#utility.yul\":3237:3261   */\n  tag_113\n    /* \"#utility.yul\":3255:3260   */\n  dup2\n    /* \"#utility.yul\":3237:3261   */\n  tag_49\n  jump\t// in\ntag_113:\n    /* \"#utility.yul\":3230:3235   */\n  dup2\n    /* \"#utility.yul\":3227:3262   */\n  eq\n    /* \"#utility.yul\":3217:3280   */\n  tag_114\n  jumpi\n    /* \"#utility.yul\":3276:3277   */\n  0x00\n    /* \"#utility.yul\":3273:3274   */\n  0x00\n    /* \"#utility.yul\":3266:3278   */\n  revert\n    /* \"#utility.yul\":3217:3280   */\ntag_114:\n    /* \"#utility.yul\":3164:3286   */\n  pop\n  jump\t// out\n    /* \"#utility.yul\":3292:3435   */\ntag_51:\n    /* \"#utility.yul\":3349:3354   */\n  0x00\n    /* \"#utility.yul\":3380:3386   */\n  dup2\n    /* \"#utility.yul\":3374:3387   */\n  mload\n    /* \"#utility.yul\":3365:3387   */\n  swap1\n  pop\n    /* \"#utility.yul\":3396:3429   */\n  tag_116\n    /* \"#utility.yul\":3423:3428   */\n  dup2\n    /* \"#utility.yul\":3396:3429   */\n  tag_50\n  jump\t// in\ntag_116:\n    /* \"#utility.yul\":3292:3435   */\n  swap3\n  swap2\n  pop\n  pop\n  jump\t// out\n    /* \"#utility.yul\":3441:5078   */\ntag_3:\n    /* \"#utility.yul\":3585:3591   */\n  0x00\n    /* \"#utility.yul\":3593:3599   */\n  0x00\n    /* \"#utility.yul\":3601:3607   */\n  0x00\n    /* \"#utility.yul\":3609:3615   */\n  0x00\n    /* \"#utility.yul\":3617:3623   */\n  0x00\n    /* \"#utility.yul\":3625:3631   */\n  0x00\n    /* \"#utility.yul\":3633:3639   */\n  0x00\n    /* \"#utility.yul\":3682:3685   */\n  0xe0\n    /* \"#utility.yul\":3670:3679   */\n  dup9\n    /* \"#utility.yul\":3661:3668   */\n  dup11\n    /* \"#utility.yul\":3657:3680   */\n  sub\n    /* \"#utility.yul\":3653:3686   */\n  slt\n    /* \"#utility.yul\":3650:3770   */\n  iszero\n  tag_118\n  jumpi\n    /* \"#utility.yul\":3689:3768   */\n  tag_119\n  tag_33\n  jump\t// in\ntag_119:\n    /* \"#utility.yul\":3650:3770   */\ntag_118:\n    /* \"#utility.yul\":3830:3831   */\n  0x00\n    /* \"#utility.yul\":3819:3828   */\n  dup9\n    /* \"#utility.yul\":3815:3832   */\n  add\n    /* \"#utility.yul\":3809:3833   */\n  mload\n    /* \"#utility.yul\":3860:3878   */\n  0xffffffffffffffff\n    /* \"#utility.yul\":3852:3858   */\n  dup2\n    /* \"#utility.yul\":3849:3879   */\n  gt\n    /* \"#utility.yul\":3846:3963   */\n  iszero\n  tag_120\n  jumpi\n    /* \"#utility.yul\":3882:3961   */\n  tag_121\n  tag_34\n  jump\t// in\ntag_121:\n    /* \"#utility.yul\":3846:3963   */\ntag_120:\n    /* \"#utility.yul\":3987:4061   */\n  tag_122\n    /* \"#utility.yul\":4053:4060   */\n  dup11\n    /* \"#utility.yul\":4044:4050   */\n  dup3\n    /* \"#utility.yul\":4033:4042   */\n  dup12\n    /* \"#utility.yul\":4029:4051   */\n  add\n    /* \"#utility.yul\":3987:4061   */\n  tag_44\n  jump\t// in\ntag_122:\n    /* \"#utility.yul\":3977:4061   */\n  swap8\n  pop\n    /* \"#utility.yul\":3780:4071   */\n  pop\n    /* \"#utility.yul\":4131:4133   */\n  0x20\n    /* \"#utility.yul\":4120:4129   */\n  dup9\n    /* \"#utility.yul\":4116:4134   */\n  add\n    /* \"#utility.yul\":4110:4135   */\n  mload\n    /* \"#utility.yul\":4162:4180   */\n  0xffffffffffffffff\n    /* \"#utility.yul\":4154:4160   */\n  dup2\n    /* \"#utility.yul\":4151:4181   */\n  gt\n    /* \"#utility.yul\":4148:4265   */\n  iszero\n  tag_123\n  jumpi\n    /* \"#utility.yul\":4184:4263   */\n  tag_124\n  tag_34\n  jump\t// in\ntag_124:\n    /* \"#utility.yul\":4148:4265   */\ntag_123:\n    /* \"#utility.yul\":4289:4363   */\n  tag_125\n    /* \"#utility.yul\":4355:4362   */\n  dup11\n    /* \"#utility.yul\":4346:4352   */\n  dup3\n    /* \"#utility.yul\":4335:4344   */\n  dup12\n    /* \"#utility.yul\":4331:4353   */\n  add\n    /* \"#utility.yul\":4289:4363   */\n  tag_44\n  jump\t// in\ntag_125:\n    /* \"#utility.yul\":4279:4363   */\n  swap7\n  pop\n    /* \"#utility.yul\":4081:4373   */\n  pop\n    /* \"#utility.yul\":4412:4414   */\n  0x40\n    /* \"#utility.yul\":4438:4502   */\n  tag_126\n    /* \"#utility.yul\":4494:4501   */\n  dup11\n    /* \"#utility.yul\":4485:4491   */\n  dup3\n    /* \"#utility.yul\":4474:4483   */\n  dup12\n    /* \"#utility.yul\":4470:4492   */\n  add\n    /* \"#utility.yul\":4438:4502   */\n  tag_47\n  jump\t// in\ntag_126:\n    /* \"#utility.yul\":4428:4502   */\n  swap6\n  pop\n    /* \"#utility.yul\":4383:4512   */\n  pop\n    /* \"#utility.yul\":4551:4553   */\n  0x60\n    /* \"#utility.yul\":4577:4641   */\n  tag_127\n    /* \"#utility.yul\":4633:4640   */\n  dup11\n    /* \"#utility.yul\":4624:4630   */\n  dup3\n    /* \"#utility.yul\":4613:4622   */\n  dup12\n    /* \"#utility.yul\":4609:4631   */\n  add\n    /* \"#utility.yul\":4577:4641   */\n  tag_47\n  jump\t// in\ntag_127:\n    /* \"#utility.yul\":4567:4641   */\n  swap5\n  pop\n    /* \"#utility.yul\":4522:4651   */\n  pop\n    /* \"#utility.yul\":4690:4693   */\n  0x80\n    /* \"#utility.yul\":4717:4781   */\n  tag_128\n    /* \"#utility.yul\":4773:4780   */\n  dup11\n    /* \"#utility.yul\":4764:4770   */\n  dup3\n    /* \"#utility.yul\":4753:4762   */\n  dup12\n    /* \"#utility.yul\":4749:4771   */\n  add\n    /* \"#utility.yul\":4717:4781   */\n  tag_47\n  jump\t// in\ntag_128:\n    /* \"#utility.yul\":4707:4781   */\n  swap4\n  pop\n    /* \"#utility.yul\":4661:4791   */\n  pop\n    /* \"#utility.yul\":4830:4833   */\n  0xa0\n    /* \"#utility.yul\":4857:4921   */\n  tag_129\n    /* \"#utility.yul\":4913:4920   */\n  dup11\n    /* \"#utility.yul\":4904:4910   */\n  dup3\n    /* \"#utility.yul\":4893:4902   */\n  dup12\n    /* \"#utility.yul\":4889:4911   */\n  add\n    /* \"#utility.yul\":4857:4921   */\n  tag_51\n  jump\t// in\ntag_129:\n    /* \"#utility.yul\":4847:4921   */\n  swap3\n  pop\n    /* \"#utility.yul\":4801:4931   */\n  pop\n    /* \"#utility.yul\":4970:4973   */\n  0xc0\n    /* \"#utility.yul\":4997:5061   */\n  tag_130\n    /* \"#utility.yul\":5053:5060   */\n  dup11\n    /* \"#utility.yul\":5044:5050   */\n  dup3\n    /* \"#utility.yul\":5033:5042   */\n  dup12\n    /* \"#utility.yul\":5029:5051   */\n  add\n    /* \"#utility.yul\":4997:5061   */\n  tag_51\n  jump\t// in\ntag_130:\n    /* \"#utility.yul\":4987:5061   */\n  swap2\n  pop\n    /* \"#utility.yul\":4941:5071   */\n  pop\n    /* \"#utility.yul\":3441:5078   */\n  swap3\n  swap6\n  swap9\n  swap2\n  swap5\n  swap8\n  pop\n  swap3\n  swap6\n  pop\n  jump\t// out\n    /* \"#utility.yul\":5084:5183   */\ntag_52:\n    /* \"#utility.yul\":5136:5142   */\n  0x00\n    /* \"#utility.yul\":5170:5175   */\n  dup2\n    /* \"#utility.yul\":5164:5176   */\n  mload\n    /* \"#utility.yul\":5154:5176   */\n  swap1\n  pop\n    /* \"#utility.yul\":5084:5183   */\n  swap2\n  swap1\n  pop\n  jump\t// out\n    /* \"#utility.yul\":5189:5369   */\ntag_53:\n    /* \"#utility.yul\":5237:5314   */\n  0x4e487b7100000000000000000000000000000000000000000000000000000000\n    /* \"#utility.yul\":5234:5235   */\n  0x00\n    /* \"#utility.yul\":5227:5315   */\n  mstore\n    /* \"#utility.yul\":5334:5338   */\n  0x22\n    /* \"#utility.yul\":5331:5332   */\n  0x04\n    /* \"#utility.yul\":5324:5339   */\n  mstore\n    /* \"#utility.yul\":5358:5362   */\n  0x24\n    /* \"#utility.yul\":5355:5356   */\n  0x00\n    /* \"#utility.yul\":5348:5363   */\n  revert\n    /* \"#utility.yul\":5375:5695   */\ntag_54:\n    /* \"#utility.yul\":5419:5425   */\n  0x00\n    /* \"#utility.yul\":5456:5457   */\n  0x02\n    /* \"#utility.yul\":5450:5454   */\n  dup3\n    /* \"#utility.yul\":5446:5458   */\n  div\n    /* \"#utility.yul\":5436:5458   */\n  swap1\n  pop\n    /* \"#utility.yul\":5503:5504   */\n  0x01\n    /* \"#utility.yul\":5497:5501   */\n  dup3\n    /* \"#utility.yul\":5493:5505   */\n  and\n    /* \"#utility.yul\":5524:5542   */\n  dup1\n    /* \"#utility.yul\":5514:5595   */\n  tag_134\n  jumpi\n    /* \"#utility.yul\":5580:5584   */\n  0x7f\n    /* \"#utility.yul\":5572:5578   */\n  dup3\n    /* \"#utility.yul\":5568:5585   */\n  and\n    /* \"#utility.yul\":5558:5585   */\n  swap2\n  pop\n    /* \"#utility.yul\":5514:5595   */\ntag_134:\n    /* \"#utility.yul\":5642:5644   */\n  0x20\n    /* \"#utility.yul\":5634:5640   */\n  dup3\n    /* \"#utility.yul\":5631:5645   */\n  lt\n    /* \"#utility.yul\":5611:5629   */\n  dup2\n    /* \"#utility.yul\":5608:5646   */\n  sub\n    /* \"#utility.yul\":5605:5689   */\n  tag_135\n  jumpi\n    /* \"#utility.yul\":5661:5679   */\n  tag_136\n  tag_53\n  jump\t// in\ntag_136:\n    /* \"#utility.yul\":5605:5689   */\ntag_135:\n    /* \"#utility.yul\":5426:5695   */\n  pop\n    /* \"#utility.yul\":5375:5695   */\n  swap2\n  swap1\n  pop\n  jump\t// out\n    /* \"#utility.yul\":5701:5842   */\ntag_55:\n    /* \"#utility.yul\":5750:5754   */\n  0x00\n    /* \"#utility.yul\":5773:5776   */\n  dup2\n    /* \"#utility.yul\":5765:5776   */\n  swap1\n  pop\n    /* \"#utility.yul\":5796:5799   */\n  dup2\n    /* \"#utility.yul\":5793:5794   */\n  0x00\n    /* \"#utility.yul\":5786:5800   */\n  mstore\n    /* \"#utility.yul\":5830:5834   */\n  0x20\n    /* \"#utility.yul\":5827:5828   */\n  0x00\n    /* \"#utility.yul\":5817:5835   */\n  keccak256\n    /* \"#utility.yul\":5809:5835   */\n  swap1\n  pop\n    /* \"#utility.yul\":5701:5842   */\n  swap2\n  swap1\n  pop\n  jump\t// out\n    /* \"#utility.yul\":5848:5941   */\ntag_56:\n    /* \"#utility.yul\":5885:5891   */\n  0x00\n    /* \"#utility.yul\":5932:5934   */\n  0x20\n    /* \"#utility.yul\":5927:5929   */\n  0x1f\n    /* \"#utility.yul\":5920:5925   */\n  dup4\n    /* \"#utility.yul\":5916:5930   */\n  add\n    /* \"#utility.yul\":5912:5935   */\n  div\n    /* \"#utility.yul\":5902:5935   */\n  swap1\n  pop\n    /* \"#utility.yul\":5848:5941   */\n  swap2\n  swap1\n  pop\n  jump\t// out\n    /* \"#utility.yul\":5947:6054   */\ntag_57:\n    /* \"#utility.yul\":5991:5999   */\n  0x00\n    /* \"#utility.yul\":6041:6046   */\n  dup3\n    /* \"#utility.yul\":6035:6039   */\n  dup3\n    /* \"#utility.yul\":6031:6047   */\n  shl\n    /* \"#utility.yul\":6010:6047   */\n  swap1\n  pop\n    /* \"#utility.yul\":5947:6054   */\n  swap3\n  swap2\n  pop\n  pop\n  jump\t// out\n    /* \"#utility.yul\":6060:6453   */\ntag_58:\n    /* \"#utility.yul\":6129:6135   */\n  0x00\n    /* \"#utility.yul\":6179:6180   */\n  0x08\n    /* \"#utility.yul\":6167:6177   */\n  dup4\n    /* \"#utility.yul\":6163:6181   */\n  mul\n    /* \"#utility.yul\":6202:6299   */\n  tag_141\n    /* \"#utility.yul\":6232:6298   */\n  0xffffffffffffffffffffffffffffffffffffffffffffffffffffffffffffffff\n    /* \"#utility.yul\":6221:6230   */\n  dup3\n    /* \"#utility.yul\":6202:6299   */\n  tag_57\n  jump\t// in\ntag_141:\n    /* \"#utility.yul\":6320:6359   */\n  tag_142\n    /* \"#utility.yul\":6350:6358   */\n  dup7\n    /* \"#utility.yul\":6339:6348   */\n  dup4\n    /* \"#utility.yul\":6320:6359   */\n  tag_57\n  jump\t// in\ntag_142:\n    /* \"#utility.yul\":6308:6359   */\n  swap6\n  pop\n    /* \"#utility.yul\":6392:6396   */\n  dup1\n    /* \"#utility.yul\":6388:6397   */\n  not\n    /* \"#utility.yul\":6381:6386   */\n  dup5\n    /* \"#utility.yul\":6377:6398   */\n  and\n    /* \"#utility.yul\":6368:6398   */\n  swap4\n  pop\n    /* \"#utility.yul\":6441:6445   */\n  dup1\n    /* \"#utility.yul\":6431:6439   */\n  dup7\n    /* \"#utility.yul\":6427:6446   */\n  and\n    /* \"#utility.yul\":6420:6425   */\n  dup5\n    /* \"#utility.yul\":6417:6447   */\n  or\n    /* \"#utility.yul\":6407:6447   */\n  swap3\n  pop\n    /* \"#utility.yul\":6136:6453   */\n  pop\n  pop\n    /* \"#utility.yul\":6060:6453   */\n  swap4\n  swap3\n  pop\n  pop\n  pop\n  jump\t// out\n    /* \"#utility.yul\":6459:6519   */\ntag_59:\n    /* \"#utility.yul\":6487:6490   */\n  0x00\n    /* \"#utility.yul\":6508:6513   */\n  dup2\n    /* \"#utility.yul\":6501:6513   */\n  swap1\n  pop\n    /* \"#utility.yul\":6459:6519   */\n  swap2\n  swap1\n  pop\n  jump\t// out\n    /* \"#utility.yul\":6525:6667   */\ntag_60:\n    /* \"#utility.yul\":6575:6584   */\n  0x00\n    /* \"#utility.yul\":6608:6661   */\n  tag_145\n    /* \"#utility.yul\":6626:6660   */\n  tag_146\n    /* \"#utility.yul\":6635:6659   */\n  tag_147\n    /* \"#utility.yul\":6653:6658   */\n  dup5\n    /* \"#utility.yul\":6635:6659   */\n  tag_45\n  jump\t// in\ntag_147:\n    /* \"#utility.yul\":6626:6660   */\n  tag_59\n  jump\t// in\ntag_146:\n    /* \"#utility.yul\":6608:6661   */\n  tag_45\n  jump\t// in\ntag_145:\n    /* \"#utility.yul\":6595:6661   */\n  swap1\n  pop\n    /* \"#utility.yul\":6525:6667   */\n  swap2\n  swap1\n  pop\n  jump\t// out\n    /* \"#utility.yul\":6673:6748   */\ntag_61:\n    /* \"#utility.yul\":6716:6719   */\n  0x00\n    /* \"#utility.yul\":6737:6742   */\n  dup2\n    /* \"#utility.yul\":6730:6742   */\n  swap1\n  pop\n    /* \"#utility.yul\":6673:6748   */\n  swap2\n  swap1\n  pop\n  jump\t// out\n    /* \"#utility.yul\":6754:7023   */\ntag_62:\n    /* \"#utility.yul\":6864:6903   */\n  tag_150\n    /* \"#utility.yul\":6895:6902   */\n  dup4\n    /* \"#utility.yul\":6864:6903   */\n  tag_60\n  jump\t// in\ntag_150:\n    /* \"#utility.yul\":6925:7016   */\n  tag_151\n    /* \"#utility.yul\":6974:7015   */\n  tag_152\n    /* \"#utility.yul\":6998:7014   */\n  dup3\n    /* \"#utility.yul\":6974:7015   */\n  tag_61\n  jump\t// in\ntag_152:\n    /* \"#utility.yul\":6966:6972   */\n  dup5\n    /* \"#utility.yul\":6959:6963   */\n  dup5\n    /* \"#utility.yul\":6953:6964   */\n  sload\n    /* \"#utility.yul\":6925:7016   */\n  tag_58\n  jump\t// in\ntag_151:\n    /* \"#utility.yul\":6919:6923   */\n  dup3\n    /* \"#utility.yul\":6912:7017   */\n  sstore\n    /* \"#utility.yul\":6830:7023   */\n  pop\n    /* \"#utility.yul\":6754:7023   */\n  pop\n  pop\n  pop\n  jump\t// out\n    /* \"#utility.yul\":7029:7102   */\ntag_63:\n    /* \"#utility.yul\":7074:7077   */\n  0x00\n    /* \"#utility.yul\":7095:7096   */\n  0x00\n    /* \"#utility.yul\":7088:7096   */\n  swap1\n  pop\n    /* \"#utility.yul\":7029:7102   */\n  swap1\n  jump\t// out\n    /* \"#utility.yul\":7108:7297   */\ntag_64:\n    /* \"#utility.yul\":7185:7217   */\n  tag_155\n  tag_63\n  jump\t// in\ntag_155:\n    /* \"#utility.yul\":7226:7291   */\n  tag_156\n    /* \"#utility.yul\":7284:7290   */\n  dup2\n    /* \"#utility.yul\":7276:7282   */\n  dup5\n    /* \"#utility.yul\":7270:7274   */\n  dup5\n    /* \"#utility.yul\":7226:7291   */\n  tag_62\n  jump\t// in\ntag_156:\n    /* \"#utility.yul\":7161:7297   */\n  pop\n    /* \"#utility.yul\":7108:7297   */\n  pop\n  pop\n  jump\t// out\n    /* \"#utility.yul\":7303:7489   */\ntag_65:\n    /* \"#utility.yul\":7363:7483   */\ntag_158:\n    /* \"#utility.yul\":7380:7383   */\n  dup2\n    /* \"#utility.yul\":7373:7378   */\n  dup2\n    /* \"#utility.yul\":7370:7384   */\n  lt\n    /* \"#utility.yul\":7363:7483   */\n  iszero\n  tag_160\n  jumpi\n    /* \"#utility.yul\":7434:7473   */\n  tag_161\n    /* \"#utility.yul\":7471:7472   */\n  0x00\n    /* \"#utility.yul\":7464:7469   */\n  dup3\n    /* \"#utility.yul\":7434:7473   */\n  tag_64\n  jump\t// in\ntag_161:\n    /* \"#utility.yul\":7407:7408   */\n  0x01\n    /* \"#utility.yul\":7400:7405   */\n  dup2\n    /* \"#utility.yul\":7396:7409   */\n  add\n    /* \"#utility.yul\":7387:7409   */\n  swap1\n  pop\n    /* \"#utility.yul\":7363:7483   */\n  jump(tag_158)\ntag_160:\n    /* \"#utility.yul\":7303:7489   */\n  pop\n  pop\n  jump\t// out\n    /* \"#utility.yul\":7495:8038   */\ntag_66:\n    /* \"#utility.yul\":7596:7598   */\n  0x1f\n    /* \"#utility.yul\":7591:7594   */\n  dup3\n    /* \"#utility.yul\":7588:7599   */\n  gt\n    /* \"#utility.yul\":7585:8031   */\n  iszero\n  tag_163\n  jumpi\n    /* \"#utility.yul\":7630:7668   */\n  tag_164\n    /* \"#utility.yul\":7662:7667   */\n  dup2\n    /* \"#utility.yul\":7630:7668   */\n  tag_55\n  jump\t// in\ntag_164:\n    /* \"#utility.yul\":7714:7743   */\n  tag_165\n    /* \"#utility.yul\":7732:7742   */\n  dup5\n    /* \"#utility.yul\":7714:7743   */\n  tag_56\n  jump\t// in\ntag_165:\n    /* \"#utility.yul\":7704:7712   */\n  dup2\n    /* \"#utility.yul\":7700:7744   */\n  add\n    /* \"#utility.yul\":7897:7899   */\n  0x20\n    /* \"#utility.yul\":7885:7895   */\n  dup6\n    /* \"#utility.yul\":7882:7900   */\n  lt\n    /* \"#utility.yul\":7879:7928   */\n  iszero\n  tag_166\n  jumpi\n    /* \"#utility.yul\":7918:7926   */\n  dup2\n    /* \"#utility.yul\":7903:7926   */\n  swap1\n  pop\n    /* \"#utility.yul\":7879:7928   */\ntag_166:\n    /* \"#utility.yul\":7941:8021   */\n  tag_167\n    /* \"#utility.yul\":7997:8019   */\n  tag_168\n    /* \"#utility.yul\":8015:8018   */\n  dup6\n    /* \"#utility.yul\":7997:8019   */\n  tag_56\n  jump\t// in\ntag_168:\n    /* \"#utility.yul\":7987:7995   */\n  dup4\n    /* \"#utility.yul\":7983:8020   */\n  add\n    /* \"#utility.yul\":7970:7981   */\n  dup3\n    /* \"#utility.yul\":7941:8021   */\n  tag_65\n  jump\t// in\ntag_167:\n    /* \"#utility.yul\":7600:8031   */\n  pop\n  pop\n    /* \"#utility.yul\":7585:8031   */\ntag_163:\n    /* \"#utility.yul\":7495:8038   */\n  pop\n  pop\n  pop\n  jump\t// out\n    /* \"#utility.yul\":8044:8161   */\ntag_67:\n    /* \"#utility.yul\":8098:8106   */\n  0x00\n    /* \"#utility.yul\":8148:8153   */\n  dup3\n    /* \"#utility.yul\":8142:8146   */\n  dup3\n    /* \"#utility.yul\":8138:8154   */\n  shr\n    /* \"#utility.yul\":8117:8154   */\n  swap1\n  pop\n    /* \"#utility.yul\":8044:8161   */\n  swap3\n  swap2\n  pop\n  pop\n  jump\t// out\n    /* \"#utility.yul\":8167:8336   */\ntag_68:\n    /* \"#utility.yul\":8211:8217   */\n  0x00\n    /* \"#utility.yul\":8244:8295   */\n  tag_171\n    /* \"#utility.yul\":8292:8293   */\n  0x00\n    /* \"#utility.yul\":8288:8294   */\n  not\n    /* \"#utility.yul\":8280:8285   */\n  dup5\n    /* \"#utility.yul\":8277:8278   */\n  0x08\n    /* \"#utility.yul\":8273:8286   */\n  mul\n    /* \"#utility.yul\":8244:8295   */\n  tag_67\n  jump\t// in\ntag_171:\n    /* \"#utility.yul\":8240:8296   */\n  not\n    /* \"#utility.yul\":8325:8329   */\n  dup1\n    /* \"#utility.yul\":8319:8323   */\n  dup4\n    /* \"#utility.yul\":8315:8330   */\n  and\n    /* \"#utility.yul\":8305:8330   */\n  swap2\n  pop\n    /* \"#utility.yul\":8218:8336   */\n  pop\n    /* \"#utility.yul\":8167:8336   */\n  swap3\n  swap2\n  pop\n  pop\n  jump\t// out\n    /* \"#utility.yul\":8341:8636   */\ntag_69:\n    /* \"#utility.yul\":8417:8421   */\n  0x00\n    /* \"#utility.yul\":8563:8592   */\n  tag_173\n    /* \"#utility.yul\":8588:8591   */\n  dup4\n    /* \"#utility.yul\":8582:8586   */\n  dup4\n    /* \"#utility.yul\":8563:8592   */\n  tag_68\n  jump\t// in\ntag_173:\n    /* \"#utility.yul\":8555:8592   */\n  swap2\n  pop\n    /* \"#utility.yul\":8625:8628   */\n  dup3\n    /* \"#utility.yul\":8622:8623   */\n  0x02\n    /* \"#utility.yul\":8618:8629   */\n  mul\n    /* \"#utility.yul\":8612:8616   */\n  dup3\n    /* \"#utility.yul\":8609:8630   */\n  or\n    /* \"#utility.yul\":8601:8630   */\n  swap1\n  pop\n    /* \"#utility.yul\":8341:8636   */\n  swap3\n  swap2\n  pop\n  pop\n  jump\t// out\n    /* \"#utility.yul\":8641:10036   */\ntag_8:\n    /* \"#utility.yul\":8758:8795   */\n  tag_175\n    /* \"#utility.yul\":8791:8794   */\n  dup3\n    /* \"#utility.yul\":8758:8795   */\n  tag_52\n  jump\t// in\ntag_175:\n    /* \"#utility.yul\":8860:8878   */\n  0xffffffffffffffff\n    /* \"#utility.yul\":8852:8858   */\n  dup2\n    /* \"#utility.yul\":8849:8879   */\n  gt\n    /* \"#utility.yul\":8846:8902   */\n  iszero\n  tag_176\n  jumpi\n    /* \"#utility.yul\":8882:8900   */\n  tag_177\n  tag_38\n  jump\t// in\ntag_177:\n    /* \"#utility.yul\":8846:8902   */\ntag_176:\n    /* \"#utility.yul\":8926:8964   */\n  tag_178\n    /* \"#utility.yul\":8958:8962   */\n  dup3\n    /* \"#utility.yul\":8952:8963   */\n  sload\n    /* \"#utility.yul\":8926:8964   */\n  tag_54\n  jump\t// in\ntag_178:\n    /* \"#utility.yul\":9011:9078   */\n  tag_179\n    /* \"#utility.yul\":9071:9077   */\n  dup3\n    /* \"#utility.yul\":9063:9069   */\n  dup3\n    /* \"#utility.yul\":9057:9061   */\n  dup6\n    /* \"#utility.yul\":9011:9078   */\n  tag_66\n  jump\t// in\ntag_179:\n    /* \"#utility.yul\":9105:9106   */\n  0x00\n    /* \"#utility.yul\":9129:9133   */\n  0x20\n    /* \"#utility.yul\":9116:9133   */\n  swap1\n  pop\n    /* \"#utility.yul\":9161:9163   */\n  0x1f\n    /* \"#utility.yul\":9153:9159   */\n  dup4\n    /* \"#utility.yul\":9150:9164   */\n  gt\n    /* \"#utility.yul\":9178:9179   */\n  0x01\n    /* \"#utility.yul\":9173:9791   */\n  dup2\n  eq\n  tag_181\n  jumpi\n    /* \"#utility.yul\":9835:9836   */\n  0x00\n    /* \"#utility.yul\":9852:9858   */\n  dup5\n    /* \"#utility.yul\":9849:9926   */\n  iszero\n  tag_182\n  jumpi\n    /* \"#utility.yul\":9901:9910   */\n  dup3\n    /* \"#utility.yul\":9896:9899   */\n  dup8\n    /* \"#utility.yul\":9892:9911   */\n  add\n    /* \"#utility.yul\":9886:9912   */\n  mload\n    /* \"#utility.yul\":9877:9912   */\n  swap1\n  pop\n    /* \"#utility.yul\":9849:9926   */\ntag_182:\n    /* \"#utility.yul\":9952:10019   */\n  tag_183\n    /* \"#utility.yul\":10012:10018   */\n  dup6\n    /* \"#utility.yul\":10005:10010   */\n  dup3\n    /* \"#utility.yul\":9952:10019   */\n  tag_69\n  jump\t// in\ntag_183:\n    /* \"#utility.yul\":9946:9950   */\n  dup7\n    /* \"#utility.yul\":9939:10020   */\n  sstore\n    /* \"#utility.yul\":9808:10030   */\n  pop\n    /* \"#utility.yul\":9143:10030   */\n  jump(tag_180)\n    /* \"#utility.yul\":9173:9791   */\ntag_181:\n    /* \"#utility.yul\":9225:9229   */\n  0x1f\n    /* \"#utility.yul\":9221:9230   */\n  not\n    /* \"#utility.yul\":9213:9219   */\n  dup5\n    /* \"#utility.yul\":9209:9231   */\n  and\n    /* \"#utility.yul\":9259:9296   */\n  tag_184\n    /* \"#utility.yul\":9291:9295   */\n  dup7\n    /* \"#utility.yul\":9259:9296   */\n  tag_55\n  jump\t// in\ntag_184:\n    /* \"#utility.yul\":9318:9319   */\n  0x00\n    /* \"#utility.yul\":9332:9540   */\ntag_185:\n    /* \"#utility.yul\":9346:9353   */\n  dup3\n    /* \"#utility.yul\":9343:9344   */\n  dup2\n    /* \"#utility.yul\":9340:9354   */\n  lt\n    /* \"#utility.yul\":9332:9540   */\n  iszero\n  tag_187\n  jumpi\n    /* \"#utility.yul\":9425:9434   */\n  dup5\n    /* \"#utility.yul\":9420:9423   */\n  dup10\n    /* \"#utility.yul\":9416:9435   */\n  add\n    /* \"#utility.yul\":9410:9436   */\n  mload\n    /* \"#utility.yul\":9402:9408   */\n  dup3\n    /* \"#utility.yul\":9395:9437   */\n  sstore\n    /* \"#utility.yul\":9476:9477   */\n  0x01\n    /* \"#utility.yul\":9468:9474   */\n  dup3\n    /* \"#utility.yul\":9464:9478   */\n  add\n    /* \"#utility.yul\":9454:9478   */\n  swap2\n  pop\n    /* \"#utility.yul\":9523:9525   */\n  0x20\n    /* \"#utility.yul\":9512:9521   */\n  dup6\n    /* \"#utility.yul\":9508:9526   */\n  add\n    /* \"#utility.yul\":9495:9526   */\n  swap5\n  pop\n    /* \"#utility.yul\":9369:9373   */\n  0x20\n    /* \"#utility.yul\":9366:9367   */\n  dup2\n    /* \"#utility.yul\":9362:9374   */\n  add\n    /* \"#utility.yul\":9357:9374   */\n  swap1\n  pop\n    /* \"#utility.yul\":9332:9540   */\n  jump(tag_185)\ntag_187:\n    /* \"#utility.yul\":9568:9574   */\n  dup7\n    /* \"#utility.yul\":9559:9566   */\n  dup4\n    /* \"#utility.yul\":9556:9575   */\n  lt\n    /* \"#utility.yul\":9553:9732   */\n  iszero\n  tag_188\n  jumpi\n    /* \"#utility.yul\":9626:9635   */\n  dup5\n    /* \"#utility.yul\":9621:9624   */\n  dup10\n    /* \"#utility.yul\":9617:9636   */\n  add\n    /* \"#utility.yul\":9611:9637   */\n  mload\n    /* \"#utility.yul\":9669:9717   */\n  tag_189\n    /* \"#utility.yul\":9711:9715   */\n  0x1f\n    /* \"#utility.yul\":9703:9709   */\n  dup10\n    /* \"#utility.yul\":9699:9716   */\n  and\n    /* \"#utility.yul\":9688:9697   */\n  dup3\n    /* \"#utility.yul\":9669:9717   */\n  tag_68\n  jump\t// in\ntag_189:\n    /* \"#utility.yul\":9661:9667   */\n  dup4\n    /* \"#utility.yul\":9654:9718   */\n  sstore\n    /* \"#utility.yul\":9576:9732   */\n  pop\n    /* \"#utility.yul\":9553:9732   */\ntag_188:\n    /* \"#utility.yul\":9778:9779   */\n  0x01\n    /* \"#utility.yul\":9774:9775   */\n  0x02\n    /* \"#utility.yul\":9766:9772   */\n  dup9\n    /* \"#utility.yul\":9762:9776   */\n  mul\n    /* \"#utility.yul\":9758:9780   */\n  add\n    /* \"#utility.yul\":9752:9756   */\n  dup9\n    /* \"#utility.yul\":9745:9781   */\n  sstore\n    /* \"#utility.yul\":9180:9791   */\n  pop\n  pop\n  pop\n    /* \"#utility.yul\":9143:10030   */\ntag_180:\n  pop\n    /* \"#utility.yul\":8733:10036   */\n  pop\n  pop\n  pop\n    /* \"#utility.yul\":8641:10036   */\n  pop\n  pop\n  jump\t// out\n    /* \"#utility.yul\":10042:10160   */\ntag_70:\n    /* \"#utility.yul\":10129:10153   */\n  tag_191\n    /* \"#utility.yul\":10147:10152   */\n  dup2\n    /* \"#utility.yul\":10129:10153   */\n  tag_49\n  jump\t// in\ntag_191:\n    /* \"#utility.yul\":10124:10127   */\n  dup3\n    /* \"#utility.yul\":10117:10154   */\n  mstore\n    /* \"#utility.yul\":10042:10160   */\n  pop\n  pop\n  jump\t// out\n    /* \"#utility.yul\":10166:10388   */\ntag_17:\n    /* \"#utility.yul\":10259:10263   */\n  0x00\n    /* \"#utility.yul\":10297:10299   */\n  0x20\n    /* \"#utility.yul\":10286:10295   */\n  dup3\n    /* \"#utility.yul\":10282:10300   */\n  add\n    /* \"#utility.yul\":10274:10300   */\n  swap1\n  pop\n    /* \"#utility.yul\":10310:10381   */\n  tag_193\n    /* \"#utility.yul\":10378:10379   */\n  0x00\n    /* \"#utility.yul\":10367:10376   */\n  dup4\n    /* \"#utility.yul\":10363:10380   */\n  add\n    /* \"#utility.yul\":10354:10360   */\n  dup5\n    /* \"#utility.yul\":10310:10381   */\n  tag_70\n  jump\t// in\ntag_193:\n    /* \"#utility.yul\":10166:10388   */\n  swap3\n  swap2\n  pop\n  pop\n  jump\t// out\n    /* \"#utility.yul\":10394:10574   */\ntag_71:\n    /* \"#utility.yul\":10442:10519   */\n  0x4e487b7100000000000000000000000000000000000000000000000000000000\n    /* \"#utility.yul\":10439:10440   */\n  0x00\n    /* \"#utility.yul\":10432:10520   */\n  mstore\n    /* \"#utility.yul\":10539:10543   */\n  0x11\n    /* \"#utility.yul\":10536:10537   */\n  0x04\n    /* \"#utility.yul\":10529:10544   */\n  mstore\n    /* \"#utility.yul\":10563:10567   */\n  0x24\n    /* \"#utility.yul\":10560:10561   */\n  0x00\n    /* \"#utility.yul\":10553:10568   */\n  revert\n    /* \"#utility.yul\":10580:10771   */\ntag_23:\n    /* \"#utility.yul\":10620:10623   */\n  0x00\n    /* \"#utility.yul\":10639:10659   */\n  tag_196\n    /* \"#utility.yul\":10657:10658   */\n  dup3\n    /* \"#utility.yul\":10639:10659   */\n  tag_45\n  jump\t// in\ntag_196:\n    /* \"#utility.yul\":10634:10659   */\n  swap2\n  pop\n    /* \"#utility.yul\":10673:10693   */\n  tag_197\n    /* \"#utility.yul\":10691:10692   */\n  dup4\n    /* \"#utility.yul\":10673:10693   */\n  tag_45\n  jump\t// in\ntag_197:\n    /* \"#utility.yul\":10668:10693   */\n  swap3\n  pop\n    /* \"#utility.yul\":10716:10717   */\n  dup3\n    /* \"#utility.yul\":10713:10714   */\n  dup3\n    /* \"#utility.yul\":10709:10718   */\n  add\n    /* \"#utility.yul\":10702:10718   */\n  swap1\n  pop\n    /* \"#utility.yul\":10737:10740   */\n  dup1\n    /* \"#utility.yul\":10734:10735   */\n  dup3\n    /* \"#utility.yul\":10731:10741   */\n  gt\n    /* \"#utility.yul\":10728:10764   */\n  iszero\n  tag_198\n  jumpi\n    /* \"#utility.yul\":10744:10762   */\n  tag_199\n  tag_71\n  jump\t// in\ntag_199:\n    /* \"#utility.yul\":10728:10764   */\ntag_198:\n    /* \"#utility.yul\":10580:10771   */\n  swap3\n  swap2\n  pop\n  pop\n  jump\t// out\n    /* \"#utility.yul\":10777:10895   */\ntag_72:\n    /* \"#utility.yul\":10864:10888   */\n  tag_201\n    /* \"#utility.yul\":10882:10887   */\n  dup2\n    /* \"#utility.yul\":10864:10888   */\n  tag_45\n  jump\t// in\ntag_201:\n    /* \"#utility.yul\":10859:10862   */\n  dup3\n    /* \"#utility.yul\":10852:10889   */\n  mstore\n    /* \"#utility.yul\":10777:10895   */\n  pop\n  pop\n  jump\t// out\n    /* \"#utility.yul\":10901:11343   */\ntag_27:\n    /* \"#utility.yul\":11050:11054   */\n  0x00\n    /* \"#utility.yul\":11088:11090   */\n  0x60\n    /* \"#utility.yul\":11077:11086   */\n  dup3\n    /* \"#utility.yul\":11073:11091   */\n  add\n    /* \"#utility.yul\":11065:11091   */\n  swap1\n  pop\n    /* \"#utility.yul\":11101:11172   */\n  tag_203\n    /* \"#utility.yul\":11169:11170   */\n  0x00\n    /* \"#utility.yul\":11158:11167   */\n  dup4\n    /* \"#utility.yul\":11154:11171   */\n  add\n    /* \"#utility.yul\":11145:11151   */\n  dup7\n    /* \"#utility.yul\":11101:11172   */\n  tag_70\n  jump\t// in\ntag_203:\n    /* \"#utility.yul\":11182:11254   */\n  tag_204\n    /* \"#utility.yul\":11250:11252   */\n  0x20\n    /* \"#utility.yul\":11239:11248   */\n  dup4\n    /* \"#utility.yul\":11235:11253   */\n  add\n    /* \"#utility.yul\":11226:11232   */\n  dup6\n    /* \"#utility.yul\":11182:11254   */\n  tag_72\n  jump\t// in\ntag_204:\n    /* \"#utility.yul\":11264:11336   */\n  tag_205\n    /* \"#utility.yul\":11332:11334   */\n  0x40\n    /* \"#utility.yul\":11321:11330   */\n  dup4\n    /* \"#utility.yul\":11317:11335   */\n  add\n    /* \"#utility.yul\":11308:11314   */\n  dup5\n    /* \"#utility.yul\":11264:11336   */\n  tag_72\n  jump\t// in\ntag_205:\n    /* \"#utility.yul\":10901:11343   */\n  swap5\n  swap4\n  pop\n  pop\n  pop\n  pop\n  jump\t// out\n    /* \"#utility.yul\":11349:11571   */\ntag_31:\n    /* \"#utility.yul\":11442:11446   */\n  0x00\n    /* \"#utility.yul\":11480:11482   */\n  0x20\n    /* \"#utility.yul\":11469:11478   */\n  dup3\n    /* \"#utility.yul\":11465:11483   */\n  add\n    /* \"#utility.yul\":11457:11483   */\n  swap1\n  pop\n    /* \"#utility.yul\":11493:11564   */\n  tag_207\n    /* \"#utility.yul\":11561:11562   */\n  0x00\n    /* \"#utility.yul\":11550:11559   */\n  dup4\n    /* \"#utility.yul\":11546:11563   */\n  add\n    /* \"#utility.yul\":11537:11543   */\n  dup5\n    /* \"#utility.yul\":11493:11564   */\n  tag_72\n  jump\t// in\ntag_207:\n    /* \"#utility.yul\":11349:11571   */\n  swap3\n  swap2\n  pop\n  pop\n  jump\t// out\n    /* \"ShibStyleToken.sol\":510:6392  contract ShibStyleToken is ERC20 {... */\ntag_13:\n  dataSize(sub_0)\n  dup1\n  dataOffset(sub_0)\n  0x00\n  codecopy\n  0x00\n  return\nstop\n\nsub_0: assembly {\n        /* \"ShibStyleToken.sol\":510:6392  contract ShibStyleToken is ERC20 {... */\n      mstore(0x40, 0x80)\n      jumpi(tag_1, lt(calldatasize, 0x04))\n      shr(0xe0, calldataload(0x00))\n      dup1\n      0x95d89b41\n      gt\n      tag_18\n      jumpi\n      dup1\n      0xc8c8ebe4\n      gt\n      tag_19\n      jumpi\n      dup1\n      0xc8c8ebe4\n      eq\n      tag_14\n      jumpi\n      dup1\n      0xdd62ed3e\n      eq\n      tag_15\n      jumpi\n      dup1\n      0xe6ef73d6\n      eq\n      tag_16\n      jumpi\n      dup1\n      0xf450c23a\n      eq\n      tag_17\n      jumpi\n      jump(tag_1)\n    tag_19:\n      dup1\n      0x95d89b41\n      eq\n      tag_10\n      jumpi\n      dup1\n      0x9c8f9f23\n      eq\n      tag_11\n      jumpi\n      dup1\n      0x9cd441da\n      eq\n      tag_12\n      jumpi\n      dup1\n      0xa9059cbb\n      eq\n      tag_13\n      jumpi\n      jump(tag_1)\n    tag_18:\n      dup1\n      0x313ce567\n      gt\n      tag_20\n      jumpi\n      dup1\n      0x313ce567\n      eq\n      tag_6\n      jumpi\n      dup1\n      0x665a11ca\n      eq\n      tag_7\n      jumpi\n      dup1\n      0x70a08231\n      eq\n      tag_8\n      jumpi\n      dup1\n      0x771a3a1d\n      eq\n      tag_9\n      jumpi\n      jump(tag_1)\n    tag_20:\n      dup1\n      0x06fdde03\n      eq\n      tag_2\n      jumpi\n      dup1\n      0x095ea7b3\n      eq\n      tag_3\n      jumpi\n      dup1\n      0x18160ddd\n      eq\n      tag_4\n      jumpi\n      dup1\n      0x23b872dd\n      eq\n      tag_5\n      jumpi\n    tag_1:\n      revert(0x00, 0x00)\n        /* \"node_modules/@openzeppelin/contracts/token/ERC20/ERC20.sol\":1760:1849  function name() public view virtual returns (string memory) {... */\n    tag_2:\n      callvalue\n      dup1\n      iszero\n      tag_21\n      jumpi\n      revert(0x00, 0x00)\n    tag_21:\n      pop\n      tag_22\n      tag_23\n      jump\t// in\n    tag_22:\n      mload(0x40)\n      tag_24\n      swap2\n      swap1\n      tag_25\n      jump\t// in\n    tag_24:\n      mload(0x40)\n      dup1\n      swap2\n      sub\n      swap1\n      return\n        /* \"node_modules/@openzeppelin/contracts/token/ERC20/ERC20.sol\":3902:4088  function approve(address spender, uint256 value) public virtual returns (bool) {... */\n    tag_3:\n      callvalue\n      dup1\n      iszero\n      tag_26\n      jumpi\n      revert(0x00, 0x00)\n    tag_26:\n      pop\n      tag_27\n      0x04\n      dup1\n      calldatasize\n      sub\n      dup2\n      add\n      swap1\n      tag_28\n      swap2\n      swap1\n      tag_29\n      jump\t// in\n    tag_28:\n      tag_30\n      jump\t// in\n    tag_27:\n      mload(0x40)\n      tag_31\n      swap2\n      swap1\n      tag_32\n      jump\t// in\n    tag_31:\n      mload(0x40)\n      dup1\n      swap2\n      sub\n      swap1\n      return\n        /* \"node_modules/@openzeppelin/contracts/token/ERC20/ERC20.sol\":2803:2900  function totalSupply() public view virtual returns (uint256) {... */\n    tag_4:\n      callvalue\n      dup1\n      iszero\n      tag_33\n      jumpi\n      revert(0x00, 0x00)\n    tag_33:\n      pop\n      tag_34\n      tag_35\n      jump\t// in\n    tag_34:\n      mload(0x40)\n      tag_36\n      swap2\n      swap1\n      tag_37\n      jump\t// in\n    tag_36:\n      mload(0x40)\n      dup1\n      swap2\n      sub\n      swap1\n      return\n        /* \"ShibStyleToken.sol\":2515:3693  function transferFrom(... */\n    tag_5:\n      callvalue\n      dup1\n      iszero\n      tag_38\n      jumpi\n      revert(0x00, 0x00)\n    tag_38:\n      pop\n      tag_39\n      0x04\n      dup1\n      calldatasize\n      sub\n      dup2\n      add\n      swap1\n      tag_40\n      swap2\n      swap1\n      tag_41\n      jump\t// in\n    tag_40:\n      tag_42\n      jump\t// in\n    tag_39:\n      mload(0x40)\n      tag_43\n      swap2\n      swap1\n      tag_32\n      jump\t// in\n    tag_43:\n      mload(0x40)\n      dup1\n      swap2\n      sub\n      swap1\n      return\n        /* \"node_modules/@openzeppelin/contracts/token/ERC20/ERC20.sol\":2688:2770  function decimals() public view virtual returns (uint8) {... */\n    tag_6:\n      callvalue\n      dup1\n      iszero\n      tag_44\n      jumpi\n      revert(0x00, 0x00)\n    tag_44:\n      pop\n      tag_45\n      tag_46\n      jump\t// in\n    tag_45:\n      mload(0x40)\n      tag_47\n      swap2\n      swap1\n      tag_48\n      jump\t// in\n    tag_47:\n      mload(0x40)\n      dup1\n      swap2\n      sub\n      swap1\n      return\n        /* \"ShibStyleToken.sol\":1141:1169  address public liquidityPool */\n    tag_7:\n      callvalue\n      dup1\n      iszero\n      tag_49\n      jumpi\n      revert(0x00, 0x00)\n    tag_49:\n      pop\n      tag_50\n      tag_51\n      jump\t// in\n    tag_50:\n      mload(0x40)\n      tag_52\n      swap2\n      swap1\n      tag_53\n      jump\t// in\n    tag_52:\n      mload(0x40)\n      dup1\n      swap2\n      sub\n      swap1\n      return\n        /* \"node_modules/@openzeppelin/contracts/token/ERC20/ERC20.sol\":2933:3049  function balanceOf(address account) public view virtual returns (uint256) {... */\n    tag_8:\n      callvalue\n      dup1\n      iszero\n      tag_54\n      jumpi\n      revert(0x00, 0x00)\n    tag_54:\n      pop\n      tag_55\n      0x04\n      dup1\n      calldatasize\n      sub\n      dup2\n      add\n      swap1\n      tag_56\n      swap2\n      swap1\n      tag_57\n      jump\t// in\n    tag_56:\n      tag_58\n      jump\t// in\n    tag_55:\n      mload(0x40)\n      tag_59\n      swap2\n      swap1\n      tag_37\n      jump\t// in\n    tag_59:\n      mload(0x40)\n      dup1\n      swap2\n      sub\n      swap1\n      return\n        /* \"ShibStyleToken.sol\":668:696  uint256 public taxRate = 200 */\n    tag_9:\n      callvalue\n      dup1\n      iszero\n      tag_60\n      jumpi\n      revert(0x00, 0x00)\n    tag_60:\n      pop\n      tag_61\n      tag_62\n      jump\t// in\n    tag_61:\n      mload(0x40)\n      tag_63\n      swap2\n      swap1\n      tag_37\n      jump\t// in\n    tag_63:\n      mload(0x40)\n      dup1\n      swap2\n      sub\n      swap1\n      return\n        /* \"node_modules/@openzeppelin/contracts/token/ERC20/ERC20.sol\":1962:2055  function symbol() public view virtual returns (string memory) {... */\n    tag_10:\n      callvalue\n      dup1\n      iszero\n      tag_64\n      jumpi\n      revert(0x00, 0x00)\n    tag_64:\n      pop\n      tag_65\n      tag_66\n      jump\t// in\n    tag_65:\n      mload(0x40)\n      tag_67\n      swap2\n      swap1\n      tag_25\n      jump\t// in\n    tag_67:\n      mload(0x40)\n      dup1\n      swap2\n      sub\n      swap1\n      return\n        /* \"ShibStyleToken.sol\":5489:6071  function removeLiquidity(... */\n    tag_11:\n      callvalue\n      dup1\n      iszero\n      tag_68\n      jumpi\n      revert(0x00, 0x00)\n    tag_68:\n      pop\n      tag_69\n      0x04\n      dup1\n      calldatasize\n      sub\n      dup2\n      add\n      swap1\n      tag_70\n      swap2\n      swap1\n      tag_71\n      jump\t// in\n    tag_70:\n      tag_72\n      jump\t// in\n    tag_69:\n      mload(0x40)\n      tag_73\n      swap3\n      swap2\n      swap1\n      tag_74\n      jump\t// in\n    tag_73:\n      mload(0x40)\n      dup1\n      swap2\n      sub\n      swap1\n      return\n        /* \"ShibStyleToken.sol\":4745:5457  function addLiquidity(... */\n    tag_12:\n      tag_75\n      0x04\n      dup1\n      calldatasize\n      sub\n      dup2\n      add\n      swap1\n      tag_76\n      swap2\n      swap1\n      tag_77\n      jump\t// in\n    tag_76:\n      tag_78\n      jump\t// in\n    tag_75:\n      stop\n        /* \"ShibStyleToken.sol\":1785:2507  function transfer(... */\n    tag_13:\n      callvalue\n      dup1\n      iszero\n      tag_79\n      jumpi\n      revert(0x00, 0x00)\n    tag_79:\n      pop\n      tag_80\n      0x04\n      dup1\n      calldatasize\n      sub\n      dup2\n      add\n      swap1\n      tag_81\n      swap2\n      swap1\n      tag_29\n      jump\t// in\n    tag_81:\n      tag_82\n      jump\t// in\n    tag_80:\n      mload(0x40)\n      tag_83\n      swap2\n      swap1\n      tag_32\n      jump\t// in\n    tag_83:\n      mload(0x40)\n      dup1\n      swap2\n      sub\n      swap1\n      return\n        /* \"ShibStyleToken.sol\":802:837  uint256 public maxTransactionAmount */\n    tag_14:\n      callvalue\n      dup1\n      iszero\n      tag_84\n      jumpi\n      revert(0x00, 0x00)\n    tag_84:\n      pop\n      tag_85\n      tag_86\n      jump\t// in\n    tag_85:\n      mload(0x40)\n      tag_87\n      swap2\n      swap1\n      tag_37\n      jump\t// in\n    tag_87:\n      mload(0x40)\n      dup1\n      swap2\n      sub\n      swap1\n      return\n        /* \"node_modules/@openzeppelin/contracts/token/ERC20/ERC20.sol\":3455:3595  function allowance(address owner, address spender) public view virtual returns (uint256) {... */\n    tag_15:\n      callvalue\n      dup1\n      iszero\n      tag_88\n      jumpi\n      revert(0x00, 0x00)\n    tag_88:\n      pop\n      tag_89\n      0x04\n      dup1\n      calldatasize\n      sub\n      dup2\n      add\n      swap1\n      tag_90\n      swap2\n      swap1\n      tag_91\n      jump\t// in\n    tag_90:\n      tag_92\n      jump\t// in\n    tag_89:\n      mload(0x40)\n      tag_93\n      swap2\n      swap1\n      tag_37\n      jump\t// in\n    tag_93:\n      mload(0x40)\n      dup1\n      swap2\n      sub\n      swap1\n      return\n        /* \"ShibStyleToken.sol\":736:762  address public taxReceiver */\n    tag_16:\n      callvalue\n      dup1\n      iszero\n      tag_94\n      jumpi\n      revert(0x00, 0x00)\n    tag_94:\n      pop\n      tag_95\n      tag_96\n      jump\t// in\n    tag_95:\n      mload(0x40)\n      tag_97\n      swap2\n      swap1\n      tag_53\n      jump\t// in\n    tag_97:\n      mload(0x40)\n      dup1\n      swap2\n      sub\n      swap1\n      return\n        /* \"ShibStyleToken.sol\":877:918  uint256 public dailyTransactionCountLimit */\n    tag_17:\n      callvalue\n      dup1\n      iszero\n      tag_98\n      jumpi\n      revert(0x00, 0x00)\n    tag_98:\n      pop\n      tag_99\n      tag_100\n      jump\t// in\n    tag_99:\n      mload(0x40)\n      tag_101\n      swap2\n      swap1\n      tag_37\n      jump\t// in\n    tag_101:\n      mload(0x40)\n      dup1\n      swap2\n      sub\n      swap1\n      return\n        /* \"node_modules/@openzeppelin/contracts/token/ERC20/ERC20.sol\":1760:1849  function name() public view virtual returns (string memory) {... */\n    tag_23:\n        /* \"node_modules/@openzeppelin/contracts/token/ERC20/ERC20.sol\":1805:1818  string memory */\n      0x60\n        /* \"node_modules/@openzeppelin/contracts/token/ERC20/ERC20.sol\":1837:1842  _name */\n      0x03\n        /* \"node_modules/@openzeppelin/contracts/token/ERC20/ERC20.sol\":1830:1842  return _name */\n      dup1\n      sload\n      tag_103\n      swap1\n      tag_104\n      jump\t// in\n    tag_103:\n      dup1\n      0x1f\n      add\n      0x20\n      dup1\n      swap2\n      div\n      mul\n      0x20\n      add\n      mload(0x40)\n      swap1\n      dup2\n      add\n      0x40\n      mstore\n      dup1\n      swap3\n      swap2\n      swap1\n      dup2\n      dup2\n      mstore\n      0x20\n      add\n      dup3\n      dup1\n      sload\n      tag_105\n      swap1\n      tag_104\n      jump\t// in\n    tag_105:\n      dup1\n      iszero\n      tag_106\n      jumpi\n      dup1\n      0x1f\n      lt\n      tag_107\n      jumpi\n      0x0100\n      dup1\n      dup4\n      sload\n      div\n      mul\n      dup4\n      mstore\n      swap2\n      0x20\n      add\n      swap2\n      jump(tag_106)\n    tag_107:\n      dup3\n      add\n      swap2\n      swap1\n      0x00\n      mstore\n      keccak256(0x00, 0x20)\n      swap1\n    tag_108:\n      dup2\n      sload\n      dup2\n      mstore\n      swap1\n      0x01\n      add\n      swap1\n      0x20\n      add\n      dup1\n      dup4\n      gt\n      tag_108\n      jumpi\n      dup3\n      swap1\n      sub\n      0x1f\n      and\n      dup3\n      add\n      swap2\n    tag_106:\n      pop\n      pop\n      pop\n      pop\n      pop\n      swap1\n      pop\n        /* \"node_modules/@openzeppelin/contracts/token/ERC20/ERC20.sol\":1760:1849  function name() public view virtual returns (string memory) {... */\n      swap1\n      jump\t// out\n        /* \"node_modules/@openzeppelin/contracts/token/ERC20/ERC20.sol\":3902:4088  function approve(address spender, uint256 value) public virtual returns (bool) {... */\n    tag_30:\n        /* \"node_modules/@openzeppelin/contracts/token/ERC20/ERC20.sol\":3975:3979  bool */\n      0x00\n        /* \"node_modules/@openzeppelin/contracts/token/ERC20/ERC20.sol\":3991:4004  address owner */\n      0x00\n        /* \"node_modules/@openzeppelin/contracts/token/ERC20/ERC20.sol\":4007:4019  _msgSender() */\n      tag_110\n        /* \"node_modules/@openzeppelin/contracts/token/ERC20/ERC20.sol\":4007:4017  _msgSender */\n      tag_111\n        /* \"node_modules/@openzeppelin/contracts/token/ERC20/ERC20.sol\":4007:4019  _msgSender() */\n      jump\t// in\n    tag_110:\n        /* \"node_modules/@openzeppelin/contracts/token/ERC20/ERC20.sol\":3991:4019  address owner = _msgSender() */\n      swap1\n      pop\n        /* \"node_modules/@openzeppelin/contracts/token/ERC20/ERC20.sol\":4029:4060  _approve(owner, spender, value) */\n      tag_112\n        /* \"node_modules/@openzeppelin/contracts/token/ERC20/ERC20.sol\":4038:4043  owner */\n      dup2\n        /* \"node_modules/@openzeppelin/contracts/token/ERC20/ERC20.sol\":4045:4052  spender */\n      dup6\n        /* \"node_modules/@openzeppelin/contracts/token/ERC20/ERC20.sol\":4054:4059  value */\n      dup6\n        /* \"node_modules/@openzeppelin/contracts/token/ERC20/ERC20.sol\":4029:4037  _approve */\n      tag_113\n        /* \"node_modules/@openzeppelin/contracts/token/ERC20/ERC20.sol\":4029:4060  _approve(owner, spender, value) */\n      jump\t// in\n    tag_112:\n        /* \"node_modules/@openzeppelin/contracts/token/ERC20/ERC20.sol\":4077:4081  true */\n      0x01\n        /* \"node_modules/@openzeppelin/contracts/token/ERC20/ERC20.sol\":4070:4081  return true */\n      swap2\n      pop\n      pop\n        /* \"node_modules/@openzeppelin/contracts/token/ERC20/ERC20.sol\":3902:4088  function approve(address spender, uint256 value) public virtual returns (bool) {... */\n      swap3\n      swap2\n      pop\n      pop\n      jump\t// out\n        /* \"node_modules/@openzeppelin/contracts/token/ERC20/ERC20.sol\":2803:2900  function totalSupply() public view virtual returns (uint256) {... */\n    tag_35:\n        /* \"node_modules/@openzeppelin/contracts/token/ERC20/ERC20.sol\":2855:2862  uint256 */\n      0x00\n        /* \"node_modules/@openzeppelin/contracts/token/ERC20/ERC20.sol\":2881:2893  _totalSupply */\n      sload(0x02)\n        /* \"node_modules/@openzeppelin/contracts/token/ERC20/ERC20.sol\":2874:2893  return _totalSupply */\n      swap1\n      pop\n        /* \"node_modules/@openzeppelin/contracts/token/ERC20/ERC20.sol\":2803:2900  function totalSupply() public view virtual returns (uint256) {... */\n      swap1\n      jump\t// out\n        /* \"ShibStyleToken.sol\":2515:3693  function transferFrom(... */\n    tag_42:\n        /* \"ShibStyleToken.sol\":2647:2651  bool */\n      0x00\n        /* \"ShibStyleToken.sol\":2696:2720  uint256 currentAllowance */\n      0x00\n        /* \"ShibStyleToken.sol\":2723:2752  allowance(sender, msg.sender) */\n      tag_116\n        /* \"ShibStyleToken.sol\":2733:2739  sender */\n      dup6\n        /* \"ShibStyleToken.sol\":2741:2751  msg.sender */\n      caller\n        /* \"ShibStyleToken.sol\":2723:2732  allowance */\n      tag_92\n        /* \"ShibStyleToken.sol\":2723:2752  allowance(sender, msg.sender) */\n      jump\t// in\n    tag_116:\n        /* \"ShibStyleToken.sol\":2696:2752  uint256 currentAllowance = allowance(sender, msg.sender) */\n      swap1\n      pop\n        /* \"ShibStyleToken.sol\":2805:2811  amount */\n      dup3\n        /* \"ShibStyleToken.sol\":2785:2801  currentAllowance */\n      dup2\n        /* \"ShibStyleToken.sol\":2785:2811  currentAllowance >= amount */\n      lt\n      iszero\n        /* \"ShibStyleToken.sol\":2763:2879  require(... */\n      tag_117\n      jumpi\n      mload(0x40)\n      0x08c379a000000000000000000000000000000000000000000000000000000000\n      dup2\n      mstore\n      0x04\n      add\n      tag_118\n      swap1\n      tag_119\n      jump\t// in\n    tag_118:\n      mload(0x40)\n      dup1\n      swap2\n      sub\n      swap1\n      revert\n    tag_117:\n        /* \"ShibStyleToken.sol\":2923:2962  _checkTransactionLimits(sender, amount) */\n      tag_120\n        /* \"ShibStyleToken.sol\":2947:2953  sender */\n      dup6\n        /* \"ShibStyleToken.sol\":2955:2961  amount */\n      dup5\n        /* \"ShibStyleToken.sol\":2923:2946  _checkTransactionLimits */\n      tag_121\n        /* \"ShibStyleToken.sol\":2923:2962  _checkTransactionLimits(sender, amount) */\n      jump\t// in\n    tag_120:\n        /* \"ShibStyleToken.sol\":2998:3015  uint256 taxAmount */\n      0x00\n        /* \"ShibStyleToken.sol\":3018:3039  _calculateTax(amount) */\n      tag_122\n        /* \"ShibStyleToken.sol\":3032:3038  amount */\n      dup5\n        /* \"ShibStyleToken.sol\":3018:3031  _calculateTax */\n      tag_123\n        /* \"ShibStyleToken.sol\":3018:3039  _calculateTax(amount) */\n      jump\t// in\n    tag_122:\n        /* \"ShibStyleToken.sol\":2998:3039  uint256 taxAmount = _calculateTax(amount) */\n      swap1\n      pop\n        /* \"ShibStyleToken.sol\":3111:3130  uint256 totalAmount */\n      0x00\n        /* \"ShibStyleToken.sol\":3142:3151  taxAmount */\n      dup2\n        /* \"ShibStyleToken.sol\":3133:3139  amount */\n      dup6\n        /* \"ShibStyleToken.sol\":3133:3151  amount + taxAmount */\n      tag_124\n      swap2\n      swap1\n      tag_125\n      jump\t// in\n    tag_124:\n        /* \"ShibStyleToken.sol\":3111:3151  uint256 totalAmount = amount + taxAmount */\n      swap1\n      pop\n        /* \"ShibStyleToken.sol\":3205:3216  totalAmount */\n      dup1\n        /* \"ShibStyleToken.sol\":3184:3201  balanceOf(sender) */\n      tag_126\n        /* \"ShibStyleToken.sol\":3194:3200  sender */\n      dup9\n        /* \"ShibStyleToken.sol\":3184:3193  balanceOf */\n      tag_58\n        /* \"ShibStyleToken.sol\":3184:3201  balanceOf(sender) */\n      jump\t// in\n    tag_126:\n        /* \"ShibStyleToken.sol\":3184:3216  balanceOf(sender) >= totalAmount */\n      lt\n      iszero\n        /* \"ShibStyleToken.sol\":3162:3278  require(... */\n      tag_127\n      jumpi\n      mload(0x40)\n      0x08c379a000000000000000000000000000000000000000000000000000000000\n      dup2\n      mstore\n      0x04\n      add\n      tag_128\n      swap1\n      tag_129\n      jump\t// in\n    tag_128:\n      mload(0x40)\n      dup1\n      swap2\n      sub\n      swap1\n      revert\n    tag_127:\n        /* \"ShibStyleToken.sol\":3402:3438  _transfer(sender, recipient, amount) */\n      tag_130\n        /* \"ShibStyleToken.sol\":3412:3418  sender */\n      dup8\n        /* \"ShibStyleToken.sol\":3420:3429  recipient */\n      dup8\n        /* \"ShibStyleToken.sol\":3431:3437  amount */\n      dup8\n        /* \"ShibStyleToken.sol\":3402:3411  _transfer */\n      tag_131\n        /* \"ShibStyleToken.sol\":3402:3438  _transfer(sender, recipient, amount) */\n      jump\t// in\n    tag_130:\n        /* \"ShibStyleToken.sol\":3495:3536  _transfer(sender, taxReceiver, taxAmount) */\n      tag_132\n        /* \"ShibStyleToken.sol\":3505:3511  sender */\n      dup8\n        /* \"ShibStyleToken.sol\":3513:3524  taxReceiver */\n      0x06\n      0x00\n      swap1\n      sload\n      swap1\n      0x0100\n      exp\n      swap1\n      div\n      0xffffffffffffffffffffffffffffffffffffffff\n      and\n        /* \"ShibStyleToken.sol\":3526:3535  taxAmount */\n      dup5\n        /* \"ShibStyleToken.sol\":3495:3504  _transfer */\n      tag_131\n        /* \"ShibStyleToken.sol\":3495:3536  _transfer(sender, taxReceiver, taxAmount) */\n      jump\t// in\n    tag_132:\n        /* \"ShibStyleToken.sol\":3606:3661  _approve(sender, msg.sender, currentAllowance - amount) */\n      tag_133\n        /* \"ShibStyleToken.sol\":3615:3621  sender */\n      dup8\n        /* \"ShibStyleToken.sol\":3623:3633  msg.sender */\n      caller\n        /* \"ShibStyleToken.sol\":3654:3660  amount */\n      dup8\n        /* \"ShibStyleToken.sol\":3635:3651  currentAllowance */\n      dup7\n        /* \"ShibStyleToken.sol\":3635:3660  currentAllowance - amount */\n      tag_134\n      swap2\n      swap1\n      tag_135\n      jump\t// in\n    tag_134:\n        /* \"ShibStyleToken.sol\":3606:3614  _approve */\n      tag_113\n        /* \"ShibStyleToken.sol\":3606:3661  _approve(sender, msg.sender, currentAllowance - amount) */\n      jump\t// in\n    tag_133:\n        /* \"ShibStyleToken.sol\":3681:3685  true */\n      0x01\n        /* \"ShibStyleToken.sol\":3674:3685  return true */\n      swap4\n      pop\n      pop\n      pop\n      pop\n        /* \"ShibStyleToken.sol\":2515:3693  function transferFrom(... */\n      swap4\n      swap3\n      pop\n      pop\n      pop\n      jump\t// out\n        /* \"node_modules/@openzeppelin/contracts/token/ERC20/ERC20.sol\":2688:2770  function decimals() public view virtual returns (uint8) {... */\n    tag_46:\n        /* \"node_modules/@openzeppelin/contracts/token/ERC20/ERC20.sol\":2737:2742  uint8 */\n      0x00\n        /* \"node_modules/@openzeppelin/contracts/token/ERC20/ERC20.sol\":2761:2763  18 */\n      0x12\n        /* \"node_modules/@openzeppelin/contracts/token/ERC20/ERC20.sol\":2754:2763  return 18 */\n      swap1\n      pop\n        /* \"node_modules/@openzeppelin/contracts/token/ERC20/ERC20.sol\":2688:2770  function decimals() public view virtual returns (uint8) {... */\n      swap1\n      jump\t// out\n        /* \"ShibStyleToken.sol\":1141:1169  address public liquidityPool */\n    tag_51:\n      0x0b\n      0x00\n      swap1\n      sload\n      swap1\n      0x0100\n      exp\n      swap1\n      div\n      0xffffffffffffffffffffffffffffffffffffffff\n      and\n      dup2\n      jump\t// out\n        /* \"node_modules/@openzeppelin/contracts/token/ERC20/ERC20.sol\":2933:3049  function balanceOf(address account) public view virtual returns (uint256) {... */\n    tag_58:\n        /* \"node_modules/@openzeppelin/contracts/token/ERC20/ERC20.sol\":2998:3005  uint256 */\n      0x00\n        /* \"node_modules/@openzeppelin/contracts/token/ERC20/ERC20.sol\":3024:3033  _balances */\n      0x00\n        /* \"node_modules/@openzeppelin/contracts/token/ERC20/ERC20.sol\":3024:3042  _balances[account] */\n      0x00\n        /* \"node_modules/@openzeppelin/contracts/token/ERC20/ERC20.sol\":3034:3041  account */\n      dup4\n        /* \"node_modules/@openzeppelin/contracts/token/ERC20/ERC20.sol\":3024:3042  _balances[account] */\n      0xffffffffffffffffffffffffffffffffffffffff\n      and\n      0xffffffffffffffffffffffffffffffffffffffff\n      and\n      dup2\n      mstore\n      0x20\n      add\n      swap1\n      dup2\n      mstore\n      0x20\n      add\n      0x00\n      keccak256\n      sload\n        /* \"node_modules/@openzeppelin/contracts/token/ERC20/ERC20.sol\":3017:3042  return _balances[account] */\n      swap1\n      pop\n        /* \"node_modules/@openzeppelin/contracts/token/ERC20/ERC20.sol\":2933:3049  function balanceOf(address account) public view virtual returns (uint256) {... */\n      swap2\n      swap1\n      pop\n      jump\t// out\n        /* \"ShibStyleToken.sol\":668:696  uint256 public taxRate = 200 */\n    tag_62:\n      sload(0x05)\n      dup2\n      jump\t// out\n        /* \"node_modules/@openzeppelin/contracts/token/ERC20/ERC20.sol\":1962:2055  function symbol() public view virtual returns (string memory) {... */\n    tag_66:\n        /* \"node_modules/@openzeppelin/contracts/token/ERC20/ERC20.sol\":2009:2022  string memory */\n      0x60\n        /* \"node_modules/@openzeppelin/contracts/token/ERC20/ERC20.sol\":2041:2048  _symbol */\n      0x04\n        /* \"node_modules/@openzeppelin/contracts/token/ERC20/ERC20.sol\":2034:2048  return _symbol */\n      dup1\n      sload\n      tag_139\n      swap1\n      tag_104\n      jump\t// in\n    tag_139:\n      dup1\n      0x1f\n      add\n      0x20\n      dup1\n      swap2\n      div\n      mul\n      0x20\n      add\n      mload(0x40)\n      swap1\n      dup2\n      add\n      0x40\n      mstore\n      dup1\n      swap3\n      swap2\n      swap1\n      dup2\n      dup2\n      mstore\n      0x20\n      add\n      dup3\n      dup1\n      sload\n      tag_140\n      swap1\n      tag_104\n      jump\t// in\n    tag_140:\n      dup1\n      iszero\n      tag_141\n      jumpi\n      dup1\n      0x1f\n      lt\n      tag_142\n      jumpi\n      0x0100\n      dup1\n      dup4\n      sload\n      div\n      mul\n      dup4\n      mstore\n      swap2\n      0x20\n      add\n      swap2\n      jump(tag_141)\n    tag_142:\n      dup3\n      add\n      swap2\n      swap1\n      0x00\n      mstore\n      keccak256(0x00, 0x20)\n      swap1\n    tag_143:\n      dup2\n      sload\n      dup2\n      mstore\n      swap1\n      0x01\n      add\n      swap1\n      0x20\n      add\n      dup1\n      dup4\n      gt\n      tag_143\n      jumpi\n      dup3\n      swap1\n      sub\n      0x1f\n      and\n      dup3\n      add\n      swap2\n    tag_141:\n      pop\n      pop\n      pop\n      pop\n      pop\n      swap1\n      pop\n        /* \"node_modules/@openzeppelin/contracts/token/ERC20/ERC20.sol\":1962:2055  function symbol() public view virtual returns (string memory) {... */\n      swap1\n      jump\t// out\n        /* \"ShibStyleToken.sol\":5489:6071  function removeLiquidity(... */\n    tag_72:\n        /* \"ShibStyleToken.sol\":5573:5588  uint256 amount0 */\n      0x00\n        /* \"ShibStyleToken.sol\":5590:5605  uint256 amount1 */\n      0x00\n        /* \"ShibStyleToken.sol\":5651:5652  0 */\n      0x00\n        /* \"ShibStyleToken.sol\":5626:5653  liquidityPool != address(0) */\n      0xffffffffffffffffffffffffffffffffffffffff\n      and\n        /* \"ShibStyleToken.sol\":5626:5639  liquidityPool */\n      0x0b\n      0x00\n      swap1\n      sload\n      swap1\n      0x0100\n      exp\n      swap1\n      div\n      0xffffffffffffffffffffffffffffffffffffffff\n      and\n        /* \"ShibStyleToken.sol\":5626:5653  liquidityPool != address(0) */\n      0xffffffffffffffffffffffffffffffffffffffff\n      and\n      sub\n        /* \"ShibStyleToken.sol\":5618:5680  require(liquidityPool != address(0), \"Liquidity pool not set\") */\n      tag_145\n      jumpi\n      mload(0x40)\n      0x08c379a000000000000000000000000000000000000000000000000000000000\n      dup2\n      mstore\n      0x04\n      add\n      tag_146\n      swap1\n      tag_147\n      jump\t// in\n    tag_146:\n      mload(0x40)\n      dup1\n      swap2\n      sub\n      swap1\n      revert\n    tag_145:\n        /* \"ShibStyleToken.sol\":5794:5807  liquidityPool */\n      0x0b\n      0x00\n      swap1\n      sload\n      swap1\n      0x0100\n      exp\n      swap1\n      div\n      0xffffffffffffffffffffffffffffffffffffffff\n      and\n        /* \"ShibStyleToken.sol\":5787:5821  IERC20(liquidityPool).transferFrom */\n      0xffffffffffffffffffffffffffffffffffffffff\n      and\n      0x23b872dd\n        /* \"ShibStyleToken.sol\":5836:5846  msg.sender */\n      caller\n        /* \"ShibStyleToken.sol\":5861:5874  liquidityPool */\n      0x0b\n      0x00\n      swap1\n      sload\n      swap1\n      0x0100\n      exp\n      swap1\n      div\n      0xffffffffffffffffffffffffffffffffffffffff\n      and\n        /* \"ShibStyleToken.sol\":5889:5904  liquidityTokens */\n      dup7\n        /* \"ShibStyleToken.sol\":5787:5915  IERC20(liquidityPool).transferFrom(... */\n      mload(0x40)\n      dup5\n      0xffffffff\n      and\n      0xe0\n      shl\n      dup2\n      mstore\n      0x04\n      add\n      tag_148\n      swap4\n      swap3\n      swap2\n      swap1\n      tag_149\n      jump\t// in\n    tag_148:\n      0x20\n      mload(0x40)\n      dup1\n      dup4\n      sub\n      dup2\n      0x00\n      dup8\n      gas\n      call\n      iszero\n      dup1\n      iszero\n      tag_151\n      jumpi\n      returndatacopy(0x00, 0x00, returndatasize)\n      revert(0x00, returndatasize)\n    tag_151:\n      pop\n      pop\n      pop\n      pop\n      mload(0x40)\n      returndatasize\n      not(0x1f)\n      0x1f\n      dup3\n      add\n      and\n      dup3\n      add\n      dup1\n      0x40\n      mstore\n      pop\n      dup2\n      add\n      swap1\n      tag_152\n      swap2\n      swap1\n      tag_153\n      jump\t// in\n    tag_152:\n      pop\n        /* \"ShibStyleToken.sol\":6032:6045  liquidityPool */\n      0x0b\n      0x00\n      swap1\n      sload\n      swap1\n      0x0100\n      exp\n      swap1\n      div\n      0xffffffffffffffffffffffffffffffffffffffff\n      and\n        /* \"ShibStyleToken.sol\":6017:6051  IUniswapV2Pair(liquidityPool).burn */\n      0xffffffffffffffffffffffffffffffffffffffff\n      and\n      0x89afcb44\n        /* \"ShibStyleToken.sol\":6052:6062  msg.sender */\n      caller\n        /* \"ShibStyleToken.sol\":6017:6063  IUniswapV2Pair(liquidityPool).burn(msg.sender) */\n      mload(0x40)\n      dup3\n      0xffffffff\n      and\n      0xe0\n      shl\n      dup2\n      mstore\n      0x04\n      add\n      tag_154\n      swap2\n      swap1\n      tag_53\n      jump\t// in\n    tag_154:\n      0x40\n      dup1\n      mload\n      dup1\n      dup4\n      sub\n      dup2\n      0x00\n      dup8\n      gas\n      call\n      iszero\n      dup1\n      iszero\n      tag_156\n      jumpi\n      returndatacopy(0x00, 0x00, returndatasize)\n      revert(0x00, returndatasize)\n    tag_156:\n      pop\n      pop\n      pop\n      pop\n      mload(0x40)\n      returndatasize\n      not(0x1f)\n      0x1f\n      dup3\n      add\n      and\n      dup3\n      add\n      dup1\n      0x40\n      mstore\n      pop\n      dup2\n      add\n      swap1\n      tag_157\n      swap2\n      swap1\n      tag_158\n      jump\t// in\n    tag_157:\n        /* \"ShibStyleToken.sol\":5996:6063  (amount0, amount1) = IUniswapV2Pair(liquidityPool).burn(msg.sender) */\n      dup1\n      swap3\n      pop\n      dup2\n      swap4\n      pop\n      pop\n      pop\n        /* \"ShibStyleToken.sol\":5489:6071  function removeLiquidity(... */\n      swap2\n      pop\n      swap2\n      jump\t// out\n        /* \"ShibStyleToken.sol\":4745:5457  function addLiquidity(... */\n    tag_78:\n        /* \"ShibStyleToken.sol\":4893:4894  0 */\n      0x00\n        /* \"ShibStyleToken.sol\":4868:4895  liquidityPool != address(0) */\n      0xffffffffffffffffffffffffffffffffffffffff\n      and\n        /* \"ShibStyleToken.sol\":4868:4881  liquidityPool */\n      0x0b\n      0x00\n      swap1\n      sload\n      swap1\n      0x0100\n      exp\n      swap1\n      div\n      0xffffffffffffffffffffffffffffffffffffffff\n      and\n        /* \"ShibStyleToken.sol\":4868:4895  liquidityPool != address(0) */\n      0xffffffffffffffffffffffffffffffffffffffff\n      and\n      sub\n        /* \"ShibStyleToken.sol\":4860:4922  require(liquidityPool != address(0), \"Liquidity pool not set\") */\n      tag_160\n      jumpi\n      mload(0x40)\n      0x08c379a000000000000000000000000000000000000000000000000000000000\n      dup2\n      mstore\n      0x04\n      add\n      tag_161\n      swap1\n      tag_147\n      jump\t// in\n    tag_161:\n      mload(0x40)\n      dup1\n      swap2\n      sub\n      swap1\n      revert\n    tag_160:\n        /* \"ShibStyleToken.sol\":4954:4963  msg.value */\n      callvalue\n        /* \"ShibStyleToken.sol\":4941:4950  ethAmount */\n      dup2\n        /* \"ShibStyleToken.sol\":4941:4963  ethAmount == msg.value */\n      eq\n        /* \"ShibStyleToken.sol\":4933:4987  require(ethAmount == msg.value, \"ETH amount mismatch\") */\n      tag_162\n      jumpi\n      mload(0x40)\n      0x08c379a000000000000000000000000000000000000000000000000000000000\n      dup2\n      mstore\n      0x04\n      add\n      tag_163\n      swap1\n      tag_164\n      jump\t// in\n    tag_163:\n      mload(0x40)\n      dup1\n      swap2\n      sub\n      swap1\n      revert\n    tag_162:\n        /* \"ShibStyleToken.sol\":5109:5158  _transfer(msg.sender, liquidityPool, tokenAmount) */\n      tag_165\n        /* \"ShibStyleToken.sol\":5119:5129  msg.sender */\n      caller\n        /* \"ShibStyleToken.sol\":5131:5144  liquidityPool */\n      0x0b\n      0x00\n      swap1\n      sload\n      swap1\n      0x0100\n      exp\n      swap1\n      div\n      0xffffffffffffffffffffffffffffffffffffffff\n      and\n        /* \"ShibStyleToken.sol\":5146:5157  tokenAmount */\n      dup5\n        /* \"ShibStyleToken.sol\":5109:5118  _transfer */\n      tag_131\n        /* \"ShibStyleToken.sol\":5109:5158  _transfer(msg.sender, liquidityPool, tokenAmount) */\n      jump\t// in\n    tag_165:\n        /* \"ShibStyleToken.sol\":5214:5226  bool success */\n      0x00\n        /* \"ShibStyleToken.sol\":5232:5245  liquidityPool */\n      0x0b\n      0x00\n      swap1\n      sload\n      swap1\n      0x0100\n      exp\n      swap1\n      div\n      0xffffffffffffffffffffffffffffffffffffffff\n      and\n        /* \"ShibStyleToken.sol\":5232:5250  liquidityPool.call */\n      0xffffffffffffffffffffffffffffffffffffffff\n      and\n        /* \"ShibStyleToken.sol\":5258:5267  ethAmount */\n      dup3\n        /* \"ShibStyleToken.sol\":5232:5272  liquidityPool.call{value: ethAmount}(\"\") */\n      mload(0x40)\n      tag_166\n      swap1\n      tag_167\n      jump\t// in\n    tag_166:\n      0x00\n      mload(0x40)\n      dup1\n      dup4\n      sub\n      dup2\n      dup6\n      dup8\n      gas\n      call\n      swap3\n      pop\n      pop\n      pop\n      returndatasize\n      dup1\n      0x00\n      dup2\n      eq\n      tag_170\n      jumpi\n      mload(0x40)\n      swap2\n      pop\n      and(add(returndatasize, 0x3f), not(0x1f))\n      dup3\n      add\n      0x40\n      mstore\n      returndatasize\n      dup3\n      mstore\n      returndatasize\n      0x00\n      0x20\n      dup5\n      add\n      returndatacopy\n      jump(tag_169)\n    tag_170:\n      0x60\n      swap2\n      pop\n    tag_169:\n      pop\n        /* \"ShibStyleToken.sol\":5213:5272  (bool success, ) = liquidityPool.call{value: ethAmount}(\"\") */\n      pop\n      swap1\n      pop\n        /* \"ShibStyleToken.sol\":5291:5298  success */\n      dup1\n        /* \"ShibStyleToken.sol\":5283:5322  require(success, \"ETH transfer failed\") */\n      tag_171\n      jumpi\n      mload(0x40)\n      0x08c379a000000000000000000000000000000000000000000000000000000000\n      dup2\n      mstore\n      0x04\n      add\n      tag_172\n      swap1\n      tag_173\n      jump\t// in\n    tag_172:\n      mload(0x40)\n      dup1\n      swap2\n      sub\n      swap1\n      revert\n    tag_171:\n        /* \"ShibStyleToken.sol\":5418:5431  liquidityPool */\n      0x0b\n      0x00\n      swap1\n      sload\n      swap1\n      0x0100\n      exp\n      swap1\n      div\n      0xffffffffffffffffffffffffffffffffffffffff\n      and\n        /* \"ShibStyleToken.sol\":5403:5437  IUniswapV2Pair(liquidityPool).mint */\n      0xffffffffffffffffffffffffffffffffffffffff\n      and\n      0x6a627842\n        /* \"ShibStyleToken.sol\":5438:5448  msg.sender */\n      caller\n        /* \"ShibStyleToken.sol\":5403:5449  IUniswapV2Pair(liquidityPool).mint(msg.sender) */\n      mload(0x40)\n      dup3\n      0xffffffff\n      and\n      0xe0\n      shl\n      dup2\n      mstore\n      0x04\n      add\n      tag_174\n      swap2\n      swap1\n      tag_53\n      jump\t// in\n    tag_174:\n      0x20\n      mload(0x40)\n      dup1\n      dup4\n      sub\n      dup2\n      0x00\n      dup8\n      gas\n      call\n      iszero\n      dup1\n      iszero\n      tag_176\n      jumpi\n      returndatacopy(0x00, 0x00, returndatasize)\n      revert(0x00, returndatasize)\n    tag_176:\n      pop\n      pop\n      pop\n      pop\n      mload(0x40)\n      returndatasize\n      not(0x1f)\n      0x1f\n      dup3\n      add\n      and\n      dup3\n      add\n      dup1\n      0x40\n      mstore\n      pop\n      dup2\n      add\n      swap1\n      tag_177\n      swap2\n      swap1\n      tag_178\n      jump\t// in\n    tag_177:\n      pop\n        /* \"ShibStyleToken.sol\":4849:5457  {... */\n      pop\n        /* \"ShibStyleToken.sol\":4745:5457  function addLiquidity(... */\n      pop\n      pop\n      jump\t// out\n        /* \"ShibStyleToken.sol\":1785:2507  function transfer(... */\n    tag_82:\n        /* \"ShibStyleToken.sol\":1888:1892  bool */\n      0x00\n        /* \"ShibStyleToken.sol\":1905:1919  address sender */\n      0x00\n        /* \"ShibStyleToken.sol\":1922:1932  msg.sender */\n      caller\n        /* \"ShibStyleToken.sol\":1905:1932  address sender = msg.sender */\n      swap1\n      pop\n        /* \"ShibStyleToken.sol\":1974:2013  _checkTransactionLimits(sender, amount) */\n      tag_180\n        /* \"ShibStyleToken.sol\":1998:2004  sender */\n      dup2\n        /* \"ShibStyleToken.sol\":2006:2012  amount */\n      dup5\n        /* \"ShibStyleToken.sol\":1974:1997  _checkTransactionLimits */\n      tag_121\n        /* \"ShibStyleToken.sol\":1974:2013  _checkTransactionLimits(sender, amount) */\n      jump\t// in\n    tag_180:\n        /* \"ShibStyleToken.sol\":2049:2066  uint256 taxAmount */\n      0x00\n        /* \"ShibStyleToken.sol\":2069:2090  _calculateTax(amount) */\n      tag_181\n        /* \"ShibStyleToken.sol\":2083:2089  amount */\n      dup5\n        /* \"ShibStyleToken.sol\":2069:2082  _calculateTax */\n      tag_123\n        /* \"ShibStyleToken.sol\":2069:2090  _calculateTax(amount) */\n      jump\t// in\n    tag_181:\n        /* \"ShibStyleToken.sol\":2049:2090  uint256 taxAmount = _calculateTax(amount) */\n      swap1\n      pop\n        /* \"ShibStyleToken.sol\":2126:2145  uint256 totalAmount */\n      0x00\n        /* \"ShibStyleToken.sol\":2157:2166  taxAmount */\n      dup2\n        /* \"ShibStyleToken.sol\":2148:2154  amount */\n      dup6\n        /* \"ShibStyleToken.sol\":2148:2166  amount + taxAmount */\n      tag_182\n      swap2\n      swap1\n      tag_125\n      jump\t// in\n    tag_182:\n        /* \"ShibStyleToken.sol\":2126:2166  uint256 totalAmount = amount + taxAmount */\n      swap1\n      pop\n        /* \"ShibStyleToken.sol\":2220:2231  totalAmount */\n      dup1\n        /* \"ShibStyleToken.sol\":2199:2216  balanceOf(sender) */\n      tag_183\n        /* \"ShibStyleToken.sol\":2209:2215  sender */\n      dup5\n        /* \"ShibStyleToken.sol\":2199:2208  balanceOf */\n      tag_58\n        /* \"ShibStyleToken.sol\":2199:2216  balanceOf(sender) */\n      jump\t// in\n    tag_183:\n        /* \"ShibStyleToken.sol\":2199:2231  balanceOf(sender) >= totalAmount */\n      lt\n      iszero\n        /* \"ShibStyleToken.sol\":2177:2293  require(... */\n      tag_184\n      jumpi\n      mload(0x40)\n      0x08c379a000000000000000000000000000000000000000000000000000000000\n      dup2\n      mstore\n      0x04\n      add\n      tag_185\n      swap1\n      tag_129\n      jump\t// in\n    tag_185:\n      mload(0x40)\n      dup1\n      swap2\n      sub\n      swap1\n      revert\n    tag_184:\n        /* \"ShibStyleToken.sol\":2347:2380  super.transfer(recipient, amount) */\n      tag_186\n        /* \"ShibStyleToken.sol\":2362:2371  recipient */\n      dup7\n        /* \"ShibStyleToken.sol\":2373:2379  amount */\n      dup7\n        /* \"ShibStyleToken.sol\":2347:2361  super.transfer */\n      tag_187\n        /* \"ShibStyleToken.sol\":2347:2380  super.transfer(recipient, amount) */\n      jump\t// in\n    tag_186:\n      pop\n        /* \"ShibStyleToken.sol\":2437:2475  super.transfer(taxReceiver, taxAmount) */\n      tag_188\n        /* \"ShibStyleToken.sol\":2452:2463  taxReceiver */\n      0x06\n      0x00\n      swap1\n      sload\n      swap1\n      0x0100\n      exp\n      swap1\n      div\n      0xffffffffffffffffffffffffffffffffffffffff\n      and\n        /* \"ShibStyleToken.sol\":2465:2474  taxAmount */\n      dup4\n        /* \"ShibStyleToken.sol\":2437:2451  super.transfer */\n      tag_187\n        /* \"ShibStyleToken.sol\":2437:2475  super.transfer(taxReceiver, taxAmount) */\n      jump\t// in\n    tag_188:\n      pop\n        /* \"ShibStyleToken.sol\":2495:2499  true */\n      0x01\n        /* \"ShibStyleToken.sol\":2488:2499  return true */\n      swap4\n      pop\n      pop\n      pop\n      pop\n        /* \"ShibStyleToken.sol\":1785:2507  function transfer(... */\n      swap3\n      swap2\n      pop\n      pop\n      jump\t// out\n        /* \"ShibStyleToken.sol\":802:837  uint256 public maxTransactionAmount */\n    tag_86:\n      sload(0x07)\n      dup2\n      jump\t// out\n        /* \"node_modules/@openzeppelin/contracts/token/ERC20/ERC20.sol\":3455:3595  function allowance(address owner, address spender) public view virtual returns (uint256) {... */\n    tag_92:\n        /* \"node_modules/@openzeppelin/contracts/token/ERC20/ERC20.sol\":3535:3542  uint256 */\n      0x00\n        /* \"node_modules/@openzeppelin/contracts/token/ERC20/ERC20.sol\":3561:3572  _allowances */\n      0x01\n        /* \"node_modules/@openzeppelin/contracts/token/ERC20/ERC20.sol\":3561:3579  _allowances[owner] */\n      0x00\n        /* \"node_modules/@openzeppelin/contracts/token/ERC20/ERC20.sol\":3573:3578  owner */\n      dup5\n        /* \"node_modules/@openzeppelin/contracts/token/ERC20/ERC20.sol\":3561:3579  _allowances[owner] */\n      0xffffffffffffffffffffffffffffffffffffffff\n      and\n      0xffffffffffffffffffffffffffffffffffffffff\n      and\n      dup2\n      mstore\n      0x20\n      add\n      swap1\n      dup2\n      mstore\n      0x20\n      add\n      0x00\n      keccak256\n        /* \"node_modules/@openzeppelin/contracts/token/ERC20/ERC20.sol\":3561:3588  _allowances[owner][spender] */\n      0x00\n        /* \"node_modules/@openzeppelin/contracts/token/ERC20/ERC20.sol\":3580:3587  spender */\n      dup4\n        /* \"node_modules/@openzeppelin/contracts/token/ERC20/ERC20.sol\":3561:3588  _allowances[owner][spender] */\n      0xffffffffffffffffffffffffffffffffffffffff\n      and\n      0xffffffffffffffffffffffffffffffffffffffff\n      and\n      dup2\n      mstore\n      0x20\n      add\n      swap1\n      dup2\n      mstore\n      0x20\n      add\n      0x00\n      keccak256\n      sload\n        /* \"node_modules/@openzeppelin/contracts/token/ERC20/ERC20.sol\":3554:3588  return _allowances[owner][spender] */\n      swap1\n      pop\n        /* \"node_modules/@openzeppelin/contracts/token/ERC20/ERC20.sol\":3455:3595  function allowance(address owner, address spender) public view virtual returns (uint256) {... */\n      swap3\n      swap2\n      pop\n      pop\n      jump\t// out\n        /* \"ShibStyleToken.sol\":736:762  address public taxReceiver */\n    tag_96:\n      0x06\n      0x00\n      swap1\n      sload\n      swap1\n      0x0100\n      exp\n      swap1\n      div\n      0xffffffffffffffffffffffffffffffffffffffff\n      and\n      dup2\n      jump\t// out\n        /* \"ShibStyleToken.sol\":877:918  uint256 public dailyTransactionCountLimit */\n    tag_100:\n      sload(0x08)\n      dup2\n      jump\t// out\n        /* \"node_modules/@openzeppelin/contracts/utils/Context.sol\":656:752  function _msgSender() internal view virtual returns (address) {... */\n    tag_111:\n        /* \"node_modules/@openzeppelin/contracts/utils/Context.sol\":709:716  address */\n      0x00\n        /* \"node_modules/@openzeppelin/contracts/utils/Context.sol\":735:745  msg.sender */\n      caller\n        /* \"node_modules/@openzeppelin/contracts/utils/Context.sol\":728:745  return msg.sender */\n      swap1\n      pop\n        /* \"node_modules/@openzeppelin/contracts/utils/Context.sol\":656:752  function _msgSender() internal view virtual returns (address) {... */\n      swap1\n      jump\t// out\n        /* \"node_modules/@openzeppelin/contracts/token/ERC20/ERC20.sol\":8630:8758  function _approve(address owner, address spender, uint256 value) internal {... */\n    tag_113:\n        /* \"node_modules/@openzeppelin/contracts/token/ERC20/ERC20.sol\":8714:8751  _approve(owner, spender, value, true) */\n      tag_192\n        /* \"node_modules/@openzeppelin/contracts/token/ERC20/ERC20.sol\":8723:8728  owner */\n      dup4\n        /* \"node_modules/@openzeppelin/contracts/token/ERC20/ERC20.sol\":8730:8737  spender */\n      dup4\n        /* \"node_modules/@openzeppelin/contracts/token/ERC20/ERC20.sol\":8739:8744  value */\n      dup4\n        /* \"node_modules/@openzeppelin/contracts/token/ERC20/ERC20.sol\":8746:8750  true */\n      0x01\n        /* \"node_modules/@openzeppelin/contracts/token/ERC20/ERC20.sol\":8714:8722  _approve */\n      tag_193\n        /* \"node_modules/@openzeppelin/contracts/token/ERC20/ERC20.sol\":8714:8751  _approve(owner, spender, value, true) */\n      jump\t// in\n    tag_192:\n        /* \"node_modules/@openzeppelin/contracts/token/ERC20/ERC20.sol\":8630:8758  function _approve(address owner, address spender, uint256 value) internal {... */\n      pop\n      pop\n      pop\n      jump\t// out\n        /* \"ShibStyleToken.sol\":3875:4713  function _checkTransactionLimits(address sender, uint256 amount) internal {... */\n    tag_121:\n        /* \"ShibStyleToken.sol\":4035:4055  maxTransactionAmount */\n      sload(0x07)\n        /* \"ShibStyleToken.sol\":4025:4031  amount */\n      dup2\n        /* \"ShibStyleToken.sol\":4025:4055  amount <= maxTransactionAmount */\n      gt\n      iszero\n        /* \"ShibStyleToken.sol\":4003:4115  require(... */\n      tag_195\n      jumpi\n      mload(0x40)\n      0x08c379a000000000000000000000000000000000000000000000000000000000\n      dup2\n      mstore\n      0x04\n      add\n      tag_196\n      swap1\n      tag_197\n      jump\t// in\n    tag_196:\n      mload(0x40)\n      dup1\n      swap2\n      sub\n      swap1\n      revert\n    tag_195:\n        /* \"ShibStyleToken.sol\":4128:4146  uint256 currentDay */\n      0x00\n        /* \"ShibStyleToken.sol\":4167:4173  1 days */\n      0x015180\n        /* \"ShibStyleToken.sol\":4149:4164  block.timestamp */\n      timestamp\n        /* \"ShibStyleToken.sol\":4149:4173  block.timestamp / 1 days */\n      tag_198\n      swap2\n      swap1\n      tag_199\n      jump\t// in\n    tag_198:\n        /* \"ShibStyleToken.sol\":4128:4173  uint256 currentDay = block.timestamp / 1 days */\n      swap1\n      pop\n        /* \"ShibStyleToken.sol\":4184:4199  uint256 lastDay */\n      0x00\n        /* \"ShibStyleToken.sol\":4202:4220  lastTransactionDay */\n      0x0a\n        /* \"ShibStyleToken.sol\":4202:4228  lastTransactionDay[sender] */\n      0x00\n        /* \"ShibStyleToken.sol\":4221:4227  sender */\n      dup6\n        /* \"ShibStyleToken.sol\":4202:4228  lastTransactionDay[sender] */\n      0xffffffffffffffffffffffffffffffffffffffff\n      and\n      0xffffffffffffffffffffffffffffffffffffffff\n      and\n      dup2\n      mstore\n      0x20\n      add\n      swap1\n      dup2\n      mstore\n      0x20\n      add\n      0x00\n      keccak256\n      sload\n        /* \"ShibStyleToken.sol\":4184:4228  uint256 lastDay = lastTransactionDay[sender] */\n      swap1\n      pop\n        /* \"ShibStyleToken.sol\":4256:4263  lastDay */\n      dup1\n        /* \"ShibStyleToken.sol\":4243:4253  currentDay */\n      dup3\n        /* \"ShibStyleToken.sol\":4243:4263  currentDay > lastDay */\n      gt\n        /* \"ShibStyleToken.sol\":4239:4420  if (currentDay > lastDay) {... */\n      iszero\n      tag_200\n      jumpi\n        /* \"ShibStyleToken.sol\":4353:4354  0 */\n      0x00\n        /* \"ShibStyleToken.sol\":4321:4342  dailyTransactionCount */\n      0x09\n        /* \"ShibStyleToken.sol\":4321:4350  dailyTransactionCount[sender] */\n      0x00\n        /* \"ShibStyleToken.sol\":4343:4349  sender */\n      dup7\n        /* \"ShibStyleToken.sol\":4321:4350  dailyTransactionCount[sender] */\n      0xffffffffffffffffffffffffffffffffffffffff\n      and\n      0xffffffffffffffffffffffffffffffffffffffff\n      and\n      dup2\n      mstore\n      0x20\n      add\n      swap1\n      dup2\n      mstore\n      0x20\n      add\n      0x00\n      keccak256\n        /* \"ShibStyleToken.sol\":4321:4354  dailyTransactionCount[sender] = 0 */\n      dup2\n      swap1\n      sstore\n      pop\n        /* \"ShibStyleToken.sol\":4398:4408  currentDay */\n      dup2\n        /* \"ShibStyleToken.sol\":4369:4387  lastTransactionDay */\n      0x0a\n        /* \"ShibStyleToken.sol\":4369:4395  lastTransactionDay[sender] */\n      0x00\n        /* \"ShibStyleToken.sol\":4388:4394  sender */\n      dup7\n        /* \"ShibStyleToken.sol\":4369:4395  lastTransactionDay[sender] */\n      0xffffffffffffffffffffffffffffffffffffffff\n      and\n      0xffffffffffffffffffffffffffffffffffffffff\n      and\n      dup2\n      mstore\n      0x20\n      add\n      swap1\n      dup2\n      mstore\n      0x20\n      add\n      0x00\n      keccak256\n        /* \"ShibStyleToken.sol\":4369:4408  lastTransactionDay[sender] = currentDay */\n      dup2\n      swap1\n      sstore\n      pop\n        /* \"ShibStyleToken.sol\":4239:4420  if (currentDay > lastDay) {... */\n    tag_200:\n        /* \"ShibStyleToken.sol\":4538:4564  dailyTransactionCountLimit */\n      sload(0x08)\n        /* \"ShibStyleToken.sol\":4506:4527  dailyTransactionCount */\n      0x09\n        /* \"ShibStyleToken.sol\":4506:4535  dailyTransactionCount[sender] */\n      0x00\n        /* \"ShibStyleToken.sol\":4528:4534  sender */\n      dup7\n        /* \"ShibStyleToken.sol\":4506:4535  dailyTransactionCount[sender] */\n      0xffffffffffffffffffffffffffffffffffffffff\n      and\n      0xffffffffffffffffffffffffffffffffffffffff\n      and\n      dup2\n      mstore\n      0x20\n      add\n      swap1\n      dup2\n      mstore\n      0x20\n      add\n      0x00\n      keccak256\n      sload\n        /* \"ShibStyleToken.sol\":4506:4564  dailyTransactionCount[sender] < dailyTransactionCountLimit */\n      lt\n        /* \"ShibStyleToken.sol\":4484:4624  require(... */\n      tag_201\n      jumpi\n      mload(0x40)\n      0x08c379a000000000000000000000000000000000000000000000000000000000\n      dup2\n      mstore\n      0x04\n      add\n      tag_202\n      swap1\n      tag_203\n      jump\t// in\n    tag_202:\n      mload(0x40)\n      dup1\n      swap2\n      sub\n      swap1\n      revert\n    tag_201:\n        /* \"ShibStyleToken.sol\":4674:4695  dailyTransactionCount */\n      0x09\n        /* \"ShibStyleToken.sol\":4674:4703  dailyTransactionCount[sender] */\n      0x00\n        /* \"ShibStyleToken.sol\":4696:4702  sender */\n      dup6\n        /* \"ShibStyleToken.sol\":4674:4703  dailyTransactionCount[sender] */\n      0xffffffffffffffffffffffffffffffffffffffff\n      and\n      0xffffffffffffffffffffffffffffffffffffffff\n      and\n      dup2\n      mstore\n      0x20\n      add\n      swap1\n      dup2\n      mstore\n      0x20\n      add\n      0x00\n      keccak256\n      0x00\n        /* \"ShibStyleToken.sol\":4674:4705  dailyTransactionCount[sender]++ */\n      dup2\n      sload\n      dup1\n      swap3\n      swap2\n      swap1\n      tag_204\n      swap1\n      tag_205\n      jump\t// in\n    tag_204:\n      swap2\n      swap1\n      pop\n      sstore\n      pop\n        /* \"ShibStyleToken.sol\":3949:4713  {... */\n      pop\n      pop\n        /* \"ShibStyleToken.sol\":3875:4713  function _checkTransactionLimits(address sender, uint256 amount) internal {... */\n      pop\n      pop\n      jump\t// out\n        /* \"ShibStyleToken.sol\":3701:3840  function _calculateTax(uint256 amount) internal view returns (uint256) {... */\n    tag_123:\n        /* \"ShibStyleToken.sol\":3763:3770  uint256 */\n      0x00\n        /* \"ShibStyleToken.sol\":3811:3816  10000 */\n      0x2710\n        /* \"ShibStyleToken.sol\":3800:3807  taxRate */\n      sload(0x05)\n        /* \"ShibStyleToken.sol\":3791:3797  amount */\n      dup4\n        /* \"ShibStyleToken.sol\":3791:3807  amount * taxRate */\n      tag_207\n      swap2\n      swap1\n      tag_208\n      jump\t// in\n    tag_207:\n        /* \"ShibStyleToken.sol\":3790:3816  (amount * taxRate) / 10000 */\n      tag_209\n      swap2\n      swap1\n      tag_199\n      jump\t// in\n    tag_209:\n        /* \"ShibStyleToken.sol\":3783:3816  return (amount * taxRate) / 10000 */\n      swap1\n      pop\n        /* \"ShibStyleToken.sol\":3701:3840  function _calculateTax(uint256 amount) internal view returns (uint256) {... */\n      swap2\n      swap1\n      pop\n      jump\t// out\n        /* \"node_modules/@openzeppelin/contracts/token/ERC20/ERC20.sol\":5297:5597  function _transfer(address from, address to, uint256 value) internal {... */\n    tag_131:\n        /* \"node_modules/@openzeppelin/contracts/token/ERC20/ERC20.sol\":5396:5397  0 */\n      0x00\n        /* \"node_modules/@openzeppelin/contracts/token/ERC20/ERC20.sol\":5380:5398  from == address(0) */\n      0xffffffffffffffffffffffffffffffffffffffff\n      and\n        /* \"node_modules/@openzeppelin/contracts/token/ERC20/ERC20.sol\":5380:5384  from */\n      dup4\n        /* \"node_modules/@openzeppelin/contracts/token/ERC20/ERC20.sol\":5380:5398  from == address(0) */\n      0xffffffffffffffffffffffffffffffffffffffff\n      and\n      sub\n        /* \"node_modules/@openzeppelin/contracts/token/ERC20/ERC20.sol\":5376:5462  if (from == address(0)) {... */\n      tag_211\n      jumpi\n        /* \"node_modules/@openzeppelin/contracts/token/ERC20/ERC20.sol\":5448:5449  0 */\n      0x00\n        /* \"node_modules/@openzeppelin/contracts/token/ERC20/ERC20.sol\":5421:5451  ERC20InvalidSender(address(0)) */\n      mload(0x40)\n      0x96c6fd1e00000000000000000000000000000000000000000000000000000000\n      dup2\n      mstore\n      0x04\n      add\n      tag_212\n      swap2\n      swap1\n      tag_53\n      jump\t// in\n    tag_212:\n      mload(0x40)\n      dup1\n      swap2\n      sub\n      swap1\n      revert\n        /* \"node_modules/@openzeppelin/contracts/token/ERC20/ERC20.sol\":5376:5462  if (from == address(0)) {... */\n    tag_211:\n        /* \"node_modules/@openzeppelin/contracts/token/ERC20/ERC20.sol\":5489:5490  0 */\n      0x00\n        /* \"node_modules/@openzeppelin/contracts/token/ERC20/ERC20.sol\":5475:5491  to == address(0) */\n      0xffffffffffffffffffffffffffffffffffffffff\n      and\n        /* \"node_modules/@openzeppelin/contracts/token/ERC20/ERC20.sol\":5475:5477  to */\n      dup3\n        /* \"node_modules/@openzeppelin/contracts/token/ERC20/ERC20.sol\":5475:5491  to == address(0) */\n      0xffffffffffffffffffffffffffffffffffffffff\n      and\n      sub\n        /* \"node_modules/@openzeppelin/contracts/token/ERC20/ERC20.sol\":5471:5557  if (to == address(0)) {... */\n      tag_213\n      jumpi\n        /* \"node_modules/@openzeppelin/contracts/token/ERC20/ERC20.sol\":5543:5544  0 */\n      0x00\n        /* \"node_modules/@openzeppelin/contracts/token/ERC20/ERC20.sol\":5514:5546  ERC20InvalidReceiver(address(0)) */\n      mload(0x40)\n      0xec442f0500000000000000000000000000000000000000000000000000000000\n      dup2\n      mstore\n      0x04\n      add\n      tag_214\n      swap2\n      swap1\n      tag_53\n      jump\t// in\n    tag_214:\n      mload(0x40)\n      dup1\n      swap2\n      sub\n      swap1\n      revert\n        /* \"node_modules/@openzeppelin/contracts/token/ERC20/ERC20.sol\":5471:5557  if (to == address(0)) {... */\n    tag_213:\n        /* \"node_modules/@openzeppelin/contracts/token/ERC20/ERC20.sol\":5566:5590  _update(from, to, value) */\n      tag_215\n        /* \"node_modules/@openzeppelin/contracts/token/ERC20/ERC20.sol\":5574:5578  from */\n      dup4\n        /* \"node_modules/@openzeppelin/contracts/token/ERC20/ERC20.sol\":5580:5582  to */\n      dup4\n        /* \"node_modules/@openzeppelin/contracts/token/ERC20/ERC20.sol\":5584:5589  value */\n      dup4\n        /* \"node_modules/@openzeppelin/contracts/token/ERC20/ERC20.sol\":5566:5573  _update */\n      tag_216\n        /* \"node_modules/@openzeppelin/contracts/token/ERC20/ERC20.sol\":5566:5590  _update(from, to, value) */\n      jump\t// in\n    tag_215:\n        /* \"node_modules/@openzeppelin/contracts/token/ERC20/ERC20.sol\":5297:5597  function _transfer(address from, address to, uint256 value) internal {... */\n      pop\n      pop\n      pop\n      jump\t// out\n        /* \"node_modules/@openzeppelin/contracts/token/ERC20/ERC20.sol\":3244:3422  function transfer(address to, uint256 value) public virtual returns (bool) {... */\n    tag_187:\n        /* \"node_modules/@openzeppelin/contracts/token/ERC20/ERC20.sol\":3313:3317  bool */\n      0x00\n        /* \"node_modules/@openzeppelin/contracts/token/ERC20/ERC20.sol\":3329:3342  address owner */\n      0x00\n        /* \"node_modules/@openzeppelin/contracts/token/ERC20/ERC20.sol\":3345:3357  _msgSender() */\n      tag_218\n        /* \"node_modules/@openzeppelin/contracts/token/ERC20/ERC20.sol\":3345:3355  _msgSender */\n      tag_111\n        /* \"node_modules/@openzeppelin/contracts/token/ERC20/ERC20.sol\":3345:3357  _msgSender() */\n      jump\t// in\n    tag_218:\n        /* \"node_modules/@openzeppelin/contracts/token/ERC20/ERC20.sol\":3329:3357  address owner = _msgSender() */\n      swap1\n      pop\n        /* \"node_modules/@openzeppelin/contracts/token/ERC20/ERC20.sol\":3367:3394  _transfer(owner, to, value) */\n      tag_219\n        /* \"node_modules/@openzeppelin/contracts/token/ERC20/ERC20.sol\":3377:3382  owner */\n      dup2\n        /* \"node_modules/@openzeppelin/contracts/token/ERC20/ERC20.sol\":3384:3386  to */\n      dup6\n        /* \"node_modules/@openzeppelin/contracts/token/ERC20/ERC20.sol\":3388:3393  value */\n      dup6\n        /* \"node_modules/@openzeppelin/contracts/token/ERC20/ERC20.sol\":3367:3376  _transfer */\n      tag_131\n        /* \"node_modules/@openzeppelin/contracts/token/ERC20/ERC20.sol\":3367:3394  _transfer(owner, to, value) */\n      jump\t// in\n    tag_219:\n        /* \"node_modules/@openzeppelin/contracts/token/ERC20/ERC20.sol\":3411:3415  true */\n      0x01\n        /* \"node_modules/@openzeppelin/contracts/token/ERC20/ERC20.sol\":3404:3415  return true */\n      swap2\n      pop\n      pop\n        /* \"node_modules/@openzeppelin/contracts/token/ERC20/ERC20.sol\":3244:3422  function transfer(address to, uint256 value) public virtual returns (bool) {... */\n      swap3\n      swap2\n      pop\n      pop\n      jump\t// out\n        /* \"node_modules/@openzeppelin/contracts/token/ERC20/ERC20.sol\":9605:10037  function _approve(address owner, address spender, uint256 value, bool emitEvent) internal virtual {... */\n    tag_193:\n        /* \"node_modules/@openzeppelin/contracts/token/ERC20/ERC20.sol\":9734:9735  0 */\n      0x00\n        /* \"node_modules/@openzeppelin/contracts/token/ERC20/ERC20.sol\":9717:9736  owner == address(0) */\n      0xffffffffffffffffffffffffffffffffffffffff\n      and\n        /* \"node_modules/@openzeppelin/contracts/token/ERC20/ERC20.sol\":9717:9722  owner */\n      dup5\n        /* \"node_modules/@openzeppelin/contracts/token/ERC20/ERC20.sol\":9717:9736  owner == address(0) */\n      0xffffffffffffffffffffffffffffffffffffffff\n      and\n      sub\n        /* \"node_modules/@openzeppelin/contracts/token/ERC20/ERC20.sol\":9713:9802  if (owner == address(0)) {... */\n      tag_221\n      jumpi\n        /* \"node_modules/@openzeppelin/contracts/token/ERC20/ERC20.sol\":9788:9789  0 */\n      0x00\n        /* \"node_modules/@openzeppelin/contracts/token/ERC20/ERC20.sol\":9759:9791  ERC20InvalidApprover(address(0)) */\n      mload(0x40)\n      0xe602df0500000000000000000000000000000000000000000000000000000000\n      dup2\n      mstore\n      0x04\n      add\n      tag_222\n      swap2\n      swap1\n      tag_53\n      jump\t// in\n    tag_222:\n      mload(0x40)\n      dup1\n      swap2\n      sub\n      swap1\n      revert\n        /* \"node_modules/@openzeppelin/contracts/token/ERC20/ERC20.sol\":9713:9802  if (owner == address(0)) {... */\n    tag_221:\n        /* \"node_modules/@openzeppelin/contracts/token/ERC20/ERC20.sol\":9834:9835  0 */\n      0x00\n        /* \"node_modules/@openzeppelin/contracts/token/ERC20/ERC20.sol\":9815:9836  spender == address(0) */\n      0xffffffffffffffffffffffffffffffffffffffff\n      and\n        /* \"node_modules/@openzeppelin/contracts/token/ERC20/ERC20.sol\":9815:9822  spender */\n      dup4\n        /* \"node_modules/@openzeppelin/contracts/token/ERC20/ERC20.sol\":9815:9836  spender == address(0) */\n      0xffffffffffffffffffffffffffffffffffffffff\n      and\n      sub\n        /* \"node_modules/@openzeppelin/contracts/token/ERC20/ERC20.sol\":9811:9901  if (spender == address(0)) {... */\n      tag_223\n      jumpi\n        /* \"node_modules/@openzeppelin/contracts/token/ERC20/ERC20.sol\":9887:9888  0 */\n      0x00\n        /* \"node_modules/@openzeppelin/contracts/token/ERC20/ERC20.sol\":9859:9890  ERC20InvalidSpender(address(0)) */\n      mload(0x40)\n      0x94280d6200000000000000000000000000000000000000000000000000000000\n      dup2\n      mstore\n      0x04\n      add\n      tag_224\n      swap2\n      swap1\n      tag_53\n      jump\t// in\n    tag_224:\n      mload(0x40)\n      dup1\n      swap2\n      sub\n      swap1\n      revert\n        /* \"node_modules/@openzeppelin/contracts/token/ERC20/ERC20.sol\":9811:9901  if (spender == address(0)) {... */\n    tag_223:\n        /* \"node_modules/@openzeppelin/contracts/token/ERC20/ERC20.sol\":9940:9945  value */\n      dup2\n        /* \"node_modules/@openzeppelin/contracts/token/ERC20/ERC20.sol\":9910:9921  _allowances */\n      0x01\n        /* \"node_modules/@openzeppelin/contracts/token/ERC20/ERC20.sol\":9910:9928  _allowances[owner] */\n      0x00\n        /* \"node_modules/@openzeppelin/contracts/token/ERC20/ERC20.sol\":9922:9927  owner */\n      dup7\n        /* \"node_modules/@openzeppelin/contracts/token/ERC20/ERC20.sol\":9910:9928  _allowances[owner] */\n      0xffffffffffffffffffffffffffffffffffffffff\n      and\n      0xffffffffffffffffffffffffffffffffffffffff\n      and\n      dup2\n      mstore\n      0x20\n      add\n      swap1\n      dup2\n      mstore\n      0x20\n      add\n      0x00\n      keccak256\n        /* \"node_modules/@openzeppelin/contracts/token/ERC20/ERC20.sol\":9910:9937  _allowances[owner][spender] */\n      0x00\n        /* \"node_modules/@openzeppelin/contracts/token/ERC20/ERC20.sol\":9929:9936  spender */\n      dup6\n        /* \"node_modules/@openzeppelin/contracts/token/ERC20/ERC20.sol\":9910:9937  _allowances[owner][spender] */\n      0xffffffffffffffffffffffffffffffffffffffff\n      and\n      0xffffffffffffffffffffffffffffffffffffffff\n      and\n      dup2\n      mstore\n      0x20\n      add\n      swap1\n      dup2\n      mstore\n      0x20\n      add\n      0x00\n      keccak256\n        /* \"node_modules/@openzeppelin/contracts/token/ERC20/ERC20.sol\":9910:9945  _allowances[owner][spender] = value */\n      dup2\n      swap1\n      sstore\n      pop\n        /* \"node_modules/@openzeppelin/contracts/token/ERC20/ERC20.sol\":9959:9968  emitEvent */\n      dup1\n        /* \"node_modules/@openzeppelin/contracts/token/ERC20/ERC20.sol\":9955:10031  if (emitEvent) {... */\n      iszero\n      tag_225\n      jumpi\n        /* \"node_modules/@openzeppelin/contracts/token/ERC20/ERC20.sol\":10005:10012  spender */\n      dup3\n        /* \"node_modules/@openzeppelin/contracts/token/ERC20/ERC20.sol\":9989:10020  Approval(owner, spender, value) */\n      0xffffffffffffffffffffffffffffffffffffffff\n      and\n        /* \"node_modules/@openzeppelin/contracts/token/ERC20/ERC20.sol\":9998:10003  owner */\n      dup5\n        /* \"node_modules/@openzeppelin/contracts/token/ERC20/ERC20.sol\":9989:10020  Approval(owner, spender, value) */\n      0xffffffffffffffffffffffffffffffffffffffff\n      and\n      0x8c5be1e5ebec7d5bd14f71427d1e84f3dd0314c0f7b2291e5b200ac8c7c3b925\n        /* \"node_modules/@openzeppelin/contracts/token/ERC20/ERC20.sol\":10014:10019  value */\n      dup5\n        /* \"node_modules/@openzeppelin/contracts/token/ERC20/ERC20.sol\":9989:10020  Approval(owner, spender, value) */\n      mload(0x40)\n      tag_226\n      swap2\n      swap1\n      tag_37\n      jump\t// in\n    tag_226:\n      mload(0x40)\n      dup1\n      swap2\n      sub\n      swap1\n      log3\n        /* \"node_modules/@openzeppelin/contracts/token/ERC20/ERC20.sol\":9955:10031  if (emitEvent) {... */\n    tag_225:\n        /* \"node_modules/@openzeppelin/contracts/token/ERC20/ERC20.sol\":9605:10037  function _approve(address owner, address spender, uint256 value, bool emitEvent) internal virtual {... */\n      pop\n      pop\n      pop\n      pop\n      jump\t// out\n        /* \"node_modules/@openzeppelin/contracts/token/ERC20/ERC20.sol\":5912:7019  function _update(address from, address to, uint256 value) internal virtual {... */\n    tag_216:\n        /* \"node_modules/@openzeppelin/contracts/token/ERC20/ERC20.sol\":6017:6018  0 */\n      0x00\n        /* \"node_modules/@openzeppelin/contracts/token/ERC20/ERC20.sol\":6001:6019  from == address(0) */\n      0xffffffffffffffffffffffffffffffffffffffff\n      and\n        /* \"node_modules/@openzeppelin/contracts/token/ERC20/ERC20.sol\":6001:6005  from */\n      dup4\n        /* \"node_modules/@openzeppelin/contracts/token/ERC20/ERC20.sol\":6001:6019  from == address(0) */\n      0xffffffffffffffffffffffffffffffffffffffff\n      and\n      sub\n        /* \"node_modules/@openzeppelin/contracts/token/ERC20/ERC20.sol\":5997:6537  if (from == address(0)) {... */\n      tag_228\n      jumpi\n        /* \"node_modules/@openzeppelin/contracts/token/ERC20/ERC20.sol\":6153:6158  value */\n      dup1\n        /* \"node_modules/@openzeppelin/contracts/token/ERC20/ERC20.sol\":6137:6149  _totalSupply */\n      0x02\n      0x00\n        /* \"node_modules/@openzeppelin/contracts/token/ERC20/ERC20.sol\":6137:6158  _totalSupply += value */\n      dup3\n      dup3\n      sload\n      tag_229\n      swap2\n      swap1\n      tag_125\n      jump\t// in\n    tag_229:\n      swap3\n      pop\n      pop\n      dup2\n      swap1\n      sstore\n      pop\n        /* \"node_modules/@openzeppelin/contracts/token/ERC20/ERC20.sol\":5997:6537  if (from == address(0)) {... */\n      jump(tag_230)\n    tag_228:\n        /* \"node_modules/@openzeppelin/contracts/token/ERC20/ERC20.sol\":6189:6208  uint256 fromBalance */\n      0x00\n        /* \"node_modules/@openzeppelin/contracts/token/ERC20/ERC20.sol\":6211:6220  _balances */\n      0x00\n        /* \"node_modules/@openzeppelin/contracts/token/ERC20/ERC20.sol\":6211:6226  _balances[from] */\n      0x00\n        /* \"node_modules/@openzeppelin/contracts/token/ERC20/ERC20.sol\":6221:6225  from */\n      dup6\n        /* \"node_modules/@openzeppelin/contracts/token/ERC20/ERC20.sol\":6211:6226  _balances[from] */\n      0xffffffffffffffffffffffffffffffffffffffff\n      and\n      0xffffffffffffffffffffffffffffffffffffffff\n      and\n      dup2\n      mstore\n      0x20\n      add\n      swap1\n      dup2\n      mstore\n      0x20\n      add\n      0x00\n      keccak256\n      sload\n        /* \"node_modules/@openzeppelin/contracts/token/ERC20/ERC20.sol\":6189:6226  uint256 fromBalance = _balances[from] */\n      swap1\n      pop\n        /* \"node_modules/@openzeppelin/contracts/token/ERC20/ERC20.sol\":6258:6263  value */\n      dup2\n        /* \"node_modules/@openzeppelin/contracts/token/ERC20/ERC20.sol\":6244:6255  fromBalance */\n      dup2\n        /* \"node_modules/@openzeppelin/contracts/token/ERC20/ERC20.sol\":6244:6263  fromBalance < value */\n      lt\n        /* \"node_modules/@openzeppelin/contracts/token/ERC20/ERC20.sol\":6240:6355  if (fromBalance < value) {... */\n      iszero\n      tag_231\n      jumpi\n        /* \"node_modules/@openzeppelin/contracts/token/ERC20/ERC20.sol\":6315:6319  from */\n      dup4\n        /* \"node_modules/@openzeppelin/contracts/token/ERC20/ERC20.sol\":6321:6332  fromBalance */\n      dup2\n        /* \"node_modules/@openzeppelin/contracts/token/ERC20/ERC20.sol\":6334:6339  value */\n      dup4\n        /* \"node_modules/@openzeppelin/contracts/token/ERC20/ERC20.sol\":6290:6340  ERC20InsufficientBalance(from, fromBalance, value) */\n      mload(0x40)\n      0xe450d38c00000000000000000000000000000000000000000000000000000000\n      dup2\n      mstore\n      0x04\n      add\n      tag_232\n      swap4\n      swap3\n      swap2\n      swap1\n      tag_233\n      jump\t// in\n    tag_232:\n      mload(0x40)\n      dup1\n      swap2\n      sub\n      swap1\n      revert\n        /* \"node_modules/@openzeppelin/contracts/token/ERC20/ERC20.sol\":6240:6355  if (fromBalance < value) {... */\n    tag_231:\n        /* \"node_modules/@openzeppelin/contracts/token/ERC20/ERC20.sol\":6507:6512  value */\n      dup2\n        /* \"node_modules/@openzeppelin/contracts/token/ERC20/ERC20.sol\":6493:6504  fromBalance */\n      dup2\n        /* \"node_modules/@openzeppelin/contracts/token/ERC20/ERC20.sol\":6493:6512  fromBalance - value */\n      sub\n        /* \"node_modules/@openzeppelin/contracts/token/ERC20/ERC20.sol\":6475:6484  _balances */\n      0x00\n        /* \"node_modules/@openzeppelin/contracts/token/ERC20/ERC20.sol\":6475:6490  _balances[from] */\n      0x00\n        /* \"node_modules/@openzeppelin/contracts/token/ERC20/ERC20.sol\":6485:6489  from */\n      dup7\n        /* \"node_modules/@openzeppelin/contracts/token/ERC20/ERC20.sol\":6475:6490  _balances[from] */\n      0xffffffffffffffffffffffffffffffffffffffff\n      and\n      0xffffffffffffffffffffffffffffffffffffffff\n      and\n      dup2\n      mstore\n      0x20\n      add\n      swap1\n      dup2\n      mstore\n      0x20\n      add\n      0x00\n      keccak256\n        /* \"node_modules/@openzeppelin/contracts/token/ERC20/ERC20.sol\":6475:6512  _balances[from] = fromBalance - value */\n      dup2\n      swap1\n      sstore\n      pop\n        /* \"node_modules/@openzeppelin/contracts/token/ERC20/ERC20.sol\":6175:6537  {... */\n      pop\n        /* \"node_modules/@openzeppelin/contracts/token/ERC20/ERC20.sol\":5997:6537  if (from == address(0)) {... */\n    tag_230:\n        /* \"node_modules/@openzeppelin/contracts/token/ERC20/ERC20.sol\":6565:6566  0 */\n      0x00\n        /* \"node_modules/@openzeppelin/contracts/token/ERC20/ERC20.sol\":6551:6567  to == address(0) */\n      0xffffffffffffffffffffffffffffffffffffffff\n      and\n        /* \"node_modules/@openzeppelin/contracts/token/ERC20/ERC20.sol\":6551:6553  to */\n      dup3\n        /* \"node_modules/@openzeppelin/contracts/token/ERC20/ERC20.sol\":6551:6567  to == address(0) */\n      0xffffffffffffffffffffffffffffffffffffffff\n      and\n      sub\n        /* \"node_modules/@openzeppelin/contracts/token/ERC20/ERC20.sol\":6547:6972  if (to == address(0)) {... */\n      tag_234\n      jumpi\n        /* \"node_modules/@openzeppelin/contracts/token/ERC20/ERC20.sol\":6730:6735  value */\n      dup1\n        /* \"node_modules/@openzeppelin/contracts/token/ERC20/ERC20.sol\":6714:6726  _totalSupply */\n      0x02\n      0x00\n        /* \"node_modules/@openzeppelin/contracts/token/ERC20/ERC20.sol\":6714:6735  _totalSupply -= value */\n      dup3\n      dup3\n      sload\n      sub\n      swap3\n      pop\n      pop\n      dup2\n      swap1\n      sstore\n      pop\n        /* \"node_modules/@openzeppelin/contracts/token/ERC20/ERC20.sol\":6547:6972  if (to == address(0)) {... */\n      jump(tag_235)\n    tag_234:\n        /* \"node_modules/@openzeppelin/contracts/token/ERC20/ERC20.sol\":6942:6947  value */\n      dup1\n        /* \"node_modules/@openzeppelin/contracts/token/ERC20/ERC20.sol\":6925:6934  _balances */\n      0x00\n        /* \"node_modules/@openzeppelin/contracts/token/ERC20/ERC20.sol\":6925:6938  _balances[to] */\n      0x00\n        /* \"node_modules/@openzeppelin/contracts/token/ERC20/ERC20.sol\":6935:6937  to */\n      dup5\n        /* \"node_modules/@openzeppelin/contracts/token/ERC20/ERC20.sol\":6925:6938  _balances[to] */\n      0xffffffffffffffffffffffffffffffffffffffff\n      and\n      0xffffffffffffffffffffffffffffffffffffffff\n      and\n      dup2\n      mstore\n      0x20\n      add\n      swap1\n      dup2\n      mstore\n      0x20\n      add\n      0x00\n      keccak256\n      0x00\n        /* \"node_modules/@openzeppelin/contracts/token/ERC20/ERC20.sol\":6925:6947  _balances[to] += value */\n      dup3\n      dup3\n      sload\n      add\n      swap3\n      pop\n      pop\n      dup2\n      swap1\n      sstore\n      pop\n        /* \"node_modules/@openzeppelin/contracts/token/ERC20/ERC20.sol\":6547:6972  if (to == address(0)) {... */\n    tag_235:\n        /* \"node_modules/@openzeppelin/contracts/token/ERC20/ERC20.sol\":7002:7004  to */\n      dup2\n        /* \"node_modules/@openzeppelin/contracts/token/ERC20/ERC20.sol\":6987:7012  Transfer(from, to, value) */\n      0xffffffffffffffffffffffffffffffffffffffff\n      and\n        /* \"node_modules/@openzeppelin/contracts/token/ERC20/ERC20.sol\":6996:7000  from */\n      dup4\n        /* \"node_modules/@openzeppelin/contracts/token/ERC20/ERC20.sol\":6987:7012  Transfer(from, to, value) */\n      0xffffffffffffffffffffffffffffffffffffffff\n      and\n      0xddf252ad1be2c89b69c2b068fc378daa952ba7f163c4a11628f55a4df523b3ef\n        /* \"node_modules/@openzeppelin/contracts/token/ERC20/ERC20.sol\":7006:7011  value */\n      dup4\n        /* \"node_modules/@openzeppelin/contracts/token/ERC20/ERC20.sol\":6987:7012  Transfer(from, to, value) */\n      mload(0x40)\n      tag_236\n      swap2\n      swap1\n      tag_37\n      jump\t// in\n    tag_236:\n      mload(0x40)\n      dup1\n      swap2\n      sub\n      swap1\n      log3\n        /* \"node_modules/@openzeppelin/contracts/token/ERC20/ERC20.sol\":5912:7019  function _update(address from, address to, uint256 value) internal virtual {... */\n      pop\n      pop\n      pop\n      jump\t// out\n        /* \"#utility.yul\":7:106   */\n    tag_237:\n        /* \"#utility.yul\":59:65   */\n      0x00\n        /* \"#utility.yul\":93:98   */\n      dup2\n        /* \"#utility.yul\":87:99   */\n      mload\n        /* \"#utility.yul\":77:99   */\n      swap1\n      pop\n        /* \"#utility.yul\":7:106   */\n      swap2\n      swap1\n      pop\n      jump\t// out\n        /* \"#utility.yul\":112:281   */\n    tag_238:\n        /* \"#utility.yul\":196:207   */\n      0x00\n        /* \"#utility.yul\":230:236   */\n      dup3\n        /* \"#utility.yul\":225:228   */\n      dup3\n        /* \"#utility.yul\":218:237   */\n      mstore\n        /* \"#utility.yul\":270:274   */\n      0x20\n        /* \"#utility.yul\":265:268   */\n      dup3\n        /* \"#utility.yul\":261:275   */\n      add\n        /* \"#utility.yul\":246:275   */\n      swap1\n      pop\n        /* \"#utility.yul\":112:281   */\n      swap3\n      swap2\n      pop\n      pop\n      jump\t// out\n        /* \"#utility.yul\":287:426   */\n    tag_239:\n        /* \"#utility.yul\":376:382   */\n      dup3\n        /* \"#utility.yul\":371:374   */\n      dup2\n        /* \"#utility.yul\":366:369   */\n      dup4\n        /* \"#utility.yul\":360:383   */\n      mcopy\n        /* \"#utility.yul\":417:418   */\n      0x00\n        /* \"#utility.yul\":408:414   */\n      dup4\n        /* \"#utility.yul\":403:406   */\n      dup4\n        /* \"#utility.yul\":399:415   */\n      add\n        /* \"#utility.yul\":392:419   */\n      mstore\n        /* \"#utility.yul\":287:426   */\n      pop\n      pop\n      pop\n      jump\t// out\n        /* \"#utility.yul\":432:534   */\n    tag_240:\n        /* \"#utility.yul\":473:479   */\n      0x00\n        /* \"#utility.yul\":524:526   */\n      0x1f\n        /* \"#utility.yul\":520:527   */\n      not\n        /* \"#utility.yul\":515:517   */\n      0x1f\n        /* \"#utility.yul\":508:513   */\n      dup4\n        /* \"#utility.yul\":504:518   */\n      add\n        /* \"#utility.yul\":500:528   */\n      and\n        /* \"#utility.yul\":490:528   */\n      swap1\n      pop\n        /* \"#utility.yul\":432:534   */\n      swap2\n      swap1\n      pop\n      jump\t// out\n        /* \"#utility.yul\":540:917   */\n    tag_241:\n        /* \"#utility.yul\":628:631   */\n      0x00\n        /* \"#utility.yul\":656:695   */\n      tag_287\n        /* \"#utility.yul\":689:694   */\n      dup3\n        /* \"#utility.yul\":656:695   */\n      tag_237\n      jump\t// in\n    tag_287:\n        /* \"#utility.yul\":711:782   */\n      tag_288\n        /* \"#utility.yul\":775:781   */\n      dup2\n        /* \"#utility.yul\":770:773   */\n      dup6\n        /* \"#utility.yul\":711:782   */\n      tag_238\n      jump\t// in\n    tag_288:\n        /* \"#utility.yul\":704:782   */\n      swap4\n      pop\n        /* \"#utility.yul\":791:856   */\n      tag_289\n        /* \"#utility.yul\":849:855   */\n      dup2\n        /* \"#utility.yul\":844:847   */\n      dup6\n        /* \"#utility.yul\":837:841   */\n      0x20\n        /* \"#utility.yul\":830:835   */\n      dup7\n        /* \"#utility.yul\":826:842   */\n      add\n        /* \"#utility.yul\":791:856   */\n      tag_239\n      jump\t// in\n    tag_289:\n        /* \"#utility.yul\":881:910   */\n      tag_290\n        /* \"#utility.yul\":903:909   */\n      dup2\n        /* \"#utility.yul\":881:910   */\n      tag_240\n      jump\t// in\n    tag_290:\n        /* \"#utility.yul\":876:879   */\n      dup5\n        /* \"#utility.yul\":872:911   */\n      add\n        /* \"#utility.yul\":865:911   */\n      swap2\n      pop\n        /* \"#utility.yul\":632:917   */\n      pop\n        /* \"#utility.yul\":540:917   */\n      swap3\n      swap2\n      pop\n      pop\n      jump\t// out\n        /* \"#utility.yul\":923:1236   */\n    tag_25:\n        /* \"#utility.yul\":1036:1040   */\n      0x00\n        /* \"#utility.yul\":1074:1076   */\n      0x20\n        /* \"#utility.yul\":1063:1072   */\n      dup3\n        /* \"#utility.yul\":1059:1077   */\n      add\n        /* \"#utility.yul\":1051:1077   */\n      swap1\n      pop\n        /* \"#utility.yul\":1123:1132   */\n      dup2\n        /* \"#utility.yul\":1117:1121   */\n      dup2\n        /* \"#utility.yul\":1113:1133   */\n      sub\n        /* \"#utility.yul\":1109:1110   */\n      0x00\n        /* \"#utility.yul\":1098:1107   */\n      dup4\n        /* \"#utility.yul\":1094:1111   */\n      add\n        /* \"#utility.yul\":1087:1134   */\n      mstore\n        /* \"#utility.yul\":1151:1229   */\n      tag_292\n        /* \"#utility.yul\":1224:1228   */\n      dup2\n        /* \"#utility.yul\":1215:1221   */\n      dup5\n        /* \"#utility.yul\":1151:1229   */\n      tag_241\n      jump\t// in\n    tag_292:\n        /* \"#utility.yul\":1143:1229   */\n      swap1\n      pop\n        /* \"#utility.yul\":923:1236   */\n      swap3\n      swap2\n      pop\n      pop\n      jump\t// out\n        /* \"#utility.yul\":1323:1440   */\n    tag_243:\n        /* \"#utility.yul\":1432:1433   */\n      0x00\n        /* \"#utility.yul\":1429:1430   */\n      0x00\n        /* \"#utility.yul\":1422:1434   */\n      revert\n        /* \"#utility.yul\":1569:1695   */\n    tag_245:\n        /* \"#utility.yul\":1606:1613   */\n      0x00\n        /* \"#utility.yul\":1646:1688   */\n      0xffffffffffffffffffffffffffffffffffffffff\n        /* \"#utility.yul\":1639:1644   */\n      dup3\n        /* \"#utility.yul\":1635:1689   */\n      and\n        /* \"#utility.yul\":1624:1689   */\n      swap1\n      pop\n        /* \"#utility.yul\":1569:1695   */\n      swap2\n      swap1\n      pop\n      jump\t// out\n        /* \"#utility.yul\":1701:1797   */\n    tag_246:\n        /* \"#utility.yul\":1738:1745   */\n      0x00\n        /* \"#utility.yul\":1767:1791   */\n      tag_298\n        /* \"#utility.yul\":1785:1790   */\n      dup3\n        /* \"#utility.yul\":1767:1791   */\n      tag_245\n      jump\t// in\n    tag_298:\n        /* \"#utility.yul\":1756:1791   */\n      swap1\n      pop\n        /* \"#utility.yul\":1701:1797   */\n      swap2\n      swap1\n      pop\n      jump\t// out\n        /* \"#utility.yul\":1803:1925   */\n    tag_247:\n        /* \"#utility.yul\":1876:1900   */\n      tag_300\n        /* \"#utility.yul\":1894:1899   */\n      dup2\n        /* \"#utility.yul\":1876:1900   */\n      tag_246\n      jump\t// in\n    tag_300:\n        /* \"#utility.yul\":1869:1874   */\n      dup2\n        /* \"#utility.yul\":1866:1901   */\n      eq\n        /* \"#utility.yul\":1856:1919   */\n      tag_301\n      jumpi\n        /* \"#utility.yul\":1915:1916   */\n      0x00\n        /* \"#utility.yul\":1912:1913   */\n      0x00\n        /* \"#utility.yul\":1905:1917   */\n      revert\n        /* \"#utility.yul\":1856:1919   */\n    tag_301:\n        /* \"#utility.yul\":1803:1925   */\n      pop\n      jump\t// out\n        /* \"#utility.yul\":1931:2070   */\n    tag_248:\n        /* \"#utility.yul\":1977:1982   */\n      0x00\n        /* \"#utility.yul\":2015:2021   */\n      dup2\n        /* \"#utility.yul\":2002:2022   */\n      calldataload\n        /* \"#utility.yul\":1993:2022   */\n      swap1\n      pop\n        /* \"#utility.yul\":2031:2064   */\n      tag_303\n        /* \"#utility.yul\":2058:2063   */\n      dup2\n        /* \"#utility.yul\":2031:2064   */\n      tag_247\n      jump\t// in\n    tag_303:\n        /* \"#utility.yul\":1931:2070   */\n      swap3\n      swap2\n      pop\n      pop\n      jump\t// out\n        /* \"#utility.yul\":2076:2153   */\n    tag_249:\n        /* \"#utility.yul\":2113:2120   */\n      0x00\n        /* \"#utility.yul\":2142:2147   */\n      dup2\n        /* \"#utility.yul\":2131:2147   */\n      swap1\n      pop\n        /* \"#utility.yul\":2076:2153   */\n      swap2\n      swap1\n      pop\n      jump\t// out\n        /* \"#utility.yul\":2159:2281   */\n    tag_250:\n        /* \"#utility.yul\":2232:2256   */\n      tag_306\n        /* \"#utility.yul\":2250:2255   */\n      dup2\n        /* \"#utility.yul\":2232:2256   */\n      tag_249\n      jump\t// in\n    tag_306:\n        /* \"#utility.yul\":2225:2230   */\n      dup2\n        /* \"#utility.yul\":2222:2257   */\n      eq\n        /* \"#utility.yul\":2212:2275   */\n      tag_307\n      jumpi\n        /* \"#utility.yul\":2271:2272   */\n      0x00\n        /* \"#utility.yul\":2268:2269   */\n      0x00\n        /* \"#utility.yul\":2261:2273   */\n      revert\n        /* \"#utility.yul\":2212:2275   */\n    tag_307:\n        /* \"#utility.yul\":2159:2281   */\n      pop\n      jump\t// out\n        /* \"#utility.yul\":2287:2426   */\n    tag_251:\n        /* \"#utility.yul\":2333:2338   */\n      0x00\n        /* \"#utility.yul\":2371:2377   */\n      dup2\n        /* \"#utility.yul\":2358:2378   */\n      calldataload\n        /* \"#utility.yul\":2349:2378   */\n      swap1\n      pop\n        /* \"#utility.yul\":2387:2420   */\n      tag_309\n        /* \"#utility.yul\":2414:2419   */\n      dup2\n        /* \"#utility.yul\":2387:2420   */\n      tag_250\n      jump\t// in\n    tag_309:\n        /* \"#utility.yul\":2287:2426   */\n      swap3\n      swap2\n      pop\n      pop\n      jump\t// out\n        /* \"#utility.yul\":2432:2906   */\n    tag_29:\n        /* \"#utility.yul\":2500:2506   */\n      0x00\n        /* \"#utility.yul\":2508:2514   */\n      0x00\n        /* \"#utility.yul\":2557:2559   */\n      0x40\n        /* \"#utility.yul\":2545:2554   */\n      dup4\n        /* \"#utility.yul\":2536:2543   */\n      dup6\n        /* \"#utility.yul\":2532:2555   */\n      sub\n        /* \"#utility.yul\":2528:2560   */\n      slt\n        /* \"#utility.yul\":2525:2644   */\n      iszero\n      tag_311\n      jumpi\n        /* \"#utility.yul\":2563:2642   */\n      tag_312\n      tag_243\n      jump\t// in\n    tag_312:\n        /* \"#utility.yul\":2525:2644   */\n    tag_311:\n        /* \"#utility.yul\":2683:2684   */\n      0x00\n        /* \"#utility.yul\":2708:2761   */\n      tag_313\n        /* \"#utility.yul\":2753:2760   */\n      dup6\n        /* \"#utility.yul\":2744:2750   */\n      dup3\n        /* \"#utility.yul\":2733:2742   */\n      dup7\n        /* \"#utility.yul\":2729:2751   */\n      add\n        /* \"#utility.yul\":2708:2761   */\n      tag_248\n      jump\t// in\n    tag_313:\n        /* \"#utility.yul\":2698:2761   */\n      swap3\n      pop\n        /* \"#utility.yul\":2654:2771   */\n      pop\n        /* \"#utility.yul\":2810:2812   */\n      0x20\n        /* \"#utility.yul\":2836:2889   */\n      tag_314\n        /* \"#utility.yul\":2881:2888   */\n      dup6\n        /* \"#utility.yul\":2872:2878   */\n      dup3\n        /* \"#utility.yul\":2861:2870   */\n      dup7\n        /* \"#utility.yul\":2857:2879   */\n      add\n        /* \"#utility.yul\":2836:2889   */\n      tag_251\n      jump\t// in\n    tag_314:\n        /* \"#utility.yul\":2826:2889   */\n      swap2\n      pop\n        /* \"#utility.yul\":2781:2899   */\n      pop\n        /* \"#utility.yul\":2432:2906   */\n      swap3\n      pop\n      swap3\n      swap1\n      pop\n      jump\t// out\n        /* \"#utility.yul\":2912:3002   */\n    tag_252:\n        /* \"#utility.yul\":2946:2953   */\n      0x00\n        /* \"#utility.yul\":2989:2994   */\n      dup2\n        /* \"#utility.yul\":2982:2995   */\n      iszero\n        /* \"#utility.yul\":2975:2996   */\n      iszero\n        /* \"#utility.yul\":2964:2996   */\n      swap1\n      pop\n        /* \"#utility.yul\":2912:3002   */\n      swap2\n      swap1\n      pop\n      jump\t// out\n        /* \"#utility.yul\":3008:3117   */\n    tag_253:\n        /* \"#utility.yul\":3089:3110   */\n      tag_317\n        /* \"#utility.yul\":3104:3109   */\n      dup2\n        /* \"#utility.yul\":3089:3110   */\n      tag_252\n      jump\t// in\n    tag_317:\n        /* \"#utility.yul\":3084:3087   */\n      dup3\n        /* \"#utility.yul\":3077:3111   */\n      mstore\n        /* \"#utility.yul\":3008:3117   */\n      pop\n      pop\n      jump\t// out\n        /* \"#utility.yul\":3123:3333   */\n    tag_32:\n        /* \"#utility.yul\":3210:3214   */\n      0x00\n        /* \"#utility.yul\":3248:3250   */\n      0x20\n        /* \"#utility.yul\":3237:3246   */\n      dup3\n        /* \"#utility.yul\":3233:3251   */\n      add\n        /* \"#utility.yul\":3225:3251   */\n      swap1\n      pop\n        /* \"#utility.yul\":3261:3326   */\n      tag_319\n        /* \"#utility.yul\":3323:3324   */\n      0x00\n        /* \"#utility.yul\":3312:3321   */\n      dup4\n        /* \"#utility.yul\":3308:3325   */\n      add\n        /* \"#utility.yul\":3299:3305   */\n      dup5\n        /* \"#utility.yul\":3261:3326   */\n      tag_253\n      jump\t// in\n    tag_319:\n        /* \"#utility.yul\":3123:3333   */\n      swap3\n      swap2\n      pop\n      pop\n      jump\t// out\n        /* \"#utility.yul\":3339:3457   */\n    tag_254:\n        /* \"#utility.yul\":3426:3450   */\n      tag_321\n        /* \"#utility.yul\":3444:3449   */\n      dup2\n        /* \"#utility.yul\":3426:3450   */\n      tag_249\n      jump\t// in\n    tag_321:\n        /* \"#utility.yul\":3421:3424   */\n      dup3\n        /* \"#utility.yul\":3414:3451   */\n      mstore\n        /* \"#utility.yul\":3339:3457   */\n      pop\n      pop\n      jump\t// out\n        /* \"#utility.yul\":3463:3685   */\n    tag_37:\n        /* \"#utility.yul\":3556:3560   */\n      0x00\n        /* \"#utility.yul\":3594:3596   */\n      0x20\n        /* \"#utility.yul\":3583:3592   */\n      dup3\n        /* \"#utility.yul\":3579:3597   */\n      add\n        /* \"#utility.yul\":3571:3597   */\n      swap1\n      pop\n        /* \"#utility.yul\":3607:3678   */\n      tag_323\n        /* \"#utility.yul\":3675:3676   */\n      0x00\n        /* \"#utility.yul\":3664:3673   */\n      dup4\n        /* \"#utility.yul\":3660:3677   */\n      add\n        /* \"#utility.yul\":3651:3657   */\n      dup5\n        /* \"#utility.yul\":3607:3678   */\n      tag_254\n      jump\t// in\n    tag_323:\n        /* \"#utility.yul\":3463:3685   */\n      swap3\n      swap2\n      pop\n      pop\n      jump\t// out\n        /* \"#utility.yul\":3691:4310   */\n    tag_41:\n        /* \"#utility.yul\":3768:3774   */\n      0x00\n        /* \"#utility.yul\":3776:3782   */\n      0x00\n        /* \"#utility.yul\":3784:3790   */\n      0x00\n        /* \"#utility.yul\":3833:3835   */\n      0x60\n        /* \"#utility.yul\":3821:3830   */\n      dup5\n        /* \"#utility.yul\":3812:3819   */\n      dup7\n        /* \"#utility.yul\":3808:3831   */\n      sub\n        /* \"#utility.yul\":3804:3836   */\n      slt\n        /* \"#utility.yul\":3801:3920   */\n      iszero\n      tag_325\n      jumpi\n        /* \"#utility.yul\":3839:3918   */\n      tag_326\n      tag_243\n      jump\t// in\n    tag_326:\n        /* \"#utility.yul\":3801:3920   */\n    tag_325:\n        /* \"#utility.yul\":3959:3960   */\n      0x00\n        /* \"#utility.yul\":3984:4037   */\n      tag_327\n        /* \"#utility.yul\":4029:4036   */\n      dup7\n        /* \"#utility.yul\":4020:4026   */\n      dup3\n        /* \"#utility.yul\":4009:4018   */\n      dup8\n        /* \"#utility.yul\":4005:4027   */\n      add\n        /* \"#utility.yul\":3984:4037   */\n      tag_248\n      jump\t// in\n    tag_327:\n        /* \"#utility.yul\":3974:4037   */\n      swap4\n      pop\n        /* \"#utility.yul\":3930:4047   */\n      pop\n        /* \"#utility.yul\":4086:4088   */\n      0x20\n        /* \"#utility.yul\":4112:4165   */\n      tag_328\n        /* \"#utility.yul\":4157:4164   */\n      dup7\n        /* \"#utility.yul\":4148:4154   */\n      dup3\n        /* \"#utility.yul\":4137:4146   */\n      dup8\n        /* \"#utility.yul\":4133:4155   */\n      add\n        /* \"#utility.yul\":4112:4165   */\n      tag_248\n      jump\t// in\n    tag_328:\n        /* \"#utility.yul\":4102:4165   */\n      swap3\n      pop\n        /* \"#utility.yul\":4057:4175   */\n      pop\n        /* \"#utility.yul\":4214:4216   */\n      0x40\n        /* \"#utility.yul\":4240:4293   */\n      tag_329\n        /* \"#utility.yul\":4285:4292   */\n      dup7\n        /* \"#utility.yul\":4276:4282   */\n      dup3\n        /* \"#utility.yul\":4265:4274   */\n      dup8\n        /* \"#utility.yul\":4261:4283   */\n      add\n        /* \"#utility.yul\":4240:4293   */\n      tag_251\n      jump\t// in\n    tag_329:\n        /* \"#utility.yul\":4230:4293   */\n      swap2\n      pop\n        /* \"#utility.yul\":4185:4303   */\n      pop\n        /* \"#utility.yul\":3691:4310   */\n      swap3\n      pop\n      swap3\n      pop\n      swap3\n      jump\t// out\n        /* \"#utility.yul\":4316:4402   */\n    tag_255:\n        /* \"#utility.yul\":4351:4358   */\n      0x00\n        /* \"#utility.yul\":4391:4395   */\n      0xff\n        /* \"#utility.yul\":4384:4389   */\n      dup3\n        /* \"#utility.yul\":4380:4396   */\n      and\n        /* \"#utility.yul\":4369:4396   */\n      swap1\n      pop\n        /* \"#utility.yul\":4316:4402   */\n      swap2\n      swap1\n      pop\n      jump\t// out\n        /* \"#utility.yul\":4408:4520   */\n    tag_256:\n        /* \"#utility.yul\":4491:4513   */\n      tag_332\n        /* \"#utility.yul\":4507:4512   */\n      dup2\n        /* \"#utility.yul\":4491:4513   */\n      tag_255\n      jump\t// in\n    tag_332:\n        /* \"#utility.yul\":4486:4489   */\n      dup3\n        /* \"#utility.yul\":4479:4514   */\n      mstore\n        /* \"#utility.yul\":4408:4520   */\n      pop\n      pop\n      jump\t// out\n        /* \"#utility.yul\":4526:4740   */\n    tag_48:\n        /* \"#utility.yul\":4615:4619   */\n      0x00\n        /* \"#utility.yul\":4653:4655   */\n      0x20\n        /* \"#utility.yul\":4642:4651   */\n      dup3\n        /* \"#utility.yul\":4638:4656   */\n      add\n        /* \"#utility.yul\":4630:4656   */\n      swap1\n      pop\n        /* \"#utility.yul\":4666:4733   */\n      tag_334\n        /* \"#utility.yul\":4730:4731   */\n      0x00\n        /* \"#utility.yul\":4719:4728   */\n      dup4\n        /* \"#utility.yul\":4715:4732   */\n      add\n        /* \"#utility.yul\":4706:4712   */\n      dup5\n        /* \"#utility.yul\":4666:4733   */\n      tag_256\n      jump\t// in\n    tag_334:\n        /* \"#utility.yul\":4526:4740   */\n      swap3\n      swap2\n      pop\n      pop\n      jump\t// out\n        /* \"#utility.yul\":4746:4864   */\n    tag_257:\n        /* \"#utility.yul\":4833:4857   */\n      tag_336\n        /* \"#utility.yul\":4851:4856   */\n      dup2\n        /* \"#utility.yul\":4833:4857   */\n      tag_246\n      jump\t// in\n    tag_336:\n        /* \"#utility.yul\":4828:4831   */\n      dup3\n        /* \"#utility.yul\":4821:4858   */\n      mstore\n        /* \"#utility.yul\":4746:4864   */\n      pop\n      pop\n      jump\t// out\n        /* \"#utility.yul\":4870:5092   */\n    tag_53:\n        /* \"#utility.yul\":4963:4967   */\n      0x00\n        /* \"#utility.yul\":5001:5003   */\n      0x20\n        /* \"#utility.yul\":4990:4999   */\n      dup3\n        /* \"#utility.yul\":4986:5004   */\n      add\n        /* \"#utility.yul\":4978:5004   */\n      swap1\n      pop\n        /* \"#utility.yul\":5014:5085   */\n      tag_338\n        /* \"#utility.yul\":5082:5083   */\n      0x00\n        /* \"#utility.yul\":5071:5080   */\n      dup4\n        /* \"#utility.yul\":5067:5084   */\n      add\n        /* \"#utility.yul\":5058:5064   */\n      dup5\n        /* \"#utility.yul\":5014:5085   */\n      tag_257\n      jump\t// in\n    tag_338:\n        /* \"#utility.yul\":4870:5092   */\n      swap3\n      swap2\n      pop\n      pop\n      jump\t// out\n        /* \"#utility.yul\":5098:5427   */\n    tag_57:\n        /* \"#utility.yul\":5157:5163   */\n      0x00\n        /* \"#utility.yul\":5206:5208   */\n      0x20\n        /* \"#utility.yul\":5194:5203   */\n      dup3\n        /* \"#utility.yul\":5185:5192   */\n      dup5\n        /* \"#utility.yul\":5181:5204   */\n      sub\n        /* \"#utility.yul\":5177:5209   */\n      slt\n        /* \"#utility.yul\":5174:5293   */\n      iszero\n      tag_340\n      jumpi\n        /* \"#utility.yul\":5212:5291   */\n      tag_341\n      tag_243\n      jump\t// in\n    tag_341:\n        /* \"#utility.yul\":5174:5293   */\n    tag_340:\n        /* \"#utility.yul\":5332:5333   */\n      0x00\n        /* \"#utility.yul\":5357:5410   */\n      tag_342\n        /* \"#utility.yul\":5402:5409   */\n      dup5\n        /* \"#utility.yul\":5393:5399   */\n      dup3\n        /* \"#utility.yul\":5382:5391   */\n      dup6\n        /* \"#utility.yul\":5378:5400   */\n      add\n        /* \"#utility.yul\":5357:5410   */\n      tag_248\n      jump\t// in\n    tag_342:\n        /* \"#utility.yul\":5347:5410   */\n      swap2\n      pop\n        /* \"#utility.yul\":5303:5420   */\n      pop\n        /* \"#utility.yul\":5098:5427   */\n      swap3\n      swap2\n      pop\n      pop\n      jump\t// out\n        /* \"#utility.yul\":5433:5762   */\n    tag_71:\n        /* \"#utility.yul\":5492:5498   */\n      0x00\n        /* \"#utility.yul\":5541:5543   */\n      0x20\n        /* \"#utility.yul\":5529:5538   */\n      dup3\n        /* \"#utility.yul\":5520:5527   */\n      dup5\n        /* \"#utility.yul\":5516:5539   */\n      sub\n        /* \"#utility.yul\":5512:5544   */\n      slt\n        /* \"#utility.yul\":5509:5628   */\n      iszero\n      tag_344\n      jumpi\n        /* \"#utility.yul\":5547:5626   */\n      tag_345\n      tag_243\n      jump\t// in\n    tag_345:\n        /* \"#utility.yul\":5509:5628   */\n    tag_344:\n        /* \"#utility.yul\":5667:5668   */\n      0x00\n        /* \"#utility.yul\":5692:5745   */\n      tag_346\n        /* \"#utility.yul\":5737:5744   */\n      dup5\n        /* \"#utility.yul\":5728:5734   */\n      dup3\n        /* \"#utility.yul\":5717:5726   */\n      dup6\n        /* \"#utility.yul\":5713:5735   */\n      add\n        /* \"#utility.yul\":5692:5745   */\n      tag_251\n      jump\t// in\n    tag_346:\n        /* \"#utility.yul\":5682:5745   */\n      swap2\n      pop\n        /* \"#utility.yul\":5638:5755   */\n      pop\n        /* \"#utility.yul\":5433:5762   */\n      swap3\n      swap2\n      pop\n      pop\n      jump\t// out\n        /* \"#utility.yul\":5768:6100   */\n    tag_74:\n        /* \"#utility.yul\":5889:5893   */\n      0x00\n        /* \"#utility.yul\":5927:5929   */\n      0x40\n        /* \"#utility.yul\":5916:5925   */\n      dup3\n        /* \"#utility.yul\":5912:5930   */\n      add\n        /* \"#utility.yul\":5904:5930   */\n      swap1\n      pop\n        /* \"#utility.yul\":5940:6011   */\n      tag_348\n        /* \"#utility.yul\":6008:6009   */\n      0x00\n        /* \"#utility.yul\":5997:6006   */\n      dup4\n        /* \"#utility.yul\":5993:6010   */\n      add\n        /* \"#utility.yul\":5984:5990   */\n      dup6\n        /* \"#utility.yul\":5940:6011   */\n      tag_254\n      jump\t// in\n    tag_348:\n        /* \"#utility.yul\":6021:6093   */\n      tag_349\n        /* \"#utility.yul\":6089:6091   */\n      0x20\n        /* \"#utility.yul\":6078:6087   */\n      dup4\n        /* \"#utility.yul\":6074:6092   */\n      add\n        /* \"#utility.yul\":6065:6071   */\n      dup5\n        /* \"#utility.yul\":6021:6093   */\n      tag_254\n      jump\t// in\n    tag_349:\n        /* \"#utility.yul\":5768:6100   */\n      swap4\n      swap3\n      pop\n      pop\n      pop\n      jump\t// out\n        /* \"#utility.yul\":6106:6580   */\n    tag_77:\n        /* \"#utility.yul\":6174:6180   */\n      0x00\n        /* \"#utility.yul\":6182:6188   */\n      0x00\n        /* \"#utility.yul\":6231:6233   */\n      0x40\n        /* \"#utility.yul\":6219:6228   */\n      dup4\n        /* \"#utility.yul\":6210:6217   */\n      dup6\n        /* \"#utility.yul\":6206:6229   */\n      sub\n        /* \"#utility.yul\":6202:6234   */\n      slt\n        /* \"#utility.yul\":6199:6318   */\n      iszero\n      tag_351\n      jumpi\n        /* \"#utility.yul\":6237:6316   */\n      tag_352\n      tag_243\n      jump\t// in\n    tag_352:\n        /* \"#utility.yul\":6199:6318   */\n    tag_351:\n        /* \"#utility.yul\":6357:6358   */\n      0x00\n        /* \"#utility.yul\":6382:6435   */\n      tag_353\n        /* \"#utility.yul\":6427:6434   */\n      dup6\n        /* \"#utility.yul\":6418:6424   */\n      dup3\n        /* \"#utility.yul\":6407:6416   */\n      dup7\n        /* \"#utility.yul\":6403:6425   */\n      add\n        /* \"#utility.yul\":6382:6435   */\n      tag_251\n      jump\t// in\n    tag_353:\n        /* \"#utility.yul\":6372:6435   */\n      swap3\n      pop\n        /* \"#utility.yul\":6328:6445   */\n      pop\n        /* \"#utility.yul\":6484:6486   */\n      0x20\n        /* \"#utility.yul\":6510:6563   */\n      tag_354\n        /* \"#utility.yul\":6555:6562   */\n      dup6\n        /* \"#utility.yul\":6546:6552   */\n      dup3\n        /* \"#utility.yul\":6535:6544   */\n      dup7\n        /* \"#utility.yul\":6531:6553   */\n      add\n        /* \"#utility.yul\":6510:6563   */\n      tag_251\n      jump\t// in\n    tag_354:\n        /* \"#utility.yul\":6500:6563   */\n      swap2\n      pop\n        /* \"#utility.yul\":6455:6573   */\n      pop\n        /* \"#utility.yul\":6106:6580   */\n      swap3\n      pop\n      swap3\n      swap1\n      pop\n      jump\t// out\n        /* \"#utility.yul\":6586:7060   */\n    tag_91:\n        /* \"#utility.yul\":6654:6660   */\n      0x00\n        /* \"#utility.yul\":6662:6668   */\n      0x00\n        /* \"#utility.yul\":6711:6713   */\n      0x40\n        /* \"#utility.yul\":6699:6708   */\n      dup4\n        /* \"#utility.yul\":6690:6697   */\n      dup6\n        /* \"#utility.yul\":6686:6709   */\n      sub\n        /* \"#utility.yul\":6682:6714   */\n      slt\n        /* \"#utility.yul\":6679:6798   */\n      iszero\n      tag_356\n      jumpi\n        /* \"#utility.yul\":6717:6796   */\n      tag_357\n      tag_243\n      jump\t// in\n    tag_357:\n        /* \"#utility.yul\":6679:6798   */\n    tag_356:\n        /* \"#utility.yul\":6837:6838   */\n      0x00\n        /* \"#utility.yul\":6862:6915   */\n      tag_358\n        /* \"#utility.yul\":6907:6914   */\n      dup6\n        /* \"#utility.yul\":6898:6904   */\n      dup3\n        /* \"#utility.yul\":6887:6896   */\n      dup7\n        /* \"#utility.yul\":6883:6905   */\n      add\n        /* \"#utility.yul\":6862:6915   */\n      tag_248\n      jump\t// in\n    tag_358:\n        /* \"#utility.yul\":6852:6915   */\n      swap3\n      pop\n        /* \"#utility.yul\":6808:6925   */\n      pop\n        /* \"#utility.yul\":6964:6966   */\n      0x20\n        /* \"#utility.yul\":6990:7043   */\n      tag_359\n        /* \"#utility.yul\":7035:7042   */\n      dup6\n        /* \"#utility.yul\":7026:7032   */\n      dup3\n        /* \"#utility.yul\":7015:7024   */\n      dup7\n        /* \"#utility.yul\":7011:7033   */\n      add\n        /* \"#utility.yul\":6990:7043   */\n      tag_248\n      jump\t// in\n    tag_359:\n        /* \"#utility.yul\":6980:7043   */\n      swap2\n      pop\n        /* \"#utility.yul\":6935:7053   */\n      pop\n        /* \"#utility.yul\":6586:7060   */\n      swap3\n      pop\n      swap3\n      swap1\n      pop\n      jump\t// out\n        /* \"#utility.yul\":7066:7246   */\n    tag_258:\n        /* \"#utility.yul\":7114:7191   */\n      0x4e487b7100000000000000000000000000000000000000000000000000000000\n        /* \"#utility.yul\":7111:7112   */\n      0x00\n        /* \"#utility.yul\":7104:7192   */\n      mstore\n        /* \"#utility.yul\":7211:7215   */\n      0x22\n        /* \"#utility.yul\":7208:7209   */\n      0x04\n        /* \"#utility.yul\":7201:7216   */\n      mstore\n        /* \"#utility.yul\":7235:7239   */\n      0x24\n        /* \"#utility.yul\":7232:7233   */\n      0x00\n        /* \"#utility.yul\":7225:7240   */\n      revert\n        /* \"#utility.yul\":7252:7572   */\n    tag_104:\n        /* \"#utility.yul\":7296:7302   */\n      0x00\n        /* \"#utility.yul\":7333:7334   */\n      0x02\n        /* \"#utility.yul\":7327:7331   */\n      dup3\n        /* \"#utility.yul\":7323:7335   */\n      div\n        /* \"#utility.yul\":7313:7335   */\n      swap1\n      pop\n        /* \"#utility.yul\":7380:7381   */\n      0x01\n        /* \"#utility.yul\":7374:7378   */\n      dup3\n        /* \"#utility.yul\":7370:7382   */\n      and\n        /* \"#utility.yul\":7401:7419   */\n      dup1\n        /* \"#utility.yul\":7391:7472   */\n      tag_362\n      jumpi\n        /* \"#utility.yul\":7457:7461   */\n      0x7f\n        /* \"#utility.yul\":7449:7455   */\n      dup3\n        /* \"#utility.yul\":7445:7462   */\n      and\n        /* \"#utility.yul\":7435:7462   */\n      swap2\n      pop\n        /* \"#utility.yul\":7391:7472   */\n    tag_362:\n        /* \"#utility.yul\":7519:7521   */\n      0x20\n        /* \"#utility.yul\":7511:7517   */\n      dup3\n        /* \"#utility.yul\":7508:7522   */\n      lt\n        /* \"#utility.yul\":7488:7506   */\n      dup2\n        /* \"#utility.yul\":7485:7523   */\n      sub\n        /* \"#utility.yul\":7482:7566   */\n      tag_363\n      jumpi\n        /* \"#utility.yul\":7538:7556   */\n      tag_364\n      tag_258\n      jump\t// in\n    tag_364:\n        /* \"#utility.yul\":7482:7566   */\n    tag_363:\n        /* \"#utility.yul\":7303:7572   */\n      pop\n        /* \"#utility.yul\":7252:7572   */\n      swap2\n      swap1\n      pop\n      jump\t// out\n        /* \"#utility.yul\":7578:7805   */\n    tag_259:\n        /* \"#utility.yul\":7718:7752   */\n      0x45524332303a207472616e7366657220616d6f756e7420657863656564732061\n        /* \"#utility.yul\":7714:7715   */\n      0x00\n        /* \"#utility.yul\":7706:7712   */\n      dup3\n        /* \"#utility.yul\":7702:7716   */\n      add\n        /* \"#utility.yul\":7695:7753   */\n      mstore\n        /* \"#utility.yul\":7787:7797   */\n      0x6c6c6f77616e6365000000000000000000000000000000000000000000000000\n        /* \"#utility.yul\":7782:7784   */\n      0x20\n        /* \"#utility.yul\":7774:7780   */\n      dup3\n        /* \"#utility.yul\":7770:7785   */\n      add\n        /* \"#utility.yul\":7763:7798   */\n      mstore\n        /* \"#utility.yul\":7578:7805   */\n      pop\n      jump\t// out\n        /* \"#utility.yul\":7811:8177   */\n    tag_260:\n        /* \"#utility.yul\":7953:7956   */\n      0x00\n        /* \"#utility.yul\":7974:8041   */\n      tag_367\n        /* \"#utility.yul\":8038:8040   */\n      0x28\n        /* \"#utility.yul\":8033:8036   */\n      dup4\n        /* \"#utility.yul\":7974:8041   */\n      tag_238\n      jump\t// in\n    tag_367:\n        /* \"#utility.yul\":7967:8041   */\n      swap2\n      pop\n        /* \"#utility.yul\":8050:8143   */\n      tag_368\n        /* \"#utility.yul\":8139:8142   */\n      dup3\n        /* \"#utility.yul\":8050:8143   */\n      tag_259\n      jump\t// in\n    tag_368:\n        /* \"#utility.yul\":8168:8170   */\n      0x40\n        /* \"#utility.yul\":8163:8166   */\n      dup3\n        /* \"#utility.yul\":8159:8171   */\n      add\n        /* \"#utility.yul\":8152:8171   */\n      swap1\n      pop\n        /* \"#utility.yul\":7811:8177   */\n      swap2\n      swap1\n      pop\n      jump\t// out\n        /* \"#utility.yul\":8183:8602   */\n    tag_119:\n        /* \"#utility.yul\":8349:8353   */\n      0x00\n        /* \"#utility.yul\":8387:8389   */\n      0x20\n        /* \"#utility.yul\":8376:8385   */\n      dup3\n        /* \"#utility.yul\":8372:8390   */\n      add\n        /* \"#utility.yul\":8364:8390   */\n      swap1\n      pop\n        /* \"#utility.yul\":8436:8445   */\n      dup2\n        /* \"#utility.yul\":8430:8434   */\n      dup2\n        /* \"#utility.yul\":8426:8446   */\n      sub\n        /* \"#utility.yul\":8422:8423   */\n      0x00\n        /* \"#utility.yul\":8411:8420   */\n      dup4\n        /* \"#utility.yul\":8407:8424   */\n      add\n        /* \"#utility.yul\":8400:8447   */\n      mstore\n        /* \"#utility.yul\":8464:8595   */\n      tag_370\n        /* \"#utility.yul\":8590:8594   */\n      dup2\n        /* \"#utility.yul\":8464:8595   */\n      tag_260\n      jump\t// in\n    tag_370:\n        /* \"#utility.yul\":8456:8595   */\n      swap1\n      pop\n        /* \"#utility.yul\":8183:8602   */\n      swap2\n      swap1\n      pop\n      jump\t// out\n        /* \"#utility.yul\":8608:8788   */\n    tag_261:\n        /* \"#utility.yul\":8656:8733   */\n      0x4e487b7100000000000000000000000000000000000000000000000000000000\n        /* \"#utility.yul\":8653:8654   */\n      0x00\n        /* \"#utility.yul\":8646:8734   */\n      mstore\n        /* \"#utility.yul\":8753:8757   */\n      0x11\n        /* \"#utility.yul\":8750:8751   */\n      0x04\n        /* \"#utility.yul\":8743:8758   */\n      mstore\n        /* \"#utility.yul\":8777:8781   */\n      0x24\n        /* \"#utility.yul\":8774:8775   */\n      0x00\n        /* \"#utility.yul\":8767:8782   */\n      revert\n        /* \"#utility.yul\":8794:8985   */\n    tag_125:\n        /* \"#utility.yul\":8834:8837   */\n      0x00\n        /* \"#utility.yul\":8853:8873   */\n      tag_373\n        /* \"#utility.yul\":8871:8872   */\n      dup3\n        /* \"#utility.yul\":8853:8873   */\n      tag_249\n      jump\t// in\n    tag_373:\n        /* \"#utility.yul\":8848:8873   */\n      swap2\n      pop\n        /* \"#utility.yul\":8887:8907   */\n      tag_374\n        /* \"#utility.yul\":8905:8906   */\n      dup4\n        /* \"#utility.yul\":8887:8907   */\n      tag_249\n      jump\t// in\n    tag_374:\n        /* \"#utility.yul\":8882:8907   */\n      swap3\n      pop\n        /* \"#utility.yul\":8930:8931   */\n      dup3\n        /* \"#utility.yul\":8927:8928   */\n      dup3\n        /* \"#utility.yul\":8923:8932   */\n      add\n        /* \"#utility.yul\":8916:8932   */\n      swap1\n      pop\n        /* \"#utility.yul\":8951:8954   */\n      dup1\n        /* \"#utility.yul\":8948:8949   */\n      dup3\n        /* \"#utility.yul\":8945:8955   */\n      gt\n        /* \"#utility.yul\":8942:8978   */\n      iszero\n      tag_375\n      jumpi\n        /* \"#utility.yul\":8958:8976   */\n      tag_376\n      tag_261\n      jump\t// in\n    tag_376:\n        /* \"#utility.yul\":8942:8978   */\n    tag_375:\n        /* \"#utility.yul\":8794:8985   */\n      swap3\n      swap2\n      pop\n      pop\n      jump\t// out\n        /* \"#utility.yul\":8991:9212   */\n    tag_262:\n        /* \"#utility.yul\":9131:9165   */\n      0x496e73756666696369656e742062616c616e636520696e636c7564696e672074\n        /* \"#utility.yul\":9127:9128   */\n      0x00\n        /* \"#utility.yul\":9119:9125   */\n      dup3\n        /* \"#utility.yul\":9115:9129   */\n      add\n        /* \"#utility.yul\":9108:9166   */\n      mstore\n        /* \"#utility.yul\":9200:9204   */\n      0x6178000000000000000000000000000000000000000000000000000000000000\n        /* \"#utility.yul\":9195:9197   */\n      0x20\n        /* \"#utility.yul\":9187:9193   */\n      dup3\n        /* \"#utility.yul\":9183:9198   */\n      add\n        /* \"#utility.yul\":9176:9205   */\n      mstore\n        /* \"#utility.yul\":8991:9212   */\n      pop\n      jump\t// out\n        /* \"#utility.yul\":9218:9584   */\n    tag_263:\n        /* \"#utility.yul\":9360:9363   */\n      0x00\n        /* \"#utility.yul\":9381:9448   */\n      tag_379\n        /* \"#utility.yul\":9445:9447   */\n      0x22\n        /* \"#utility.yul\":9440:9443   */\n      dup4\n        /* \"#utility.yul\":9381:9448   */\n      tag_238\n      jump\t// in\n    tag_379:\n        /* \"#utility.yul\":9374:9448   */\n      swap2\n      pop\n        /* \"#utility.yul\":9457:9550   */\n      tag_380\n        /* \"#utility.yul\":9546:9549   */\n      dup3\n        /* \"#utility.yul\":9457:9550   */\n      tag_262\n      jump\t// in\n    tag_380:\n        /* \"#utility.yul\":9575:9577   */\n      0x40\n        /* \"#utility.yul\":9570:9573   */\n      dup3\n        /* \"#utility.yul\":9566:9578   */\n      add\n        /* \"#utility.yul\":9559:9578   */\n      swap1\n      pop\n        /* \"#utility.yul\":9218:9584   */\n      swap2\n      swap1\n      pop\n      jump\t// out\n        /* \"#utility.yul\":9590:10009   */\n    tag_129:\n        /* \"#utility.yul\":9756:9760   */\n      0x00\n        /* \"#utility.yul\":9794:9796   */\n      0x20\n        /* \"#utility.yul\":9783:9792   */\n      dup3\n        /* \"#utility.yul\":9779:9797   */\n      add\n        /* \"#utility.yul\":9771:9797   */\n      swap1\n      pop\n        /* \"#utility.yul\":9843:9852   */\n      dup2\n        /* \"#utility.yul\":9837:9841   */\n      dup2\n        /* \"#utility.yul\":9833:9853   */\n      sub\n        /* \"#utility.yul\":9829:9830   */\n      0x00\n        /* \"#utility.yul\":9818:9827   */\n      dup4\n        /* \"#utility.yul\":9814:9831   */\n      add\n        /* \"#utility.yul\":9807:9854   */\n      mstore\n        /* \"#utility.yul\":9871:10002   */\n      tag_382\n        /* \"#utility.yul\":9997:10001   */\n      dup2\n        /* \"#utility.yul\":9871:10002   */\n      tag_263\n      jump\t// in\n    tag_382:\n        /* \"#utility.yul\":9863:10002   */\n      swap1\n      pop\n        /* \"#utility.yul\":9590:10009   */\n      swap2\n      swap1\n      pop\n      jump\t// out\n        /* \"#utility.yul\":10015:10209   */\n    tag_135:\n        /* \"#utility.yul\":10055:10059   */\n      0x00\n        /* \"#utility.yul\":10075:10095   */\n      tag_384\n        /* \"#utility.yul\":10093:10094   */\n      dup3\n        /* \"#utility.yul\":10075:10095   */\n      tag_249\n      jump\t// in\n    tag_384:\n        /* \"#utility.yul\":10070:10095   */\n      swap2\n      pop\n        /* \"#utility.yul\":10109:10129   */\n      tag_385\n        /* \"#utility.yul\":10127:10128   */\n      dup4\n        /* \"#utility.yul\":10109:10129   */\n      tag_249\n      jump\t// in\n    tag_385:\n        /* \"#utility.yul\":10104:10129   */\n      swap3\n      pop\n        /* \"#utility.yul\":10153:10154   */\n      dup3\n        /* \"#utility.yul\":10150:10151   */\n      dup3\n        /* \"#utility.yul\":10146:10155   */\n      sub\n        /* \"#utility.yul\":10138:10155   */\n      swap1\n      pop\n        /* \"#utility.yul\":10177:10178   */\n      dup2\n        /* \"#utility.yul\":10171:10175   */\n      dup2\n        /* \"#utility.yul\":10168:10179   */\n      gt\n        /* \"#utility.yul\":10165:10202   */\n      iszero\n      tag_386\n      jumpi\n        /* \"#utility.yul\":10182:10200   */\n      tag_387\n      tag_261\n      jump\t// in\n    tag_387:\n        /* \"#utility.yul\":10165:10202   */\n    tag_386:\n        /* \"#utility.yul\":10015:10209   */\n      swap3\n      swap2\n      pop\n      pop\n      jump\t// out\n        /* \"#utility.yul\":10215:10387   */\n    tag_264:\n        /* \"#utility.yul\":10355:10379   */\n      0x4c697175696469747920706f6f6c206e6f742073657400000000000000000000\n        /* \"#utility.yul\":10351:10352   */\n      0x00\n        /* \"#utility.yul\":10343:10349   */\n      dup3\n        /* \"#utility.yul\":10339:10353   */\n      add\n        /* \"#utility.yul\":10332:10380   */\n      mstore\n        /* \"#utility.yul\":10215:10387   */\n      pop\n      jump\t// out\n        /* \"#utility.yul\":10393:10759   */\n    tag_265:\n        /* \"#utility.yul\":10535:10538   */\n      0x00\n        /* \"#utility.yul\":10556:10623   */\n      tag_390\n        /* \"#utility.yul\":10620:10622   */\n      0x16\n        /* \"#utility.yul\":10615:10618   */\n      dup4\n        /* \"#utility.yul\":10556:10623   */\n      tag_238\n      jump\t// in\n    tag_390:\n        /* \"#utility.yul\":10549:10623   */\n      swap2\n      pop\n        /* \"#utility.yul\":10632:10725   */\n      tag_391\n        /* \"#utility.yul\":10721:10724   */\n      dup3\n        /* \"#utility.yul\":10632:10725   */\n      tag_264\n      jump\t// in\n    tag_391:\n        /* \"#utility.yul\":10750:10752   */\n      0x20\n        /* \"#utility.yul\":10745:10748   */\n      dup3\n        /* \"#utility.yul\":10741:10753   */\n      add\n        /* \"#utility.yul\":10734:10753   */\n      swap1\n      pop\n        /* \"#utility.yul\":10393:10759   */\n      swap2\n      swap1\n      pop\n      jump\t// out\n        /* \"#utility.yul\":10765:11184   */\n    tag_147:\n        /* \"#utility.yul\":10931:10935   */\n      0x00\n        /* \"#utility.yul\":10969:10971   */\n      0x20\n        /* \"#utility.yul\":10958:10967   */\n      dup3\n        /* \"#utility.yul\":10954:10972   */\n      add\n        /* \"#utility.yul\":10946:10972   */\n      swap1\n      pop\n        /* \"#utility.yul\":11018:11027   */\n      dup2\n        /* \"#utility.yul\":11012:11016   */\n      dup2\n        /* \"#utility.yul\":11008:11028   */\n      sub\n        /* \"#utility.yul\":11004:11005   */\n      0x00\n        /* \"#utility.yul\":10993:11002   */\n      dup4\n        /* \"#utility.yul\":10989:11006   */\n      add\n        /* \"#utility.yul\":10982:11029   */\n      mstore\n        /* \"#utility.yul\":11046:11177   */\n      tag_393\n        /* \"#utility.yul\":11172:11176   */\n      dup2\n        /* \"#utility.yul\":11046:11177   */\n      tag_265\n      jump\t// in\n    tag_393:\n        /* \"#utility.yul\":11038:11177   */\n      swap1\n      pop\n        /* \"#utility.yul\":10765:11184   */\n      swap2\n      swap1\n      pop\n      jump\t// out\n        /* \"#utility.yul\":11190:11632   */\n    tag_149:\n        /* \"#utility.yul\":11339:11343   */\n      0x00\n        /* \"#utility.yul\":11377:11379   */\n      0x60\n        /* \"#utility.yul\":11366:11375   */\n      dup3\n        /* \"#utility.yul\":11362:11380   */\n      add\n        /* \"#utility.yul\":11354:11380   */\n      swap1\n      pop\n        /* \"#utility.yul\":11390:11461   */\n      tag_395\n        /* \"#utility.yul\":11458:11459   */\n      0x00\n        /* \"#utility.yul\":11447:11456   */\n      dup4\n        /* \"#utility.yul\":11443:11460   */\n      add\n        /* \"#utility.yul\":11434:11440   */\n      dup7\n        /* \"#utility.yul\":11390:11461   */\n      tag_257\n      jump\t// in\n    tag_395:\n        /* \"#utility.yul\":11471:11543   */\n      tag_396\n        /* \"#utility.yul\":11539:11541   */\n      0x20\n        /* \"#utility.yul\":11528:11537   */\n      dup4\n        /* \"#utility.yul\":11524:11542   */\n      add\n        /* \"#utility.yul\":11515:11521   */\n      dup6\n        /* \"#utility.yul\":11471:11543   */\n      tag_257\n      jump\t// in\n    tag_396:\n        /* \"#utility.yul\":11553:11625   */\n      tag_397\n        /* \"#utility.yul\":11621:11623   */\n      0x40\n        /* \"#utility.yul\":11610:11619   */\n      dup4\n        /* \"#utility.yul\":11606:11624   */\n      add\n        /* \"#utility.yul\":11597:11603   */\n      dup5\n        /* \"#utility.yul\":11553:11625   */\n      tag_254\n      jump\t// in\n    tag_397:\n        /* \"#utility.yul\":11190:11632   */\n      swap5\n      swap4\n      pop\n      pop\n      pop\n      pop\n      jump\t// out\n        /* \"#utility.yul\":11638:11754   */\n    tag_266:\n        /* \"#utility.yul\":11708:11729   */\n      tag_399\n        /* \"#utility.yul\":11723:11728   */\n      dup2\n        /* \"#utility.yul\":11708:11729   */\n      tag_252\n      jump\t// in\n    tag_399:\n        /* \"#utility.yul\":11701:11706   */\n      dup2\n        /* \"#utility.yul\":11698:11730   */\n      eq\n        /* \"#utility.yul\":11688:11748   */\n      tag_400\n      jumpi\n        /* \"#utility.yul\":11744:11745   */\n      0x00\n        /* \"#utility.yul\":11741:11742   */\n      0x00\n        /* \"#utility.yul\":11734:11746   */\n      revert\n        /* \"#utility.yul\":11688:11748   */\n    tag_400:\n        /* \"#utility.yul\":11638:11754   */\n      pop\n      jump\t// out\n        /* \"#utility.yul\":11760:11897   */\n    tag_267:\n        /* \"#utility.yul\":11814:11819   */\n      0x00\n        /* \"#utility.yul\":11845:11851   */\n      dup2\n        /* \"#utility.yul\":11839:11852   */\n      mload\n        /* \"#utility.yul\":11830:11852   */\n      swap1\n      pop\n        /* \"#utility.yul\":11861:11891   */\n      tag_402\n        /* \"#utility.yul\":11885:11890   */\n      dup2\n        /* \"#utility.yul\":11861:11891   */\n      tag_266\n      jump\t// in\n    tag_402:\n        /* \"#utility.yul\":11760:11897   */\n      swap3\n      swap2\n      pop\n      pop\n      jump\t// out\n        /* \"#utility.yul\":11903:12248   */\n    tag_153:\n        /* \"#utility.yul\":11970:11976   */\n      0x00\n        /* \"#utility.yul\":12019:12021   */\n      0x20\n        /* \"#utility.yul\":12007:12016   */\n      dup3\n        /* \"#utility.yul\":11998:12005   */\n      dup5\n        /* \"#utility.yul\":11994:12017   */\n      sub\n        /* \"#utility.yul\":11990:12022   */\n      slt\n        /* \"#utility.yul\":11987:12106   */\n      iszero\n      tag_404\n      jumpi\n        /* \"#utility.yul\":12025:12104   */\n      tag_405\n      tag_243\n      jump\t// in\n    tag_405:\n        /* \"#utility.yul\":11987:12106   */\n    tag_404:\n        /* \"#utility.yul\":12145:12146   */\n      0x00\n        /* \"#utility.yul\":12170:12231   */\n      tag_406\n        /* \"#utility.yul\":12223:12230   */\n      dup5\n        /* \"#utility.yul\":12214:12220   */\n      dup3\n        /* \"#utility.yul\":12203:12212   */\n      dup6\n        /* \"#utility.yul\":12199:12221   */\n      add\n        /* \"#utility.yul\":12170:12231   */\n      tag_267\n      jump\t// in\n    tag_406:\n        /* \"#utility.yul\":12160:12231   */\n      swap2\n      pop\n        /* \"#utility.yul\":12116:12241   */\n      pop\n        /* \"#utility.yul\":11903:12248   */\n      swap3\n      swap2\n      pop\n      pop\n      jump\t// out\n        /* \"#utility.yul\":12254:12397   */\n    tag_268:\n        /* \"#utility.yul\":12311:12316   */\n      0x00\n        /* \"#utility.yul\":12342:12348   */\n      dup2\n        /* \"#utility.yul\":12336:12349   */\n      mload\n        /* \"#utility.yul\":12327:12349   */\n      swap1\n      pop\n        /* \"#utility.yul\":12358:12391   */\n      tag_408\n        /* \"#utility.yul\":12385:12390   */\n      dup2\n        /* \"#utility.yul\":12358:12391   */\n      tag_250\n      jump\t// in\n    tag_408:\n        /* \"#utility.yul\":12254:12397   */\n      swap3\n      swap2\n      pop\n      pop\n      jump\t// out\n        /* \"#utility.yul\":12403:12910   */\n    tag_158:\n        /* \"#utility.yul\":12482:12488   */\n      0x00\n        /* \"#utility.yul\":12490:12496   */\n      0x00\n        /* \"#utility.yul\":12539:12541   */\n      0x40\n        /* \"#utility.yul\":12527:12536   */\n      dup4\n        /* \"#utility.yul\":12518:12525   */\n      dup6\n        /* \"#utility.yul\":12514:12537   */\n      sub\n        /* \"#utility.yul\":12510:12542   */\n      slt\n        /* \"#utility.yul\":12507:12626   */\n      iszero\n      tag_410\n      jumpi\n        /* \"#utility.yul\":12545:12624   */\n      tag_411\n      tag_243\n      jump\t// in\n    tag_411:\n        /* \"#utility.yul\":12507:12626   */\n    tag_410:\n        /* \"#utility.yul\":12665:12666   */\n      0x00\n        /* \"#utility.yul\":12690:12754   */\n      tag_412\n        /* \"#utility.yul\":12746:12753   */\n      dup6\n        /* \"#utility.yul\":12737:12743   */\n      dup3\n        /* \"#utility.yul\":12726:12735   */\n      dup7\n        /* \"#utility.yul\":12722:12744   */\n      add\n        /* \"#utility.yul\":12690:12754   */\n      tag_268\n      jump\t// in\n    tag_412:\n        /* \"#utility.yul\":12680:12754   */\n      swap3\n      pop\n        /* \"#utility.yul\":12636:12764   */\n      pop\n        /* \"#utility.yul\":12803:12805   */\n      0x20\n        /* \"#utility.yul\":12829:12893   */\n      tag_413\n        /* \"#utility.yul\":12885:12892   */\n      dup6\n        /* \"#utility.yul\":12876:12882   */\n      dup3\n        /* \"#utility.yul\":12865:12874   */\n      dup7\n        /* \"#utility.yul\":12861:12883   */\n      add\n        /* \"#utility.yul\":12829:12893   */\n      tag_268\n      jump\t// in\n    tag_413:\n        /* \"#utility.yul\":12819:12893   */\n      swap2\n      pop\n        /* \"#utility.yul\":12774:12903   */\n      pop\n        /* \"#utility.yul\":12403:12910   */\n      swap3\n      pop\n      swap3\n      swap1\n      pop\n      jump\t// out\n        /* \"#utility.yul\":12916:13085   */\n    tag_269:\n        /* \"#utility.yul\":13056:13077   */\n      0x45544820616d6f756e74206d69736d6174636800000000000000000000000000\n        /* \"#utility.yul\":13052:13053   */\n      0x00\n        /* \"#utility.yul\":13044:13050   */\n      dup3\n        /* \"#utility.yul\":13040:13054   */\n      add\n        /* \"#utility.yul\":13033:13078   */\n      mstore\n        /* \"#utility.yul\":12916:13085   */\n      pop\n      jump\t// out\n        /* \"#utility.yul\":13091:13457   */\n    tag_270:\n        /* \"#utility.yul\":13233:13236   */\n      0x00\n        /* \"#utility.yul\":13254:13321   */\n      tag_416\n        /* \"#utility.yul\":13318:13320   */\n      0x13\n        /* \"#utility.yul\":13313:13316   */\n      dup4\n        /* \"#utility.yul\":13254:13321   */\n      tag_238\n      jump\t// in\n    tag_416:\n        /* \"#utility.yul\":13247:13321   */\n      swap2\n      pop\n        /* \"#utility.yul\":13330:13423   */\n      tag_417\n        /* \"#utility.yul\":13419:13422   */\n      dup3\n        /* \"#utility.yul\":13330:13423   */\n      tag_269\n      jump\t// in\n    tag_417:\n        /* \"#utility.yul\":13448:13450   */\n      0x20\n        /* \"#utility.yul\":13443:13446   */\n      dup3\n        /* \"#utility.yul\":13439:13451   */\n      add\n        /* \"#utility.yul\":13432:13451   */\n      swap1\n      pop\n        /* \"#utility.yul\":13091:13457   */\n      swap2\n      swap1\n      pop\n      jump\t// out\n        /* \"#utility.yul\":13463:13882   */\n    tag_164:\n        /* \"#utility.yul\":13629:13633   */\n      0x00\n        /* \"#utility.yul\":13667:13669   */\n      0x20\n        /* \"#utility.yul\":13656:13665   */\n      dup3\n        /* \"#utility.yul\":13652:13670   */\n      add\n        /* \"#utility.yul\":13644:13670   */\n      swap1\n      pop\n        /* \"#utility.yul\":13716:13725   */\n      dup2\n        /* \"#utility.yul\":13710:13714   */\n      dup2\n        /* \"#utility.yul\":13706:13726   */\n      sub\n        /* \"#utility.yul\":13702:13703   */\n      0x00\n        /* \"#utility.yul\":13691:13700   */\n      dup4\n        /* \"#utility.yul\":13687:13704   */\n      add\n        /* \"#utility.yul\":13680:13727   */\n      mstore\n        /* \"#utility.yul\":13744:13875   */\n      tag_419\n        /* \"#utility.yul\":13870:13874   */\n      dup2\n        /* \"#utility.yul\":13744:13875   */\n      tag_270\n      jump\t// in\n    tag_419:\n        /* \"#utility.yul\":13736:13875   */\n      swap1\n      pop\n        /* \"#utility.yul\":13463:13882   */\n      swap2\n      swap1\n      pop\n      jump\t// out\n        /* \"#utility.yul\":13888:14035   */\n    tag_271:\n        /* \"#utility.yul\":13989:14000   */\n      0x00\n        /* \"#utility.yul\":14026:14029   */\n      dup2\n        /* \"#utility.yul\":14011:14029   */\n      swap1\n      pop\n        /* \"#utility.yul\":13888:14035   */\n      swap3\n      swap2\n      pop\n      pop\n      jump\t// out\n        /* \"#utility.yul\":14041:14155   */\n    tag_272:\n      pop\n      jump\t// out\n        /* \"#utility.yul\":14161:14559   */\n    tag_273:\n        /* \"#utility.yul\":14320:14323   */\n      0x00\n        /* \"#utility.yul\":14341:14424   */\n      tag_423\n        /* \"#utility.yul\":14422:14423   */\n      0x00\n        /* \"#utility.yul\":14417:14420   */\n      dup4\n        /* \"#utility.yul\":14341:14424   */\n      tag_271\n      jump\t// in\n    tag_423:\n        /* \"#utility.yul\":14334:14424   */\n      swap2\n      pop\n        /* \"#utility.yul\":14433:14526   */\n      tag_424\n        /* \"#utility.yul\":14522:14525   */\n      dup3\n        /* \"#utility.yul\":14433:14526   */\n      tag_272\n      jump\t// in\n    tag_424:\n        /* \"#utility.yul\":14551:14552   */\n      0x00\n        /* \"#utility.yul\":14546:14549   */\n      dup3\n        /* \"#utility.yul\":14542:14553   */\n      add\n        /* \"#utility.yul\":14535:14553   */\n      swap1\n      pop\n        /* \"#utility.yul\":14161:14559   */\n      swap2\n      swap1\n      pop\n      jump\t// out\n        /* \"#utility.yul\":14565:14944   */\n    tag_167:\n        /* \"#utility.yul\":14749:14752   */\n      0x00\n        /* \"#utility.yul\":14771:14918   */\n      tag_426\n        /* \"#utility.yul\":14914:14917   */\n      dup3\n        /* \"#utility.yul\":14771:14918   */\n      tag_273\n      jump\t// in\n    tag_426:\n        /* \"#utility.yul\":14764:14918   */\n      swap2\n      pop\n        /* \"#utility.yul\":14935:14938   */\n      dup2\n        /* \"#utility.yul\":14928:14938   */\n      swap1\n      pop\n        /* \"#utility.yul\":14565:14944   */\n      swap2\n      swap1\n      pop\n      jump\t// out\n        /* \"#utility.yul\":14950:15119   */\n    tag_274:\n        /* \"#utility.yul\":15090:15111   */\n      0x455448207472616e73666572206661696c656400000000000000000000000000\n        /* \"#utility.yul\":15086:15087   */\n      0x00\n        /* \"#utility.yul\":15078:15084   */\n      dup3\n        /* \"#utility.yul\":15074:15088   */\n      add\n        /* \"#utility.yul\":15067:15112   */\n      mstore\n        /* \"#utility.yul\":14950:15119   */\n      pop\n      jump\t// out\n        /* \"#utility.yul\":15125:15491   */\n    tag_275:\n        /* \"#utility.yul\":15267:15270   */\n      0x00\n        /* \"#utility.yul\":15288:15355   */\n      tag_429\n        /* \"#utility.yul\":15352:15354   */\n      0x13\n        /* \"#utility.yul\":15347:15350   */\n      dup4\n        /* \"#utility.yul\":15288:15355   */\n      tag_238\n      jump\t// in\n    tag_429:\n        /* \"#utility.yul\":15281:15355   */\n      swap2\n      pop\n        /* \"#utility.yul\":15364:15457   */\n      tag_430\n        /* \"#utility.yul\":15453:15456   */\n      dup3\n        /* \"#utility.yul\":15364:15457   */\n      tag_274\n      jump\t// in\n    tag_430:\n        /* \"#utility.yul\":15482:15484   */\n      0x20\n        /* \"#utility.yul\":15477:15480   */\n      dup3\n        /* \"#utility.yul\":15473:15485   */\n      add\n        /* \"#utility.yul\":15466:15485   */\n      swap1\n      pop\n        /* \"#utility.yul\":15125:15491   */\n      swap2\n      swap1\n      pop\n      jump\t// out\n        /* \"#utility.yul\":15497:15916   */\n    tag_173:\n        /* \"#utility.yul\":15663:15667   */\n      0x00\n        /* \"#utility.yul\":15701:15703   */\n      0x20\n        /* \"#utility.yul\":15690:15699   */\n      dup3\n        /* \"#utility.yul\":15686:15704   */\n      add\n        /* \"#utility.yul\":15678:15704   */\n      swap1\n      pop\n        /* \"#utility.yul\":15750:15759   */\n      dup2\n        /* \"#utility.yul\":15744:15748   */\n      dup2\n        /* \"#utility.yul\":15740:15760   */\n      sub\n        /* \"#utility.yul\":15736:15737   */\n      0x00\n        /* \"#utility.yul\":15725:15734   */\n      dup4\n        /* \"#utility.yul\":15721:15738   */\n      add\n        /* \"#utility.yul\":15714:15761   */\n      mstore\n        /* \"#utility.yul\":15778:15909   */\n      tag_432\n        /* \"#utility.yul\":15904:15908   */\n      dup2\n        /* \"#utility.yul\":15778:15909   */\n      tag_275\n      jump\t// in\n    tag_432:\n        /* \"#utility.yul\":15770:15909   */\n      swap1\n      pop\n        /* \"#utility.yul\":15497:15916   */\n      swap2\n      swap1\n      pop\n      jump\t// out\n        /* \"#utility.yul\":15922:16273   */\n    tag_178:\n        /* \"#utility.yul\":15992:15998   */\n      0x00\n        /* \"#utility.yul\":16041:16043   */\n      0x20\n        /* \"#utility.yul\":16029:16038   */\n      dup3\n        /* \"#utility.yul\":16020:16027   */\n      dup5\n        /* \"#utility.yul\":16016:16039   */\n      sub\n        /* \"#utility.yul\":16012:16044   */\n      slt\n        /* \"#utility.yul\":16009:16128   */\n      iszero\n      tag_434\n      jumpi\n        /* \"#utility.yul\":16047:16126   */\n      tag_435\n      tag_243\n      jump\t// in\n    tag_435:\n        /* \"#utility.yul\":16009:16128   */\n    tag_434:\n        /* \"#utility.yul\":16167:16168   */\n      0x00\n        /* \"#utility.yul\":16192:16256   */\n      tag_436\n        /* \"#utility.yul\":16248:16255   */\n      dup5\n        /* \"#utility.yul\":16239:16245   */\n      dup3\n        /* \"#utility.yul\":16228:16237   */\n      dup6\n        /* \"#utility.yul\":16224:16246   */\n      add\n        /* \"#utility.yul\":16192:16256   */\n      tag_268\n      jump\t// in\n    tag_436:\n        /* \"#utility.yul\":16182:16256   */\n      swap2\n      pop\n        /* \"#utility.yul\":16138:16266   */\n      pop\n        /* \"#utility.yul\":15922:16273   */\n      swap3\n      swap2\n      pop\n      pop\n      jump\t// out\n        /* \"#utility.yul\":16279:16461   */\n    tag_276:\n        /* \"#utility.yul\":16419:16453   */\n      0x5472616e73616374696f6e20616d6f756e742065786365656473206c696d6974\n        /* \"#utility.yul\":16415:16416   */\n      0x00\n        /* \"#utility.yul\":16407:16413   */\n      dup3\n        /* \"#utility.yul\":16403:16417   */\n      add\n        /* \"#utility.yul\":16396:16454   */\n      mstore\n        /* \"#utility.yul\":16279:16461   */\n      pop\n      jump\t// out\n        /* \"#utility.yul\":16467:16833   */\n    tag_277:\n        /* \"#utility.yul\":16609:16612   */\n      0x00\n        /* \"#utility.yul\":16630:16697   */\n      tag_439\n        /* \"#utility.yul\":16694:16696   */\n      0x20\n        /* \"#utility.yul\":16689:16692   */\n      dup4\n        /* \"#utility.yul\":16630:16697   */\n      tag_238\n      jump\t// in\n    tag_439:\n        /* \"#utility.yul\":16623:16697   */\n      swap2\n      pop\n        /* \"#utility.yul\":16706:16799   */\n      tag_440\n        /* \"#utility.yul\":16795:16798   */\n      dup3\n        /* \"#utility.yul\":16706:16799   */\n      tag_276\n      jump\t// in\n    tag_440:\n        /* \"#utility.yul\":16824:16826   */\n      0x20\n        /* \"#utility.yul\":16819:16822   */\n      dup3\n        /* \"#utility.yul\":16815:16827   */\n      add\n        /* \"#utility.yul\":16808:16827   */\n      swap1\n      pop\n        /* \"#utility.yul\":16467:16833   */\n      swap2\n      swap1\n      pop\n      jump\t// out\n        /* \"#utility.yul\":16839:17258   */\n    tag_197:\n        /* \"#utility.yul\":17005:17009   */\n      0x00\n        /* \"#utility.yul\":17043:17045   */\n      0x20\n        /* \"#utility.yul\":17032:17041   */\n      dup3\n        /* \"#utility.yul\":17028:17046   */\n      add\n        /* \"#utility.yul\":17020:17046   */\n      swap1\n      pop\n        /* \"#utility.yul\":17092:17101   */\n      dup2\n        /* \"#utility.yul\":17086:17090   */\n      dup2\n        /* \"#utility.yul\":17082:17102   */\n      sub\n        /* \"#utility.yul\":17078:17079   */\n      0x00\n        /* \"#utility.yul\":17067:17076   */\n      dup4\n        /* \"#utility.yul\":17063:17080   */\n      add\n        /* \"#utility.yul\":17056:17103   */\n      mstore\n        /* \"#utility.yul\":17120:17251   */\n      tag_442\n        /* \"#utility.yul\":17246:17250   */\n      dup2\n        /* \"#utility.yul\":17120:17251   */\n      tag_277\n      jump\t// in\n    tag_442:\n        /* \"#utility.yul\":17112:17251   */\n      swap1\n      pop\n        /* \"#utility.yul\":16839:17258   */\n      swap2\n      swap1\n      pop\n      jump\t// out\n        /* \"#utility.yul\":17264:17444   */\n    tag_278:\n        /* \"#utility.yul\":17312:17389   */\n      0x4e487b7100000000000000000000000000000000000000000000000000000000\n        /* \"#utility.yul\":17309:17310   */\n      0x00\n        /* \"#utility.yul\":17302:17390   */\n      mstore\n        /* \"#utility.yul\":17409:17413   */\n      0x12\n        /* \"#utility.yul\":17406:17407   */\n      0x04\n        /* \"#utility.yul\":17399:17414   */\n      mstore\n        /* \"#utility.yul\":17433:17437   */\n      0x24\n        /* \"#utility.yul\":17430:17431   */\n      0x00\n        /* \"#utility.yul\":17423:17438   */\n      revert\n        /* \"#utility.yul\":17450:17635   */\n    tag_199:\n        /* \"#utility.yul\":17490:17491   */\n      0x00\n        /* \"#utility.yul\":17507:17527   */\n      tag_445\n        /* \"#utility.yul\":17525:17526   */\n      dup3\n        /* \"#utility.yul\":17507:17527   */\n      tag_249\n      jump\t// in\n    tag_445:\n        /* \"#utility.yul\":17502:17527   */\n      swap2\n      pop\n        /* \"#utility.yul\":17541:17561   */\n      tag_446\n        /* \"#utility.yul\":17559:17560   */\n      dup4\n        /* \"#utility.yul\":17541:17561   */\n      tag_249\n      jump\t// in\n    tag_446:\n        /* \"#utility.yul\":17536:17561   */\n      swap3\n      pop\n        /* \"#utility.yul\":17580:17581   */\n      dup3\n        /* \"#utility.yul\":17570:17605   */\n      tag_447\n      jumpi\n        /* \"#utility.yul\":17585:17603   */\n      tag_448\n      tag_278\n      jump\t// in\n    tag_448:\n        /* \"#utility.yul\":17570:17605   */\n    tag_447:\n        /* \"#utility.yul\":17627:17628   */\n      dup3\n        /* \"#utility.yul\":17624:17625   */\n      dup3\n        /* \"#utility.yul\":17620:17629   */\n      div\n        /* \"#utility.yul\":17615:17629   */\n      swap1\n      pop\n        /* \"#utility.yul\":17450:17635   */\n      swap3\n      swap2\n      pop\n      pop\n      jump\t// out\n        /* \"#utility.yul\":17641:17823   */\n    tag_279:\n        /* \"#utility.yul\":17781:17815   */\n      0x4461696c79207472616e73616374696f6e206c696d6974206578636565646564\n        /* \"#utility.yul\":17777:17778   */\n      0x00\n        /* \"#utility.yul\":17769:17775   */\n      dup3\n        /* \"#utility.yul\":17765:17779   */\n      add\n        /* \"#utility.yul\":17758:17816   */\n      mstore\n        /* \"#utility.yul\":17641:17823   */\n      pop\n      jump\t// out\n        /* \"#utility.yul\":17829:18195   */\n    tag_280:\n        /* \"#utility.yul\":17971:17974   */\n      0x00\n        /* \"#utility.yul\":17992:18059   */\n      tag_451\n        /* \"#utility.yul\":18056:18058   */\n      0x20\n        /* \"#utility.yul\":18051:18054   */\n      dup4\n        /* \"#utility.yul\":17992:18059   */\n      tag_238\n      jump\t// in\n    tag_451:\n        /* \"#utility.yul\":17985:18059   */\n      swap2\n      pop\n        /* \"#utility.yul\":18068:18161   */\n      tag_452\n        /* \"#utility.yul\":18157:18160   */\n      dup3\n        /* \"#utility.yul\":18068:18161   */\n      tag_279\n      jump\t// in\n    tag_452:\n        /* \"#utility.yul\":18186:18188   */\n      0x20\n        /* \"#utility.yul\":18181:18184   */\n      dup3\n        /* \"#utility.yul\":18177:18189   */\n      add\n        /* \"#utility.yul\":18170:18189   */\n      swap1\n      pop\n        /* \"#utility.yul\":17829:18195   */\n      swap2\n      swap1\n      pop\n      jump\t// out\n        /* \"#utility.yul\":18201:18620   */\n    tag_203:\n        /* \"#utility.yul\":18367:18371   */\n      0x00\n        /* \"#utility.yul\":18405:18407   */\n      0x20\n        /* \"#utility.yul\":18394:18403   */\n      dup3\n        /* \"#utility.yul\":18390:18408   */\n      add\n        /* \"#utility.yul\":18382:18408   */\n      swap1\n      pop\n        /* \"#utility.yul\":18454:18463   */\n      dup2\n        /* \"#utility.yul\":18448:18452   */\n      dup2\n        /* \"#utility.yul\":18444:18464   */\n      sub\n        /* \"#utility.yul\":18440:18441   */\n      0x00\n        /* \"#utility.yul\":18429:18438   */\n      dup4\n        /* \"#utility.yul\":18425:18442   */\n      add\n        /* \"#utility.yul\":18418:18465   */\n      mstore\n        /* \"#utility.yul\":18482:18613   */\n      tag_454\n        /* \"#utility.yul\":18608:18612   */\n      dup2\n        /* \"#utility.yul\":18482:18613   */\n      tag_280\n      jump\t// in\n    tag_454:\n        /* \"#utility.yul\":18474:18613   */\n      swap1\n      pop\n        /* \"#utility.yul\":18201:18620   */\n      swap2\n      swap1\n      pop\n      jump\t// out\n        /* \"#utility.yul\":18626:18859   */\n    tag_205:\n        /* \"#utility.yul\":18665:18668   */\n      0x00\n        /* \"#utility.yul\":18688:18712   */\n      tag_456\n        /* \"#utility.yul\":18706:18711   */\n      dup3\n        /* \"#utility.yul\":18688:18712   */\n      tag_249\n      jump\t// in\n    tag_456:\n        /* \"#utility.yul\":18679:18712   */\n      swap2\n      pop\n        /* \"#utility.yul\":18734:18800   */\n      0xffffffffffffffffffffffffffffffffffffffffffffffffffffffffffffffff\n        /* \"#utility.yul\":18727:18732   */\n      dup3\n        /* \"#utility.yul\":18724:18801   */\n      sub\n        /* \"#utility.yul\":18721:18824   */\n      tag_457\n      jumpi\n        /* \"#utility.yul\":18804:18822   */\n      tag_458\n      tag_261\n      jump\t// in\n    tag_458:\n        /* \"#utility.yul\":18721:18824   */\n    tag_457:\n        /* \"#utility.yul\":18851:18852   */\n      0x01\n        /* \"#utility.yul\":18844:18849   */\n      dup3\n        /* \"#utility.yul\":18840:18853   */\n      add\n        /* \"#utility.yul\":18833:18853   */\n      swap1\n      pop\n        /* \"#utility.yul\":18626:18859   */\n      swap2\n      swap1\n      pop\n      jump\t// out\n        /* \"#utility.yul\":18865:19275   */\n    tag_208:\n        /* \"#utility.yul\":18905:18912   */\n      0x00\n        /* \"#utility.yul\":18928:18948   */\n      tag_460\n        /* \"#utility.yul\":18946:18947   */\n      dup3\n        /* \"#utility.yul\":18928:18948   */\n      tag_249\n      jump\t// in\n    tag_460:\n        /* \"#utility.yul\":18923:18948   */\n      swap2\n      pop\n        /* \"#utility.yul\":18962:18982   */\n      tag_461\n        /* \"#utility.yul\":18980:18981   */\n      dup4\n        /* \"#utility.yul\":18962:18982   */\n      tag_249\n      jump\t// in\n    tag_461:\n        /* \"#utility.yul\":18957:18982   */\n      swap3\n      pop\n        /* \"#utility.yul\":19017:19018   */\n      dup3\n        /* \"#utility.yul\":19014:19015   */\n      dup3\n        /* \"#utility.yul\":19010:19019   */\n      mul\n        /* \"#utility.yul\":19039:19069   */\n      tag_462\n        /* \"#utility.yul\":19057:19068   */\n      dup2\n        /* \"#utility.yul\":19039:19069   */\n      tag_249\n      jump\t// in\n    tag_462:\n        /* \"#utility.yul\":19028:19069   */\n      swap2\n      pop\n        /* \"#utility.yul\":19218:19219   */\n      dup3\n        /* \"#utility.yul\":19209:19216   */\n      dup3\n        /* \"#utility.yul\":19205:19220   */\n      div\n        /* \"#utility.yul\":19202:19203   */\n      dup5\n        /* \"#utility.yul\":19199:19221   */\n      eq\n        /* \"#utility.yul\":19179:19180   */\n      dup4\n        /* \"#utility.yul\":19172:19181   */\n      iszero\n        /* \"#utility.yul\":19152:19235   */\n      or\n        /* \"#utility.yul\":19129:19268   */\n      tag_463\n      jumpi\n        /* \"#utility.yul\":19248:19266   */\n      tag_464\n      tag_261\n      jump\t// in\n    tag_464:\n        /* \"#utility.yul\":19129:19268   */\n    tag_463:\n        /* \"#utility.yul\":18913:19275   */\n      pop\n        /* \"#utility.yul\":18865:19275   */\n      swap3\n      swap2\n      pop\n      pop\n      jump\t// out\n        /* \"#utility.yul\":19281:19723   */\n    tag_233:\n        /* \"#utility.yul\":19430:19434   */\n      0x00\n        /* \"#utility.yul\":19468:19470   */\n      0x60\n        /* \"#utility.yul\":19457:19466   */\n      dup3\n        /* \"#utility.yul\":19453:19471   */\n      add\n        /* \"#utility.yul\":19445:19471   */\n      swap1\n      pop\n        /* \"#utility.yul\":19481:19552   */\n      tag_466\n        /* \"#utility.yul\":19549:19550   */\n      0x00\n        /* \"#utility.yul\":19538:19547   */\n      dup4\n        /* \"#utility.yul\":19534:19551   */\n      add\n        /* \"#utility.yul\":19525:19531   */\n      dup7\n        /* \"#utility.yul\":19481:19552   */\n      tag_257\n      jump\t// in\n    tag_466:\n        /* \"#utility.yul\":19562:19634   */\n      tag_467\n        /* \"#utility.yul\":19630:19632   */\n      0x20\n        /* \"#utility.yul\":19619:19628   */\n      dup4\n        /* \"#utility.yul\":19615:19633   */\n      add\n        /* \"#utility.yul\":19606:19612   */\n      dup6\n        /* \"#utility.yul\":19562:19634   */\n      tag_254\n      jump\t// in\n    tag_467:\n        /* \"#utility.yul\":19644:19716   */\n      tag_468\n        /* \"#utility.yul\":19712:19714   */\n      0x40\n        /* \"#utility.yul\":19701:19710   */\n      dup4\n        /* \"#utility.yul\":19697:19715   */\n      add\n        /* \"#utility.yul\":19688:19694   */\n      dup5\n        /* \"#utility.yul\":19644:19716   */\n      tag_254\n      jump\t// in\n    tag_468:\n        /* \"#utility.yul\":19281:19723   */\n      swap5\n      swap4\n      pop\n      pop\n      pop\n      pop\n      jump\t// out\n\n    auxdata: 0xa2646970667358221220e4e0f30767bc3fd53532e36d1ffab999ce5ac2e10e03fd0962394629c71b0a4f64736f6c634300081e0033\n}\n",
				"bytecode": {
					"linkReferences": {},
					"object": "608060405260c8600555348015610014575f5ffd5b506040516127f53803806127f58339818101604052810190610036919061057c565b868681600390816100479190610858565b5080600490816100579190610858565b50505061006a338661010460201b60201c565b83600781905550826008819055508160065f6101000a81548173ffffffffffffffffffffffffffffffffffffffff021916908373ffffffffffffffffffffffffffffffffffffffff16021790555080600b5f6101000a81548173ffffffffffffffffffffffffffffffffffffffff021916908373ffffffffffffffffffffffffffffffffffffffff16021790555050505050505050610a0c565b5f73ffffffffffffffffffffffffffffffffffffffff168273ffffffffffffffffffffffffffffffffffffffff1603610174575f6040517fec442f0500000000000000000000000000000000000000000000000000000000815260040161016b9190610936565b60405180910390fd5b6101855f838361018960201b60201c565b5050565b5f73ffffffffffffffffffffffffffffffffffffffff168373ffffffffffffffffffffffffffffffffffffffff16036101d9578060025f8282546101cd919061097c565b925050819055506102a7565b5f5f5f8573ffffffffffffffffffffffffffffffffffffffff1673ffffffffffffffffffffffffffffffffffffffff1681526020019081526020015f2054905081811015610262578381836040517fe450d38c000000000000000000000000000000000000000000000000000000008152600401610259939291906109be565b60405180910390fd5b8181035f5f8673ffffffffffffffffffffffffffffffffffffffff1673ffffffffffffffffffffffffffffffffffffffff1681526020019081526020015f2081905550505b5f73ffffffffffffffffffffffffffffffffffffffff168273ffffffffffffffffffffffffffffffffffffffff16036102ee578060025f8282540392505081905550610338565b805f5f8473ffffffffffffffffffffffffffffffffffffffff1673ffffffffffffffffffffffffffffffffffffffff1681526020019081526020015f205f82825401925050819055505b8173ffffffffffffffffffffffffffffffffffffffff168373ffffffffffffffffffffffffffffffffffffffff167fddf252ad1be2c89b69c2b068fc378daa952ba7f163c4a11628f55a4df523b3ef8360405161039591906109f3565b60405180910390a3505050565b5f604051905090565b5f5ffd5b5f5ffd5b5f5ffd5b5f5ffd5b5f601f19601f8301169050919050565b7f4e487b71000000000000000000000000000000000000000000000000000000005f52604160045260245ffd5b610401826103bb565b810181811067ffffffffffffffff821117156104205761041f6103cb565b5b80604052505050565b5f6104326103a2565b905061043e82826103f8565b919050565b5f67ffffffffffffffff82111561045d5761045c6103cb565b5b610466826103bb565b9050602081019050919050565b8281835e5f83830152505050565b5f61049361048e84610443565b610429565b9050828152602081018484840111156104af576104ae6103b7565b5b6104ba848285610473565b509392505050565b5f82601f8301126104d6576104d56103b3565b5b81516104e6848260208601610481565b91505092915050565b5f819050919050565b610501816104ef565b811461050b575f5ffd5b50565b5f8151905061051c816104f8565b92915050565b5f73ffffffffffffffffffffffffffffffffffffffff82169050919050565b5f61054b82610522565b9050919050565b61055b81610541565b8114610565575f5ffd5b50565b5f8151905061057681610552565b92915050565b5f5f5f5f5f5f5f60e0888a031215610597576105966103ab565b5b5f88015167ffffffffffffffff8111156105b4576105b36103af565b5b6105c08a828b016104c2565b975050602088015167ffffffffffffffff8111156105e1576105e06103af565b5b6105ed8a828b016104c2565b96505060406105fe8a828b0161050e565b955050606061060f8a828b0161050e565b94505060806106208a828b0161050e565b93505060a06106318a828b01610568565b92505060c06106428a828b01610568565b91505092959891949750929550565b5f81519050919050565b7f4e487b71000000000000000000000000000000000000000000000000000000005f52602260045260245ffd5b5f600282049050600182168061069f57607f821691505b6020821081036106b2576106b161065b565b5b50919050565b5f819050815f5260205f209050919050565b5f6020601f8301049050919050565b5f82821b905092915050565b5f600883026107147fffffffffffffffffffffffffffffffffffffffffffffffffffffffffffffffff826106d9565b61071e86836106d9565b95508019841693508086168417925050509392505050565b5f819050919050565b5f61075961075461074f846104ef565b610736565b6104ef565b9050919050565b5f819050919050565b6107728361073f565b61078661077e82610760565b8484546106e5565b825550505050565b5f5f905090565b61079d61078e565b6107a8818484610769565b505050565b5b818110156107cb576107c05f82610795565b6001810190506107ae565b5050565b601f821115610810576107e1816106b8565b6107ea846106ca565b810160208510156107f9578190505b61080d610805856106ca565b8301826107ad565b50505b505050565b5f82821c905092915050565b5f6108305f1984600802610815565b1980831691505092915050565b5f6108488383610821565b9150826002028217905092915050565b61086182610651565b67ffffffffffffffff81111561087a576108796103cb565b5b6108848254610688565b61088f8282856107cf565b5f60209050601f8311600181146108c0575f84156108ae578287015190505b6108b8858261083d565b86555061091f565b601f1984166108ce866106b8565b5f5b828110156108f5578489015182556001820191506020850194506020810190506108d0565b86831015610912578489015161090e601f891682610821565b8355505b6001600288020188555050505b505050505050565b61093081610541565b82525050565b5f6020820190506109495f830184610927565b92915050565b7f4e487b71000000000000000000000000000000000000000000000000000000005f52601160045260245ffd5b5f610986826104ef565b9150610991836104ef565b92508282019050808211156109a9576109a861094f565b5b92915050565b6109b8816104ef565b82525050565b5f6060820190506109d15f830186610927565b6109de60208301856109af565b6109eb60408301846109af565b949350505050565b5f602082019050610a065f8301846109af565b92915050565b611ddc80610a195f395ff3fe6080604052600436106100f2575f3560e01c806395d89b4111610089578063c8c8ebe411610058578063c8c8ebe41461033b578063dd62ed3e14610365578063e6ef73d6146103a1578063f450c23a146103cb576100f2565b806395d89b411461027c5780639c8f9f23146102a65780639cd441da146102e3578063a9059cbb146102ff576100f2565b8063313ce567116100c5578063313ce567146101c2578063665a11ca146101ec57806370a0823114610216578063771a3a1d14610252576100f2565b806306fdde03146100f6578063095ea7b31461012057806318160ddd1461015c57806323b872dd14610186575b5f5ffd5b348015610101575f5ffd5b5061010a6103f5565b6040516101179190611441565b60405180910390f35b34801561012b575f5ffd5b50610146600480360381019061014191906114f2565b610485565b604051610153919061154a565b60405180910390f35b348015610167575f5ffd5b506101706104a7565b60405161017d9190611572565b60405180910390f35b348015610191575f5ffd5b506101ac60048036038101906101a7919061158b565b6104b0565b6040516101b9919061154a565b60405180910390f35b3480156101cd575f5ffd5b506101d66105cc565b6040516101e391906115f6565b60405180910390f35b3480156101f7575f5ffd5b506102006105d4565b60405161020d919061161e565b60405180910390f35b348015610221575f5ffd5b5061023c60048036038101906102379190611637565b6105f9565b6040516102499190611572565b60405180910390f35b34801561025d575f5ffd5b5061026661063e565b6040516102739190611572565b60405180910390f35b348015610287575f5ffd5b50610290610644565b60405161029d9190611441565b60405180910390f35b3480156102b1575f5ffd5b506102cc60048036038101906102c79190611662565b6106d4565b6040516102da92919061168d565b60405180910390f35b6102fd60048036038101906102f891906116b4565b6108cb565b005b34801561030a575f5ffd5b50610325600480360381019061032091906114f2565b610b31565b604051610332919061154a565b60405180910390f35b348015610346575f5ffd5b5061034f610bea565b60405161035c9190611572565b60405180910390f35b348015610370575f5ffd5b5061038b600480360381019061038691906116f2565b610bf0565b6040516103989190611572565b60405180910390f35b3480156103ac575f5ffd5b506103b5610c72565b6040516103c2919061161e565b60405180910390f35b3480156103d6575f5ffd5b506103df610c97565b6040516103ec9190611572565b60405180910390f35b6060600380546104049061175d565b80601f01602080910402602001604051908101604052809291908181526020018280546104309061175d565b801561047b5780601f106104525761010080835404028352916020019161047b565b820191905f5260205f20905b81548152906001019060200180831161045e57829003601f168201915b5050505050905090565b5f5f61048f610c9d565b905061049c818585610ca4565b600191505092915050565b5f600254905090565b5f5f6104bc8533610bf0565b905082811015610501576040517f08c379a00000000000000000000000000000000000000000000000000000000081526004016104f8906117fd565b60405180910390fd5b61050b8584610cb6565b5f61051584610eb4565b90505f81856105249190611848565b905080610530886105f9565b1015610571576040517f08c379a0000000000000000000000000000000000000000000000000000000008152600401610568906118eb565b60405180910390fd5b61057c878787610ed7565b6105a88760065f9054906101000a900473ffffffffffffffffffffffffffffffffffffffff1684610ed7565b6105be873387866105b99190611909565b610ca4565b600193505050509392505050565b5f6012905090565b600b5f9054906101000a900473ffffffffffffffffffffffffffffffffffffffff1681565b5f5f5f8373ffffffffffffffffffffffffffffffffffffffff1673ffffffffffffffffffffffffffffffffffffffff1681526020019081526020015f20549050919050565b60055481565b6060600480546106539061175d565b80601f016020809104026020016040519081016040528092919081815260200182805461067f9061175d565b80156106ca5780601f106106a1576101008083540402835291602001916106ca565b820191905f5260205f20905b8154815290600101906020018083116106ad57829003601f168201915b5050505050905090565b5f5f5f73ffffffffffffffffffffffffffffffffffffffff16600b5f9054906101000a900473ffffffffffffffffffffffffffffffffffffffff1673ffffffffffffffffffffffffffffffffffffffff1603610765576040517f08c379a000000000000000000000000000000000000000000000000000000000815260040161075c90611986565b60405180910390fd5b600b5f9054906101000a900473ffffffffffffffffffffffffffffffffffffffff1673ffffffffffffffffffffffffffffffffffffffff166323b872dd33600b5f9054906101000a900473ffffffffffffffffffffffffffffffffffffffff16866040518463ffffffff1660e01b81526004016107e4939291906119a4565b6020604051808303815f875af1158015610800573d5f5f3e3d5ffd5b505050506040513d601f19601f820116820180604052508101906108249190611a03565b50600b5f9054906101000a900473ffffffffffffffffffffffffffffffffffffffff1673ffffffffffffffffffffffffffffffffffffffff166389afcb44336040518263ffffffff1660e01b815260040161087f919061161e565b60408051808303815f875af115801561089a573d5f5f3e3d5ffd5b505050506040513d601f19601f820116820180604052508101906108be9190611a42565b8092508193505050915091565b5f73ffffffffffffffffffffffffffffffffffffffff16600b5f9054906101000a900473ffffffffffffffffffffffffffffffffffffffff1673ffffffffffffffffffffffffffffffffffffffff160361095a576040517f08c379a000000000000000000000000000000000000000000000000000000000815260040161095190611986565b60405180910390fd5b34811461099c576040517f08c379a000000000000000000000000000000000000000000000000000000000815260040161099390611aca565b60405180910390fd5b6109c833600b5f9054906101000a900473ffffffffffffffffffffffffffffffffffffffff1684610ed7565b5f600b5f9054906101000a900473ffffffffffffffffffffffffffffffffffffffff1673ffffffffffffffffffffffffffffffffffffffff1682604051610a0e90611b15565b5f6040518083038185875af1925050503d805f8114610a48576040519150601f19603f3d011682016040523d82523d5f602084013e610a4d565b606091505b5050905080610a91576040517f08c379a0000000000000000000000000000000000000000000000000000000008152600401610a8890611b73565b60405180910390fd5b600b5f9054906101000a900473ffffffffffffffffffffffffffffffffffffffff1673ffffffffffffffffffffffffffffffffffffffff16636a627842336040518263ffffffff1660e01b8152600401610aeb919061161e565b6020604051808303815f875af1158015610b07573d5f5f3e3d5ffd5b505050506040513d601f19601f82011682018060405250810190610b2b9190611b91565b50505050565b5f5f339050610b408184610cb6565b5f610b4a84610eb4565b90505f8185610b599190611848565b905080610b65846105f9565b1015610ba6576040517f08c379a0000000000000000000000000000000000000000000000000000000008152600401610b9d906118eb565b60405180910390fd5b610bb08686610fc7565b50610bdc60065f9054906101000a900473ffffffffffffffffffffffffffffffffffffffff1683610fc7565b506001935050505092915050565b60075481565b5f60015f8473ffffffffffffffffffffffffffffffffffffffff1673ffffffffffffffffffffffffffffffffffffffff1681526020019081526020015f205f8373ffffffffffffffffffffffffffffffffffffffff1673ffffffffffffffffffffffffffffffffffffffff1681526020019081526020015f2054905092915050565b60065f9054906101000a900473ffffffffffffffffffffffffffffffffffffffff1681565b60085481565b5f33905090565b610cb18383836001610fe9565b505050565b600754811115610cfb576040517f08c379a0000000000000000000000000000000000000000000000000000000008152600401610cf290611c06565b60405180910390fd5b5f6201518042610d0b9190611c51565b90505f600a5f8573ffffffffffffffffffffffffffffffffffffffff1673ffffffffffffffffffffffffffffffffffffffff1681526020019081526020015f2054905080821115610ddb575f60095f8673ffffffffffffffffffffffffffffffffffffffff1673ffffffffffffffffffffffffffffffffffffffff1681526020019081526020015f208190555081600a5f8673ffffffffffffffffffffffffffffffffffffffff1673ffffffffffffffffffffffffffffffffffffffff1681526020019081526020015f20819055505b60085460095f8673ffffffffffffffffffffffffffffffffffffffff1673ffffffffffffffffffffffffffffffffffffffff1681526020019081526020015f205410610e5c576040517f08c379a0000000000000000000000000000000000000000000000000000000008152600401610e5390611ccb565b60405180910390fd5b60095f8573ffffffffffffffffffffffffffffffffffffffff1673ffffffffffffffffffffffffffffffffffffffff1681526020019081526020015f205f815480929190610ea990611ce9565b919050555050505050565b5f61271060055483610ec69190611d30565b610ed09190611c51565b9050919050565b5f73ffffffffffffffffffffffffffffffffffffffff168373ffffffffffffffffffffffffffffffffffffffff1603610f47575f6040517f96c6fd1e000000000000000000000000000000000000000000000000000000008152600401610f3e919061161e565b60405180910390fd5b5f73ffffffffffffffffffffffffffffffffffffffff168273ffffffffffffffffffffffffffffffffffffffff1603610fb7575f6040517fec442f05000000000000000000000000000000000000000000000000000000008152600401610fae919061161e565b60405180910390fd5b610fc28383836111b8565b505050565b5f5f610fd1610c9d565b9050610fde818585610ed7565b600191505092915050565b5f73ffffffffffffffffffffffffffffffffffffffff168473ffffffffffffffffffffffffffffffffffffffff1603611059575f6040517fe602df05000000000000000000000000000000000000000000000000000000008152600401611050919061161e565b60405180910390fd5b5f73ffffffffffffffffffffffffffffffffffffffff168373ffffffffffffffffffffffffffffffffffffffff16036110c9575f6040517f94280d620000000000000000000000000000000000000000000000000000000081526004016110c0919061161e565b60405180910390fd5b8160015f8673ffffffffffffffffffffffffffffffffffffffff1673ffffffffffffffffffffffffffffffffffffffff1681526020019081526020015f205f8573ffffffffffffffffffffffffffffffffffffffff1673ffffffffffffffffffffffffffffffffffffffff1681526020019081526020015f208190555080156111b2578273ffffffffffffffffffffffffffffffffffffffff168473ffffffffffffffffffffffffffffffffffffffff167f8c5be1e5ebec7d5bd14f71427d1e84f3dd0314c0f7b2291e5b200ac8c7c3b925846040516111a99190611572565b60405180910390a35b50505050565b5f73ffffffffffffffffffffffffffffffffffffffff168373ffffffffffffffffffffffffffffffffffffffff1603611208578060025f8282546111fc9190611848565b925050819055506112d6565b5f5f5f8573ffffffffffffffffffffffffffffffffffffffff1673ffffffffffffffffffffffffffffffffffffffff1681526020019081526020015f2054905081811015611291578381836040517fe450d38c00000000000000000000000000000000000000000000000000000000815260040161128893929190611d71565b60405180910390fd5b8181035f5f8673ffffffffffffffffffffffffffffffffffffffff1673ffffffffffffffffffffffffffffffffffffffff1681526020019081526020015f2081905550505b5f73ffffffffffffffffffffffffffffffffffffffff168273ffffffffffffffffffffffffffffffffffffffff160361131d578060025f8282540392505081905550611367565b805f5f8473ffffffffffffffffffffffffffffffffffffffff1673ffffffffffffffffffffffffffffffffffffffff1681526020019081526020015f205f82825401925050819055505b8173ffffffffffffffffffffffffffffffffffffffff168373ffffffffffffffffffffffffffffffffffffffff167fddf252ad1be2c89b69c2b068fc378daa952ba7f163c4a11628f55a4df523b3ef836040516113c49190611572565b60405180910390a3505050565b5f81519050919050565b5f82825260208201905092915050565b8281835e5f83830152505050565b5f601f19601f8301169050919050565b5f611413826113d1565b61141d81856113db565b935061142d8185602086016113eb565b611436816113f9565b840191505092915050565b5f6020820190508181035f8301526114598184611409565b905092915050565b5f5ffd5b5f73ffffffffffffffffffffffffffffffffffffffff82169050919050565b5f61148e82611465565b9050919050565b61149e81611484565b81146114a8575f5ffd5b50565b5f813590506114b981611495565b92915050565b5f819050919050565b6114d1816114bf565b81146114db575f5ffd5b50565b5f813590506114ec816114c8565b92915050565b5f5f6040838503121561150857611507611461565b5b5f611515858286016114ab565b9250506020611526858286016114de565b9150509250929050565b5f8115159050919050565b61154481611530565b82525050565b5f60208201905061155d5f83018461153b565b92915050565b61156c816114bf565b82525050565b5f6020820190506115855f830184611563565b92915050565b5f5f5f606084860312156115a2576115a1611461565b5b5f6115af868287016114ab565b93505060206115c0868287016114ab565b92505060406115d1868287016114de565b9150509250925092565b5f60ff82169050919050565b6115f0816115db565b82525050565b5f6020820190506116095f8301846115e7565b92915050565b61161881611484565b82525050565b5f6020820190506116315f83018461160f565b92915050565b5f6020828403121561164c5761164b611461565b5b5f611659848285016114ab565b91505092915050565b5f6020828403121561167757611676611461565b5b5f611684848285016114de565b91505092915050565b5f6040820190506116a05f830185611563565b6116ad6020830184611563565b9392505050565b5f5f604083850312156116ca576116c9611461565b5b5f6116d7858286016114de565b92505060206116e8858286016114de565b9150509250929050565b5f5f6040838503121561170857611707611461565b5b5f611715858286016114ab565b9250506020611726858286016114ab565b9150509250929050565b7f4e487b71000000000000000000000000000000000000000000000000000000005f52602260045260245ffd5b5f600282049050600182168061177457607f821691505b60208210810361178757611786611730565b5b50919050565b7f45524332303a207472616e7366657220616d6f756e74206578636565647320615f8201527f6c6c6f77616e6365000000000000000000000000000000000000000000000000602082015250565b5f6117e76028836113db565b91506117f28261178d565b604082019050919050565b5f6020820190508181035f830152611814816117db565b9050919050565b7f4e487b71000000000000000000000000000000000000000000000000000000005f52601160045260245ffd5b5f611852826114bf565b915061185d836114bf565b92508282019050808211156118755761187461181b565b5b92915050565b7f496e73756666696369656e742062616c616e636520696e636c7564696e6720745f8201527f6178000000000000000000000000000000000000000000000000000000000000602082015250565b5f6118d56022836113db565b91506118e08261187b565b604082019050919050565b5f6020820190508181035f830152611902816118c9565b9050919050565b5f611913826114bf565b915061191e836114bf565b92508282039050818111156119365761193561181b565b5b92915050565b7f4c697175696469747920706f6f6c206e6f7420736574000000000000000000005f82015250565b5f6119706016836113db565b915061197b8261193c565b602082019050919050565b5f6020820190508181035f83015261199d81611964565b9050919050565b5f6060820190506119b75f83018661160f565b6119c4602083018561160f565b6119d16040830184611563565b949350505050565b6119e281611530565b81146119ec575f5ffd5b50565b5f815190506119fd816119d9565b92915050565b5f60208284031215611a1857611a17611461565b5b5f611a25848285016119ef565b91505092915050565b5f81519050611a3c816114c8565b92915050565b5f5f60408385031215611a5857611a57611461565b5b5f611a6585828601611a2e565b9250506020611a7685828601611a2e565b9150509250929050565b7f45544820616d6f756e74206d69736d61746368000000000000000000000000005f82015250565b5f611ab46013836113db565b9150611abf82611a80565b602082019050919050565b5f6020820190508181035f830152611ae181611aa8565b9050919050565b5f81905092915050565b50565b5f611b005f83611ae8565b9150611b0b82611af2565b5f82019050919050565b5f611b1f82611af5565b9150819050919050565b7f455448207472616e73666572206661696c6564000000000000000000000000005f82015250565b5f611b5d6013836113db565b9150611b6882611b29565b602082019050919050565b5f6020820190508181035f830152611b8a81611b51565b9050919050565b5f60208284031215611ba657611ba5611461565b5b5f611bb384828501611a2e565b91505092915050565b7f5472616e73616374696f6e20616d6f756e742065786365656473206c696d69745f82015250565b5f611bf06020836113db565b9150611bfb82611bbc565b602082019050919050565b5f6020820190508181035f830152611c1d81611be4565b9050919050565b7f4e487b71000000000000000000000000000000000000000000000000000000005f52601260045260245ffd5b5f611c5b826114bf565b9150611c66836114bf565b925082611c7657611c75611c24565b5b828204905092915050565b7f4461696c79207472616e73616374696f6e206c696d69742065786365656465645f82015250565b5f611cb56020836113db565b9150611cc082611c81565b602082019050919050565b5f6020820190508181035f830152611ce281611ca9565b9050919050565b5f611cf3826114bf565b91507fffffffffffffffffffffffffffffffffffffffffffffffffffffffffffffffff8203611d2557611d2461181b565b5b600182019050919050565b5f611d3a826114bf565b9150611d45836114bf565b9250828202611d53816114bf565b91508282048414831517611d6a57611d6961181b565b5b5092915050565b5f606082019050611d845f83018661160f565b611d916020830185611563565b611d9e6040830184611563565b94935050505056fea2646970667358221220e4e0f30767bc3fd53532e36d1ffab999ce5ac2e10e03fd0962394629c71b0a4f64736f6c634300081e0033",
					"opcodes": "PUSH1 0x80 PUSH1 0x40 MSTORE PUSH1 0xC8 PUSH1 0x5 SSTORE CALLVALUE DUP1 ISZERO PUSH2 0x14 JUMPI PUSH0 PUSH0 REVERT JUMPDEST POP PUSH1 0x40 MLOAD PUSH2 0x27F5 CODESIZE SUB DUP1 PUSH2 0x27F5 DUP4 CODECOPY DUP2 DUP2 ADD PUSH1 0x40 MSTORE DUP2 ADD SWAP1 PUSH2 0x36 SWAP2 SWAP1 PUSH2 0x57C JUMP JUMPDEST DUP7 DUP7 DUP2 PUSH1 0x3 SWAP1 DUP2 PUSH2 0x47 SWAP2 SWAP1 PUSH2 0x858 JUMP JUMPDEST POP DUP1 PUSH1 0x4 SWAP1 DUP2 PUSH2 0x57 SWAP2 SWAP1 PUSH2 0x858 JUMP JUMPDEST POP POP POP PUSH2 0x6A CALLER DUP7 PUSH2 0x104 PUSH1 0x20 SHL PUSH1 0x20 SHR JUMP JUMPDEST DUP4 PUSH1 0x7 DUP2 SWAP1 SSTORE POP DUP3 PUSH1 0x8 DUP2 SWAP1 SSTORE POP DUP2 PUSH1 0x6 PUSH0 PUSH2 0x100 EXP DUP2 SLOAD DUP2 PUSH20 0xFFFFFFFFFFFFFFFFFFFFFFFFFFFFFFFFFFFFFFFF MUL NOT AND SWAP1 DUP4 PUSH20 0xFFFFFFFFFFFFFFFFFFFFFFFFFFFFFFFFFFFFFFFF AND MUL OR SWAP1 SSTORE POP DUP1 PUSH1 0xB PUSH0 PUSH2 0x100 EXP DUP2 SLOAD DUP2 PUSH20 0xFFFFFFFFFFFFFFFFFFFFFFFFFFFFFFFFFFFFFFFF MUL NOT AND SWAP1 DUP4 PUSH20 0xFFFFFFFFFFFFFFFFFFFFFFFFFFFFFFFFFFFFFFFF AND MUL OR SWAP1 SSTORE POP POP POP POP POP POP POP POP PUSH2 0xA0C JUMP JUMPDEST PUSH0 PUSH20 0xFFFFFFFFFFFFFFFFFFFFFFFFFFFFFFFFFFFFFFFF AND DUP3 PUSH20 0xFFFFFFFFFFFFFFFFFFFFFFFFFFFFFFFFFFFFFFFF AND SUB PUSH2 0x174 JUMPI PUSH0 PUSH1 0x40 MLOAD PUSH32 0xEC442F0500000000000000000000000000000000000000000000000000000000 DUP2 MSTORE PUSH1 0x4 ADD PUSH2 0x16B SWAP2 SWAP1 PUSH2 0x936 JUMP JUMPDEST PUSH1 0x40 MLOAD DUP1 SWAP2 SUB SWAP1 REVERT JUMPDEST PUSH2 0x185 PUSH0 DUP4 DUP4 PUSH2 0x189 PUSH1 0x20 SHL PUSH1 0x20 SHR JUMP JUMPDEST POP POP JUMP JUMPDEST PUSH0 PUSH20 0xFFFFFFFFFFFFFFFFFFFFFFFFFFFFFFFFFFFFFFFF AND DUP4 PUSH20 0xFFFFFFFFFFFFFFFFFFFFFFFFFFFFFFFFFFFFFFFF AND SUB PUSH2 0x1D9 JUMPI DUP1 PUSH1 0x2 PUSH0 DUP3 DUP3 SLOAD PUSH2 0x1CD SWAP2 SWAP1 PUSH2 0x97C JUMP JUMPDEST SWAP3 POP POP DUP2 SWAP1 SSTORE POP PUSH2 0x2A7 JUMP JUMPDEST PUSH0 PUSH0 PUSH0 DUP6 PUSH20 0xFFFFFFFFFFFFFFFFFFFFFFFFFFFFFFFFFFFFFFFF AND PUSH20 0xFFFFFFFFFFFFFFFFFFFFFFFFFFFFFFFFFFFFFFFF AND DUP2 MSTORE PUSH1 0x20 ADD SWAP1 DUP2 MSTORE PUSH1 0x20 ADD PUSH0 KECCAK256 SLOAD SWAP1 POP DUP2 DUP2 LT ISZERO PUSH2 0x262 JUMPI DUP4 DUP2 DUP4 PUSH1 0x40 MLOAD PUSH32 0xE450D38C00000000000000000000000000000000000000000000000000000000 DUP2 MSTORE PUSH1 0x4 ADD PUSH2 0x259 SWAP4 SWAP3 SWAP2 SWAP1 PUSH2 0x9BE JUMP JUMPDEST PUSH1 0x40 MLOAD DUP1 SWAP2 SUB SWAP1 REVERT JUMPDEST DUP2 DUP2 SUB PUSH0 PUSH0 DUP7 PUSH20 0xFFFFFFFFFFFFFFFFFFFFFFFFFFFFFFFFFFFFFFFF AND PUSH20 0xFFFFFFFFFFFFFFFFFFFFFFFFFFFFFFFFFFFFFFFF AND DUP2 MSTORE PUSH1 0x20 ADD SWAP1 DUP2 MSTORE PUSH1 0x20 ADD PUSH0 KECCAK256 DUP2 SWAP1 SSTORE POP POP JUMPDEST PUSH0 PUSH20 0xFFFFFFFFFFFFFFFFFFFFFFFFFFFFFFFFFFFFFFFF AND DUP3 PUSH20 0xFFFFFFFFFFFFFFFFFFFFFFFFFFFFFFFFFFFFFFFF AND SUB PUSH2 0x2EE JUMPI DUP1 PUSH1 0x2 PUSH0 DUP3 DUP3 SLOAD SUB SWAP3 POP POP DUP2 SWAP1 SSTORE POP PUSH2 0x338 JUMP JUMPDEST DUP1 PUSH0 PUSH0 DUP5 PUSH20 0xFFFFFFFFFFFFFFFFFFFFFFFFFFFFFFFFFFFFFFFF AND PUSH20 0xFFFFFFFFFFFFFFFFFFFFFFFFFFFFFFFFFFFFFFFF AND DUP2 MSTORE PUSH1 0x20 ADD SWAP1 DUP2 MSTORE PUSH1 0x20 ADD PUSH0 KECCAK256 PUSH0 DUP3 DUP3 SLOAD ADD SWAP3 POP POP DUP2 SWAP1 SSTORE POP JUMPDEST DUP2 PUSH20 0xFFFFFFFFFFFFFFFFFFFFFFFFFFFFFFFFFFFFFFFF AND DUP4 PUSH20 0xFFFFFFFFFFFFFFFFFFFFFFFFFFFFFFFFFFFFFFFF AND PUSH32 0xDDF252AD1BE2C89B69C2B068FC378DAA952BA7F163C4A11628F55A4DF523B3EF DUP4 PUSH1 0x40 MLOAD PUSH2 0x395 SWAP2 SWAP1 PUSH2 0x9F3 JUMP JUMPDEST PUSH1 0x40 MLOAD DUP1 SWAP2 SUB SWAP1 LOG3 POP POP POP JUMP JUMPDEST PUSH0 PUSH1 0x40 MLOAD SWAP1 POP SWAP1 JUMP JUMPDEST PUSH0 PUSH0 REVERT JUMPDEST PUSH0 PUSH0 REVERT JUMPDEST PUSH0 PUSH0 REVERT JUMPDEST PUSH0 PUSH0 REVERT JUMPDEST PUSH0 PUSH1 0x1F NOT PUSH1 0x1F DUP4 ADD AND SWAP1 POP SWAP2 SWAP1 POP JUMP JUMPDEST PUSH32 0x4E487B7100000000000000000000000000000000000000000000000000000000 PUSH0 MSTORE PUSH1 0x41 PUSH1 0x4 MSTORE PUSH1 0x24 PUSH0 REVERT JUMPDEST PUSH2 0x401 DUP3 PUSH2 0x3BB JUMP JUMPDEST DUP2 ADD DUP2 DUP2 LT PUSH8 0xFFFFFFFFFFFFFFFF DUP3 GT OR ISZERO PUSH2 0x420 JUMPI PUSH2 0x41F PUSH2 0x3CB JUMP JUMPDEST JUMPDEST DUP1 PUSH1 0x40 MSTORE POP POP POP JUMP JUMPDEST PUSH0 PUSH2 0x432 PUSH2 0x3A2 JUMP JUMPDEST SWAP1 POP PUSH2 0x43E DUP3 DUP3 PUSH2 0x3F8 JUMP JUMPDEST SWAP2 SWAP1 POP JUMP JUMPDEST PUSH0 PUSH8 0xFFFFFFFFFFFFFFFF DUP3 GT ISZERO PUSH2 0x45D JUMPI PUSH2 0x45C PUSH2 0x3CB JUMP JUMPDEST JUMPDEST PUSH2 0x466 DUP3 PUSH2 0x3BB JUMP JUMPDEST SWAP1 POP PUSH1 0x20 DUP2 ADD SWAP1 POP SWAP2 SWAP1 POP JUMP JUMPDEST DUP3 DUP2 DUP4 MCOPY PUSH0 DUP4 DUP4 ADD MSTORE POP POP POP JUMP JUMPDEST PUSH0 PUSH2 0x493 PUSH2 0x48E DUP5 PUSH2 0x443 JUMP JUMPDEST PUSH2 0x429 JUMP JUMPDEST SWAP1 POP DUP3 DUP2 MSTORE PUSH1 0x20 DUP2 ADD DUP5 DUP5 DUP5 ADD GT ISZERO PUSH2 0x4AF JUMPI PUSH2 0x4AE PUSH2 0x3B7 JUMP JUMPDEST JUMPDEST PUSH2 0x4BA DUP5 DUP3 DUP6 PUSH2 0x473 JUMP JUMPDEST POP SWAP4 SWAP3 POP POP POP JUMP JUMPDEST PUSH0 DUP3 PUSH1 0x1F DUP4 ADD SLT PUSH2 0x4D6 JUMPI PUSH2 0x4D5 PUSH2 0x3B3 JUMP JUMPDEST JUMPDEST DUP2 MLOAD PUSH2 0x4E6 DUP5 DUP3 PUSH1 0x20 DUP7 ADD PUSH2 0x481 JUMP JUMPDEST SWAP2 POP POP SWAP3 SWAP2 POP POP JUMP JUMPDEST PUSH0 DUP2 SWAP1 POP SWAP2 SWAP1 POP JUMP JUMPDEST PUSH2 0x501 DUP2 PUSH2 0x4EF JUMP JUMPDEST DUP2 EQ PUSH2 0x50B JUMPI PUSH0 PUSH0 REVERT JUMPDEST POP JUMP JUMPDEST PUSH0 DUP2 MLOAD SWAP1 POP PUSH2 0x51C DUP2 PUSH2 0x4F8 JUMP JUMPDEST SWAP3 SWAP2 POP POP JUMP JUMPDEST PUSH0 PUSH20 0xFFFFFFFFFFFFFFFFFFFFFFFFFFFFFFFFFFFFFFFF DUP3 AND SWAP1 POP SWAP2 SWAP1 POP JUMP JUMPDEST PUSH0 PUSH2 0x54B DUP3 PUSH2 0x522 JUMP JUMPDEST SWAP1 POP SWAP2 SWAP1 POP JUMP JUMPDEST PUSH2 0x55B DUP2 PUSH2 0x541 JUMP JUMPDEST DUP2 EQ PUSH2 0x565 JUMPI PUSH0 PUSH0 REVERT JUMPDEST POP JUMP JUMPDEST PUSH0 DUP2 MLOAD SWAP1 POP PUSH2 0x576 DUP2 PUSH2 0x552 JUMP JUMPDEST SWAP3 SWAP2 POP POP JUMP JUMPDEST PUSH0 PUSH0 PUSH0 PUSH0 PUSH0 PUSH0 PUSH0 PUSH1 0xE0 DUP9 DUP11 SUB SLT ISZERO PUSH2 0x597 JUMPI PUSH2 0x596 PUSH2 0x3AB JUMP JUMPDEST JUMPDEST PUSH0 DUP9 ADD MLOAD PUSH8 0xFFFFFFFFFFFFFFFF DUP2 GT ISZERO PUSH2 0x5B4 JUMPI PUSH2 0x5B3 PUSH2 0x3AF JUMP JUMPDEST JUMPDEST PUSH2 0x5C0 DUP11 DUP3 DUP12 ADD PUSH2 0x4C2 JUMP JUMPDEST SWAP8 POP POP PUSH1 0x20 DUP9 ADD MLOAD PUSH8 0xFFFFFFFFFFFFFFFF DUP2 GT ISZERO PUSH2 0x5E1 JUMPI PUSH2 0x5E0 PUSH2 0x3AF JUMP JUMPDEST JUMPDEST PUSH2 0x5ED DUP11 DUP3 DUP12 ADD PUSH2 0x4C2 JUMP JUMPDEST SWAP7 POP POP PUSH1 0x40 PUSH2 0x5FE DUP11 DUP3 DUP12 ADD PUSH2 0x50E JUMP JUMPDEST SWAP6 POP POP PUSH1 0x60 PUSH2 0x60F DUP11 DUP3 DUP12 ADD PUSH2 0x50E JUMP JUMPDEST SWAP5 POP POP PUSH1 0x80 PUSH2 0x620 DUP11 DUP3 DUP12 ADD PUSH2 0x50E JUMP JUMPDEST SWAP4 POP POP PUSH1 0xA0 PUSH2 0x631 DUP11 DUP3 DUP12 ADD PUSH2 0x568 JUMP JUMPDEST SWAP3 POP POP PUSH1 0xC0 PUSH2 0x642 DUP11 DUP3 DUP12 ADD PUSH2 0x568 JUMP JUMPDEST SWAP2 POP POP SWAP3 SWAP6 SWAP9 SWAP2 SWAP5 SWAP8 POP SWAP3 SWAP6 POP JUMP JUMPDEST PUSH0 DUP2 MLOAD SWAP1 POP SWAP2 SWAP1 POP JUMP JUMPDEST PUSH32 0x4E487B7100000000000000000000000000000000000000000000000000000000 PUSH0 MSTORE PUSH1 0x22 PUSH1 0x4 MSTORE PUSH1 0x24 PUSH0 REVERT JUMPDEST PUSH0 PUSH1 0x2 DUP3 DIV SWAP1 POP PUSH1 0x1 DUP3 AND DUP1 PUSH2 0x69F JUMPI PUSH1 0x7F DUP3 AND SWAP2 POP JUMPDEST PUSH1 0x20 DUP3 LT DUP2 SUB PUSH2 0x6B2 JUMPI PUSH2 0x6B1 PUSH2 0x65B JUMP JUMPDEST JUMPDEST POP SWAP2 SWAP1 POP JUMP JUMPDEST PUSH0 DUP2 SWAP1 POP DUP2 PUSH0 MSTORE PUSH1 0x20 PUSH0 KECCAK256 SWAP1 POP SWAP2 SWAP1 POP JUMP JUMPDEST PUSH0 PUSH1 0x20 PUSH1 0x1F DUP4 ADD DIV SWAP1 POP SWAP2 SWAP1 POP JUMP JUMPDEST PUSH0 DUP3 DUP3 SHL SWAP1 POP SWAP3 SWAP2 POP POP JUMP JUMPDEST PUSH0 PUSH1 0x8 DUP4 MUL PUSH2 0x714 PUSH32 0xFFFFFFFFFFFFFFFFFFFFFFFFFFFFFFFFFFFFFFFFFFFFFFFFFFFFFFFFFFFFFFFF DUP3 PUSH2 0x6D9 JUMP JUMPDEST PUSH2 0x71E DUP7 DUP4 PUSH2 0x6D9 JUMP JUMPDEST SWAP6 POP DUP1 NOT DUP5 AND SWAP4 POP DUP1 DUP7 AND DUP5 OR SWAP3 POP POP POP SWAP4 SWAP3 POP POP POP JUMP JUMPDEST PUSH0 DUP2 SWAP1 POP SWAP2 SWAP1 POP JUMP JUMPDEST PUSH0 PUSH2 0x759 PUSH2 0x754 PUSH2 0x74F DUP5 PUSH2 0x4EF JUMP JUMPDEST PUSH2 0x736 JUMP JUMPDEST PUSH2 0x4EF JUMP JUMPDEST SWAP1 POP SWAP2 SWAP1 POP JUMP JUMPDEST PUSH0 DUP2 SWAP1 POP SWAP2 SWAP1 POP JUMP JUMPDEST PUSH2 0x772 DUP4 PUSH2 0x73F JUMP JUMPDEST PUSH2 0x786 PUSH2 0x77E DUP3 PUSH2 0x760 JUMP JUMPDEST DUP5 DUP5 SLOAD PUSH2 0x6E5 JUMP JUMPDEST DUP3 SSTORE POP POP POP POP JUMP JUMPDEST PUSH0 PUSH0 SWAP1 POP SWAP1 JUMP JUMPDEST PUSH2 0x79D PUSH2 0x78E JUMP JUMPDEST PUSH2 0x7A8 DUP2 DUP5 DUP5 PUSH2 0x769 JUMP JUMPDEST POP POP POP JUMP JUMPDEST JUMPDEST DUP2 DUP2 LT ISZERO PUSH2 0x7CB JUMPI PUSH2 0x7C0 PUSH0 DUP3 PUSH2 0x795 JUMP JUMPDEST PUSH1 0x1 DUP2 ADD SWAP1 POP PUSH2 0x7AE JUMP JUMPDEST POP POP JUMP JUMPDEST PUSH1 0x1F DUP3 GT ISZERO PUSH2 0x810 JUMPI PUSH2 0x7E1 DUP2 PUSH2 0x6B8 JUMP JUMPDEST PUSH2 0x7EA DUP5 PUSH2 0x6CA JUMP JUMPDEST DUP2 ADD PUSH1 0x20 DUP6 LT ISZERO PUSH2 0x7F9 JUMPI DUP2 SWAP1 POP JUMPDEST PUSH2 0x80D PUSH2 0x805 DUP6 PUSH2 0x6CA JUMP JUMPDEST DUP4 ADD DUP3 PUSH2 0x7AD JUMP JUMPDEST POP POP JUMPDEST POP POP POP JUMP JUMPDEST PUSH0 DUP3 DUP3 SHR SWAP1 POP SWAP3 SWAP2 POP POP JUMP JUMPDEST PUSH0 PUSH2 0x830 PUSH0 NOT DUP5 PUSH1 0x8 MUL PUSH2 0x815 JUMP JUMPDEST NOT DUP1 DUP4 AND SWAP2 POP POP SWAP3 SWAP2 POP POP JUMP JUMPDEST PUSH0 PUSH2 0x848 DUP4 DUP4 PUSH2 0x821 JUMP JUMPDEST SWAP2 POP DUP3 PUSH1 0x2 MUL DUP3 OR SWAP1 POP SWAP3 SWAP2 POP POP JUMP JUMPDEST PUSH2 0x861 DUP3 PUSH2 0x651 JUMP JUMPDEST PUSH8 0xFFFFFFFFFFFFFFFF DUP2 GT ISZERO PUSH2 0x87A JUMPI PUSH2 0x879 PUSH2 0x3CB JUMP JUMPDEST JUMPDEST PUSH2 0x884 DUP3 SLOAD PUSH2 0x688 JUMP JUMPDEST PUSH2 0x88F DUP3 DUP3 DUP6 PUSH2 0x7CF JUMP JUMPDEST PUSH0 PUSH1 0x20 SWAP1 POP PUSH1 0x1F DUP4 GT PUSH1 0x1 DUP2 EQ PUSH2 0x8C0 JUMPI PUSH0 DUP5 ISZERO PUSH2 0x8AE JUMPI DUP3 DUP8 ADD MLOAD SWAP1 POP JUMPDEST PUSH2 0x8B8 DUP6 DUP3 PUSH2 0x83D JUMP JUMPDEST DUP7 SSTORE POP PUSH2 0x91F JUMP JUMPDEST PUSH1 0x1F NOT DUP5 AND PUSH2 0x8CE DUP7 PUSH2 0x6B8 JUMP JUMPDEST PUSH0 JUMPDEST DUP3 DUP2 LT ISZERO PUSH2 0x8F5 JUMPI DUP5 DUP10 ADD MLOAD DUP3 SSTORE PUSH1 0x1 DUP3 ADD SWAP2 POP PUSH1 0x20 DUP6 ADD SWAP5 POP PUSH1 0x20 DUP2 ADD SWAP1 POP PUSH2 0x8D0 JUMP JUMPDEST DUP7 DUP4 LT ISZERO PUSH2 0x912 JUMPI DUP5 DUP10 ADD MLOAD PUSH2 0x90E PUSH1 0x1F DUP10 AND DUP3 PUSH2 0x821 JUMP JUMPDEST DUP4 SSTORE POP JUMPDEST PUSH1 0x1 PUSH1 0x2 DUP9 MUL ADD DUP9 SSTORE POP POP POP JUMPDEST POP POP POP POP POP POP JUMP JUMPDEST PUSH2 0x930 DUP2 PUSH2 0x541 JUMP JUMPDEST DUP3 MSTORE POP POP JUMP JUMPDEST PUSH0 PUSH1 0x20 DUP3 ADD SWAP1 POP PUSH2 0x949 PUSH0 DUP4 ADD DUP5 PUSH2 0x927 JUMP JUMPDEST SWAP3 SWAP2 POP POP JUMP JUMPDEST PUSH32 0x4E487B7100000000000000000000000000000000000000000000000000000000 PUSH0 MSTORE PUSH1 0x11 PUSH1 0x4 MSTORE PUSH1 0x24 PUSH0 REVERT JUMPDEST PUSH0 PUSH2 0x986 DUP3 PUSH2 0x4EF JUMP JUMPDEST SWAP2 POP PUSH2 0x991 DUP4 PUSH2 0x4EF JUMP JUMPDEST SWAP3 POP DUP3 DUP3 ADD SWAP1 POP DUP1 DUP3 GT ISZERO PUSH2 0x9A9 JUMPI PUSH2 0x9A8 PUSH2 0x94F JUMP JUMPDEST JUMPDEST SWAP3 SWAP2 POP POP JUMP JUMPDEST PUSH2 0x9B8 DUP2 PUSH2 0x4EF JUMP JUMPDEST DUP3 MSTORE POP POP JUMP JUMPDEST PUSH0 PUSH1 0x60 DUP3 ADD SWAP1 POP PUSH2 0x9D1 PUSH0 DUP4 ADD DUP7 PUSH2 0x927 JUMP JUMPDEST PUSH2 0x9DE PUSH1 0x20 DUP4 ADD DUP6 PUSH2 0x9AF JUMP JUMPDEST PUSH2 0x9EB PUSH1 0x40 DUP4 ADD DUP5 PUSH2 0x9AF JUMP JUMPDEST SWAP5 SWAP4 POP POP POP POP JUMP JUMPDEST PUSH0 PUSH1 0x20 DUP3 ADD SWAP1 POP PUSH2 0xA06 PUSH0 DUP4 ADD DUP5 PUSH2 0x9AF JUMP JUMPDEST SWAP3 SWAP2 POP POP JUMP JUMPDEST PUSH2 0x1DDC DUP1 PUSH2 0xA19 PUSH0 CODECOPY PUSH0 RETURN INVALID PUSH1 0x80 PUSH1 0x40 MSTORE PUSH1 0x4 CALLDATASIZE LT PUSH2 0xF2 JUMPI PUSH0 CALLDATALOAD PUSH1 0xE0 SHR DUP1 PUSH4 0x95D89B41 GT PUSH2 0x89 JUMPI DUP1 PUSH4 0xC8C8EBE4 GT PUSH2 0x58 JUMPI DUP1 PUSH4 0xC8C8EBE4 EQ PUSH2 0x33B JUMPI DUP1 PUSH4 0xDD62ED3E EQ PUSH2 0x365 JUMPI DUP1 PUSH4 0xE6EF73D6 EQ PUSH2 0x3A1 JUMPI DUP1 PUSH4 0xF450C23A EQ PUSH2 0x3CB JUMPI PUSH2 0xF2 JUMP JUMPDEST DUP1 PUSH4 0x95D89B41 EQ PUSH2 0x27C JUMPI DUP1 PUSH4 0x9C8F9F23 EQ PUSH2 0x2A6 JUMPI DUP1 PUSH4 0x9CD441DA EQ PUSH2 0x2E3 JUMPI DUP1 PUSH4 0xA9059CBB EQ PUSH2 0x2FF JUMPI PUSH2 0xF2 JUMP JUMPDEST DUP1 PUSH4 0x313CE567 GT PUSH2 0xC5 JUMPI DUP1 PUSH4 0x313CE567 EQ PUSH2 0x1C2 JUMPI DUP1 PUSH4 0x665A11CA EQ PUSH2 0x1EC JUMPI DUP1 PUSH4 0x70A08231 EQ PUSH2 0x216 JUMPI DUP1 PUSH4 0x771A3A1D EQ PUSH2 0x252 JUMPI PUSH2 0xF2 JUMP JUMPDEST DUP1 PUSH4 0x6FDDE03 EQ PUSH2 0xF6 JUMPI DUP1 PUSH4 0x95EA7B3 EQ PUSH2 0x120 JUMPI DUP1 PUSH4 0x18160DDD EQ PUSH2 0x15C JUMPI DUP1 PUSH4 0x23B872DD EQ PUSH2 0x186 JUMPI JUMPDEST PUSH0 PUSH0 REVERT JUMPDEST CALLVALUE DUP1 ISZERO PUSH2 0x101 JUMPI PUSH0 PUSH0 REVERT JUMPDEST POP PUSH2 0x10A PUSH2 0x3F5 JUMP JUMPDEST PUSH1 0x40 MLOAD PUSH2 0x117 SWAP2 SWAP1 PUSH2 0x1441 JUMP JUMPDEST PUSH1 0x40 MLOAD DUP1 SWAP2 SUB SWAP1 RETURN JUMPDEST CALLVALUE DUP1 ISZERO PUSH2 0x12B JUMPI PUSH0 PUSH0 REVERT JUMPDEST POP PUSH2 0x146 PUSH1 0x4 DUP1 CALLDATASIZE SUB DUP2 ADD SWAP1 PUSH2 0x141 SWAP2 SWAP1 PUSH2 0x14F2 JUMP JUMPDEST PUSH2 0x485 JUMP JUMPDEST PUSH1 0x40 MLOAD PUSH2 0x153 SWAP2 SWAP1 PUSH2 0x154A JUMP JUMPDEST PUSH1 0x40 MLOAD DUP1 SWAP2 SUB SWAP1 RETURN JUMPDEST CALLVALUE DUP1 ISZERO PUSH2 0x167 JUMPI PUSH0 PUSH0 REVERT JUMPDEST POP PUSH2 0x170 PUSH2 0x4A7 JUMP JUMPDEST PUSH1 0x40 MLOAD PUSH2 0x17D SWAP2 SWAP1 PUSH2 0x1572 JUMP JUMPDEST PUSH1 0x40 MLOAD DUP1 SWAP2 SUB SWAP1 RETURN JUMPDEST CALLVALUE DUP1 ISZERO PUSH2 0x191 JUMPI PUSH0 PUSH0 REVERT JUMPDEST POP PUSH2 0x1AC PUSH1 0x4 DUP1 CALLDATASIZE SUB DUP2 ADD SWAP1 PUSH2 0x1A7 SWAP2 SWAP1 PUSH2 0x158B JUMP JUMPDEST PUSH2 0x4B0 JUMP JUMPDEST PUSH1 0x40 MLOAD PUSH2 0x1B9 SWAP2 SWAP1 PUSH2 0x154A JUMP JUMPDEST PUSH1 0x40 MLOAD DUP1 SWAP2 SUB SWAP1 RETURN JUMPDEST CALLVALUE DUP1 ISZERO PUSH2 0x1CD JUMPI PUSH0 PUSH0 REVERT JUMPDEST POP PUSH2 0x1D6 PUSH2 0x5CC JUMP JUMPDEST PUSH1 0x40 MLOAD PUSH2 0x1E3 SWAP2 SWAP1 PUSH2 0x15F6 JUMP JUMPDEST PUSH1 0x40 MLOAD DUP1 SWAP2 SUB SWAP1 RETURN JUMPDEST CALLVALUE DUP1 ISZERO PUSH2 0x1F7 JUMPI PUSH0 PUSH0 REVERT JUMPDEST POP PUSH2 0x200 PUSH2 0x5D4 JUMP JUMPDEST PUSH1 0x40 MLOAD PUSH2 0x20D SWAP2 SWAP1 PUSH2 0x161E JUMP JUMPDEST PUSH1 0x40 MLOAD DUP1 SWAP2 SUB SWAP1 RETURN JUMPDEST CALLVALUE DUP1 ISZERO PUSH2 0x221 JUMPI PUSH0 PUSH0 REVERT JUMPDEST POP PUSH2 0x23C PUSH1 0x4 DUP1 CALLDATASIZE SUB DUP2 ADD SWAP1 PUSH2 0x237 SWAP2 SWAP1 PUSH2 0x1637 JUMP JUMPDEST PUSH2 0x5F9 JUMP JUMPDEST PUSH1 0x40 MLOAD PUSH2 0x249 SWAP2 SWAP1 PUSH2 0x1572 JUMP JUMPDEST PUSH1 0x40 MLOAD DUP1 SWAP2 SUB SWAP1 RETURN JUMPDEST CALLVALUE DUP1 ISZERO PUSH2 0x25D JUMPI PUSH0 PUSH0 REVERT JUMPDEST POP PUSH2 0x266 PUSH2 0x63E JUMP JUMPDEST PUSH1 0x40 MLOAD PUSH2 0x273 SWAP2 SWAP1 PUSH2 0x1572 JUMP JUMPDEST PUSH1 0x40 MLOAD DUP1 SWAP2 SUB SWAP1 RETURN JUMPDEST CALLVALUE DUP1 ISZERO PUSH2 0x287 JUMPI PUSH0 PUSH0 REVERT JUMPDEST POP PUSH2 0x290 PUSH2 0x644 JUMP JUMPDEST PUSH1 0x40 MLOAD PUSH2 0x29D SWAP2 SWAP1 PUSH2 0x1441 JUMP JUMPDEST PUSH1 0x40 MLOAD DUP1 SWAP2 SUB SWAP1 RETURN JUMPDEST CALLVALUE DUP1 ISZERO PUSH2 0x2B1 JUMPI PUSH0 PUSH0 REVERT JUMPDEST POP PUSH2 0x2CC PUSH1 0x4 DUP1 CALLDATASIZE SUB DUP2 ADD SWAP1 PUSH2 0x2C7 SWAP2 SWAP1 PUSH2 0x1662 JUMP JUMPDEST PUSH2 0x6D4 JUMP JUMPDEST PUSH1 0x40 MLOAD PUSH2 0x2DA SWAP3 SWAP2 SWAP1 PUSH2 0x168D JUMP JUMPDEST PUSH1 0x40 MLOAD DUP1 SWAP2 SUB SWAP1 RETURN JUMPDEST PUSH2 0x2FD PUSH1 0x4 DUP1 CALLDATASIZE SUB DUP2 ADD SWAP1 PUSH2 0x2F8 SWAP2 SWAP1 PUSH2 0x16B4 JUMP JUMPDEST PUSH2 0x8CB JUMP JUMPDEST STOP JUMPDEST CALLVALUE DUP1 ISZERO PUSH2 0x30A JUMPI PUSH0 PUSH0 REVERT JUMPDEST POP PUSH2 0x325 PUSH1 0x4 DUP1 CALLDATASIZE SUB DUP2 ADD SWAP1 PUSH2 0x320 SWAP2 SWAP1 PUSH2 0x14F2 JUMP JUMPDEST PUSH2 0xB31 JUMP JUMPDEST PUSH1 0x40 MLOAD PUSH2 0x332 SWAP2 SWAP1 PUSH2 0x154A JUMP JUMPDEST PUSH1 0x40 MLOAD DUP1 SWAP2 SUB SWAP1 RETURN JUMPDEST CALLVALUE DUP1 ISZERO PUSH2 0x346 JUMPI PUSH0 PUSH0 REVERT JUMPDEST POP PUSH2 0x34F PUSH2 0xBEA JUMP JUMPDEST PUSH1 0x40 MLOAD PUSH2 0x35C SWAP2 SWAP1 PUSH2 0x1572 JUMP JUMPDEST PUSH1 0x40 MLOAD DUP1 SWAP2 SUB SWAP1 RETURN JUMPDEST CALLVALUE DUP1 ISZERO PUSH2 0x370 JUMPI PUSH0 PUSH0 REVERT JUMPDEST POP PUSH2 0x38B PUSH1 0x4 DUP1 CALLDATASIZE SUB DUP2 ADD SWAP1 PUSH2 0x386 SWAP2 SWAP1 PUSH2 0x16F2 JUMP JUMPDEST PUSH2 0xBF0 JUMP JUMPDEST PUSH1 0x40 MLOAD PUSH2 0x398 SWAP2 SWAP1 PUSH2 0x1572 JUMP JUMPDEST PUSH1 0x40 MLOAD DUP1 SWAP2 SUB SWAP1 RETURN JUMPDEST CALLVALUE DUP1 ISZERO PUSH2 0x3AC JUMPI PUSH0 PUSH0 REVERT JUMPDEST POP PUSH2 0x3B5 PUSH2 0xC72 JUMP JUMPDEST PUSH1 0x40 MLOAD PUSH2 0x3C2 SWAP2 SWAP1 PUSH2 0x161E JUMP JUMPDEST PUSH1 0x40 MLOAD DUP1 SWAP2 SUB SWAP1 RETURN JUMPDEST CALLVALUE DUP1 ISZERO PUSH2 0x3D6 JUMPI PUSH0 PUSH0 REVERT JUMPDEST POP PUSH2 0x3DF PUSH2 0xC97 JUMP JUMPDEST PUSH1 0x40 MLOAD PUSH2 0x3EC SWAP2 SWAP1 PUSH2 0x1572 JUMP JUMPDEST PUSH1 0x40 MLOAD DUP1 SWAP2 SUB SWAP1 RETURN JUMPDEST PUSH1 0x60 PUSH1 0x3 DUP1 SLOAD PUSH2 0x404 SWAP1 PUSH2 0x175D JUMP JUMPDEST DUP1 PUSH1 0x1F ADD PUSH1 0x20 DUP1 SWAP2 DIV MUL PUSH1 0x20 ADD PUSH1 0x40 MLOAD SWAP1 DUP2 ADD PUSH1 0x40 MSTORE DUP1 SWAP3 SWAP2 SWAP1 DUP2 DUP2 MSTORE PUSH1 0x20 ADD DUP3 DUP1 SLOAD PUSH2 0x430 SWAP1 PUSH2 0x175D JUMP JUMPDEST DUP1 ISZERO PUSH2 0x47B JUMPI DUP1 PUSH1 0x1F LT PUSH2 0x452 JUMPI PUSH2 0x100 DUP1 DUP4 SLOAD DIV MUL DUP4 MSTORE SWAP2 PUSH1 0x20 ADD SWAP2 PUSH2 0x47B JUMP JUMPDEST DUP3 ADD SWAP2 SWAP1 PUSH0 MSTORE PUSH1 0x20 PUSH0 KECCAK256 SWAP1 JUMPDEST DUP2 SLOAD DUP2 MSTORE SWAP1 PUSH1 0x1 ADD SWAP1 PUSH1 0x20 ADD DUP1 DUP4 GT PUSH2 0x45E JUMPI DUP3 SWAP1 SUB PUSH1 0x1F AND DUP3 ADD SWAP2 JUMPDEST POP POP POP POP POP SWAP1 POP SWAP1 JUMP JUMPDEST PUSH0 PUSH0 PUSH2 0x48F PUSH2 0xC9D JUMP JUMPDEST SWAP1 POP PUSH2 0x49C DUP2 DUP6 DUP6 PUSH2 0xCA4 JUMP JUMPDEST PUSH1 0x1 SWAP2 POP POP SWAP3 SWAP2 POP POP JUMP JUMPDEST PUSH0 PUSH1 0x2 SLOAD SWAP1 POP SWAP1 JUMP JUMPDEST PUSH0 PUSH0 PUSH2 0x4BC DUP6 CALLER PUSH2 0xBF0 JUMP JUMPDEST SWAP1 POP DUP3 DUP2 LT ISZERO PUSH2 0x501 JUMPI PUSH1 0x40 MLOAD PUSH32 0x8C379A000000000000000000000000000000000000000000000000000000000 DUP2 MSTORE PUSH1 0x4 ADD PUSH2 0x4F8 SWAP1 PUSH2 0x17FD JUMP JUMPDEST PUSH1 0x40 MLOAD DUP1 SWAP2 SUB SWAP1 REVERT JUMPDEST PUSH2 0x50B DUP6 DUP5 PUSH2 0xCB6 JUMP JUMPDEST PUSH0 PUSH2 0x515 DUP5 PUSH2 0xEB4 JUMP JUMPDEST SWAP1 POP PUSH0 DUP2 DUP6 PUSH2 0x524 SWAP2 SWAP1 PUSH2 0x1848 JUMP JUMPDEST SWAP1 POP DUP1 PUSH2 0x530 DUP9 PUSH2 0x5F9 JUMP JUMPDEST LT ISZERO PUSH2 0x571 JUMPI PUSH1 0x40 MLOAD PUSH32 0x8C379A000000000000000000000000000000000000000000000000000000000 DUP2 MSTORE PUSH1 0x4 ADD PUSH2 0x568 SWAP1 PUSH2 0x18EB JUMP JUMPDEST PUSH1 0x40 MLOAD DUP1 SWAP2 SUB SWAP1 REVERT JUMPDEST PUSH2 0x57C DUP8 DUP8 DUP8 PUSH2 0xED7 JUMP JUMPDEST PUSH2 0x5A8 DUP8 PUSH1 0x6 PUSH0 SWAP1 SLOAD SWAP1 PUSH2 0x100 EXP SWAP1 DIV PUSH20 0xFFFFFFFFFFFFFFFFFFFFFFFFFFFFFFFFFFFFFFFF AND DUP5 PUSH2 0xED7 JUMP JUMPDEST PUSH2 0x5BE DUP8 CALLER DUP8 DUP7 PUSH2 0x5B9 SWAP2 SWAP1 PUSH2 0x1909 JUMP JUMPDEST PUSH2 0xCA4 JUMP JUMPDEST PUSH1 0x1 SWAP4 POP POP POP POP SWAP4 SWAP3 POP POP POP JUMP JUMPDEST PUSH0 PUSH1 0x12 SWAP1 POP SWAP1 JUMP JUMPDEST PUSH1 0xB PUSH0 SWAP1 SLOAD SWAP1 PUSH2 0x100 EXP SWAP1 DIV PUSH20 0xFFFFFFFFFFFFFFFFFFFFFFFFFFFFFFFFFFFFFFFF AND DUP2 JUMP JUMPDEST PUSH0 PUSH0 PUSH0 DUP4 PUSH20 0xFFFFFFFFFFFFFFFFFFFFFFFFFFFFFFFFFFFFFFFF AND PUSH20 0xFFFFFFFFFFFFFFFFFFFFFFFFFFFFFFFFFFFFFFFF AND DUP2 MSTORE PUSH1 0x20 ADD SWAP1 DUP2 MSTORE PUSH1 0x20 ADD PUSH0 KECCAK256 SLOAD SWAP1 POP SWAP2 SWAP1 POP JUMP JUMPDEST PUSH1 0x5 SLOAD DUP2 JUMP JUMPDEST PUSH1 0x60 PUSH1 0x4 DUP1 SLOAD PUSH2 0x653 SWAP1 PUSH2 0x175D JUMP JUMPDEST DUP1 PUSH1 0x1F ADD PUSH1 0x20 DUP1 SWAP2 DIV MUL PUSH1 0x20 ADD PUSH1 0x40 MLOAD SWAP1 DUP2 ADD PUSH1 0x40 MSTORE DUP1 SWAP3 SWAP2 SWAP1 DUP2 DUP2 MSTORE PUSH1 0x20 ADD DUP3 DUP1 SLOAD PUSH2 0x67F SWAP1 PUSH2 0x175D JUMP JUMPDEST DUP1 ISZERO PUSH2 0x6CA JUMPI DUP1 PUSH1 0x1F LT PUSH2 0x6A1 JUMPI PUSH2 0x100 DUP1 DUP4 SLOAD DIV MUL DUP4 MSTORE SWAP2 PUSH1 0x20 ADD SWAP2 PUSH2 0x6CA JUMP JUMPDEST DUP3 ADD SWAP2 SWAP1 PUSH0 MSTORE PUSH1 0x20 PUSH0 KECCAK256 SWAP1 JUMPDEST DUP2 SLOAD DUP2 MSTORE SWAP1 PUSH1 0x1 ADD SWAP1 PUSH1 0x20 ADD DUP1 DUP4 GT PUSH2 0x6AD JUMPI DUP3 SWAP1 SUB PUSH1 0x1F AND DUP3 ADD SWAP2 JUMPDEST POP POP POP POP POP SWAP1 POP SWAP1 JUMP JUMPDEST PUSH0 PUSH0 PUSH0 PUSH20 0xFFFFFFFFFFFFFFFFFFFFFFFFFFFFFFFFFFFFFFFF AND PUSH1 0xB PUSH0 SWAP1 SLOAD SWAP1 PUSH2 0x100 EXP SWAP1 DIV PUSH20 0xFFFFFFFFFFFFFFFFFFFFFFFFFFFFFFFFFFFFFFFF AND PUSH20 0xFFFFFFFFFFFFFFFFFFFFFFFFFFFFFFFFFFFFFFFF AND SUB PUSH2 0x765 JUMPI PUSH1 0x40 MLOAD PUSH32 0x8C379A000000000000000000000000000000000000000000000000000000000 DUP2 MSTORE PUSH1 0x4 ADD PUSH2 0x75C SWAP1 PUSH2 0x1986 JUMP JUMPDEST PUSH1 0x40 MLOAD DUP1 SWAP2 SUB SWAP1 REVERT JUMPDEST PUSH1 0xB PUSH0 SWAP1 SLOAD SWAP1 PUSH2 0x100 EXP SWAP1 DIV PUSH20 0xFFFFFFFFFFFFFFFFFFFFFFFFFFFFFFFFFFFFFFFF AND PUSH20 0xFFFFFFFFFFFFFFFFFFFFFFFFFFFFFFFFFFFFFFFF AND PUSH4 0x23B872DD CALLER PUSH1 0xB PUSH0 SWAP1 SLOAD SWAP1 PUSH2 0x100 EXP SWAP1 DIV PUSH20 0xFFFFFFFFFFFFFFFFFFFFFFFFFFFFFFFFFFFFFFFF AND DUP7 PUSH1 0x40 MLOAD DUP5 PUSH4 0xFFFFFFFF AND PUSH1 0xE0 SHL DUP2 MSTORE PUSH1 0x4 ADD PUSH2 0x7E4 SWAP4 SWAP3 SWAP2 SWAP1 PUSH2 0x19A4 JUMP JUMPDEST PUSH1 0x20 PUSH1 0x40 MLOAD DUP1 DUP4 SUB DUP2 PUSH0 DUP8 GAS CALL ISZERO DUP1 ISZERO PUSH2 0x800 JUMPI RETURNDATASIZE PUSH0 PUSH0 RETURNDATACOPY RETURNDATASIZE PUSH0 REVERT JUMPDEST POP POP POP POP PUSH1 0x40 MLOAD RETURNDATASIZE PUSH1 0x1F NOT PUSH1 0x1F DUP3 ADD AND DUP3 ADD DUP1 PUSH1 0x40 MSTORE POP DUP2 ADD SWAP1 PUSH2 0x824 SWAP2 SWAP1 PUSH2 0x1A03 JUMP JUMPDEST POP PUSH1 0xB PUSH0 SWAP1 SLOAD SWAP1 PUSH2 0x100 EXP SWAP1 DIV PUSH20 0xFFFFFFFFFFFFFFFFFFFFFFFFFFFFFFFFFFFFFFFF AND PUSH20 0xFFFFFFFFFFFFFFFFFFFFFFFFFFFFFFFFFFFFFFFF AND PUSH4 0x89AFCB44 CALLER PUSH1 0x40 MLOAD DUP3 PUSH4 0xFFFFFFFF AND PUSH1 0xE0 SHL DUP2 MSTORE PUSH1 0x4 ADD PUSH2 0x87F SWAP2 SWAP1 PUSH2 0x161E JUMP JUMPDEST PUSH1 0x40 DUP1 MLOAD DUP1 DUP4 SUB DUP2 PUSH0 DUP8 GAS CALL ISZERO DUP1 ISZERO PUSH2 0x89A JUMPI RETURNDATASIZE PUSH0 PUSH0 RETURNDATACOPY RETURNDATASIZE PUSH0 REVERT JUMPDEST POP POP POP POP PUSH1 0x40 MLOAD RETURNDATASIZE PUSH1 0x1F NOT PUSH1 0x1F DUP3 ADD AND DUP3 ADD DUP1 PUSH1 0x40 MSTORE POP DUP2 ADD SWAP1 PUSH2 0x8BE SWAP2 SWAP1 PUSH2 0x1A42 JUMP JUMPDEST DUP1 SWAP3 POP DUP2 SWAP4 POP POP POP SWAP2 POP SWAP2 JUMP JUMPDEST PUSH0 PUSH20 0xFFFFFFFFFFFFFFFFFFFFFFFFFFFFFFFFFFFFFFFF AND PUSH1 0xB PUSH0 SWAP1 SLOAD SWAP1 PUSH2 0x100 EXP SWAP1 DIV PUSH20 0xFFFFFFFFFFFFFFFFFFFFFFFFFFFFFFFFFFFFFFFF AND PUSH20 0xFFFFFFFFFFFFFFFFFFFFFFFFFFFFFFFFFFFFFFFF AND SUB PUSH2 0x95A JUMPI PUSH1 0x40 MLOAD PUSH32 0x8C379A000000000000000000000000000000000000000000000000000000000 DUP2 MSTORE PUSH1 0x4 ADD PUSH2 0x951 SWAP1 PUSH2 0x1986 JUMP JUMPDEST PUSH1 0x40 MLOAD DUP1 SWAP2 SUB SWAP1 REVERT JUMPDEST CALLVALUE DUP2 EQ PUSH2 0x99C JUMPI PUSH1 0x40 MLOAD PUSH32 0x8C379A000000000000000000000000000000000000000000000000000000000 DUP2 MSTORE PUSH1 0x4 ADD PUSH2 0x993 SWAP1 PUSH2 0x1ACA JUMP JUMPDEST PUSH1 0x40 MLOAD DUP1 SWAP2 SUB SWAP1 REVERT JUMPDEST PUSH2 0x9C8 CALLER PUSH1 0xB PUSH0 SWAP1 SLOAD SWAP1 PUSH2 0x100 EXP SWAP1 DIV PUSH20 0xFFFFFFFFFFFFFFFFFFFFFFFFFFFFFFFFFFFFFFFF AND DUP5 PUSH2 0xED7 JUMP JUMPDEST PUSH0 PUSH1 0xB PUSH0 SWAP1 SLOAD SWAP1 PUSH2 0x100 EXP SWAP1 DIV PUSH20 0xFFFFFFFFFFFFFFFFFFFFFFFFFFFFFFFFFFFFFFFF AND PUSH20 0xFFFFFFFFFFFFFFFFFFFFFFFFFFFFFFFFFFFFFFFF AND DUP3 PUSH1 0x40 MLOAD PUSH2 0xA0E SWAP1 PUSH2 0x1B15 JUMP JUMPDEST PUSH0 PUSH1 0x40 MLOAD DUP1 DUP4 SUB DUP2 DUP6 DUP8 GAS CALL SWAP3 POP POP POP RETURNDATASIZE DUP1 PUSH0 DUP2 EQ PUSH2 0xA48 JUMPI PUSH1 0x40 MLOAD SWAP2 POP PUSH1 0x1F NOT PUSH1 0x3F RETURNDATASIZE ADD AND DUP3 ADD PUSH1 0x40 MSTORE RETURNDATASIZE DUP3 MSTORE RETURNDATASIZE PUSH0 PUSH1 0x20 DUP5 ADD RETURNDATACOPY PUSH2 0xA4D JUMP JUMPDEST PUSH1 0x60 SWAP2 POP JUMPDEST POP POP SWAP1 POP DUP1 PUSH2 0xA91 JUMPI PUSH1 0x40 MLOAD PUSH32 0x8C379A000000000000000000000000000000000000000000000000000000000 DUP2 MSTORE PUSH1 0x4 ADD PUSH2 0xA88 SWAP1 PUSH2 0x1B73 JUMP JUMPDEST PUSH1 0x40 MLOAD DUP1 SWAP2 SUB SWAP1 REVERT JUMPDEST PUSH1 0xB PUSH0 SWAP1 SLOAD SWAP1 PUSH2 0x100 EXP SWAP1 DIV PUSH20 0xFFFFFFFFFFFFFFFFFFFFFFFFFFFFFFFFFFFFFFFF AND PUSH20 0xFFFFFFFFFFFFFFFFFFFFFFFFFFFFFFFFFFFFFFFF AND PUSH4 0x6A627842 CALLER PUSH1 0x40 MLOAD DUP3 PUSH4 0xFFFFFFFF AND PUSH1 0xE0 SHL DUP2 MSTORE PUSH1 0x4 ADD PUSH2 0xAEB SWAP2 SWAP1 PUSH2 0x161E JUMP JUMPDEST PUSH1 0x20 PUSH1 0x40 MLOAD DUP1 DUP4 SUB DUP2 PUSH0 DUP8 GAS CALL ISZERO DUP1 ISZERO PUSH2 0xB07 JUMPI RETURNDATASIZE PUSH0 PUSH0 RETURNDATACOPY RETURNDATASIZE PUSH0 REVERT JUMPDEST POP POP POP POP PUSH1 0x40 MLOAD RETURNDATASIZE PUSH1 0x1F NOT PUSH1 0x1F DUP3 ADD AND DUP3 ADD DUP1 PUSH1 0x40 MSTORE POP DUP2 ADD SWAP1 PUSH2 0xB2B SWAP2 SWAP1 PUSH2 0x1B91 JUMP JUMPDEST POP POP POP POP JUMP JUMPDEST PUSH0 PUSH0 CALLER SWAP1 POP PUSH2 0xB40 DUP2 DUP5 PUSH2 0xCB6 JUMP JUMPDEST PUSH0 PUSH2 0xB4A DUP5 PUSH2 0xEB4 JUMP JUMPDEST SWAP1 POP PUSH0 DUP2 DUP6 PUSH2 0xB59 SWAP2 SWAP1 PUSH2 0x1848 JUMP JUMPDEST SWAP1 POP DUP1 PUSH2 0xB65 DUP5 PUSH2 0x5F9 JUMP JUMPDEST LT ISZERO PUSH2 0xBA6 JUMPI PUSH1 0x40 MLOAD PUSH32 0x8C379A000000000000000000000000000000000000000000000000000000000 DUP2 MSTORE PUSH1 0x4 ADD PUSH2 0xB9D SWAP1 PUSH2 0x18EB JUMP JUMPDEST PUSH1 0x40 MLOAD DUP1 SWAP2 SUB SWAP1 REVERT JUMPDEST PUSH2 0xBB0 DUP7 DUP7 PUSH2 0xFC7 JUMP JUMPDEST POP PUSH2 0xBDC PUSH1 0x6 PUSH0 SWAP1 SLOAD SWAP1 PUSH2 0x100 EXP SWAP1 DIV PUSH20 0xFFFFFFFFFFFFFFFFFFFFFFFFFFFFFFFFFFFFFFFF AND DUP4 PUSH2 0xFC7 JUMP JUMPDEST POP PUSH1 0x1 SWAP4 POP POP POP POP SWAP3 SWAP2 POP POP JUMP JUMPDEST PUSH1 0x7 SLOAD DUP2 JUMP JUMPDEST PUSH0 PUSH1 0x1 PUSH0 DUP5 PUSH20 0xFFFFFFFFFFFFFFFFFFFFFFFFFFFFFFFFFFFFFFFF AND PUSH20 0xFFFFFFFFFFFFFFFFFFFFFFFFFFFFFFFFFFFFFFFF AND DUP2 MSTORE PUSH1 0x20 ADD SWAP1 DUP2 MSTORE PUSH1 0x20 ADD PUSH0 KECCAK256 PUSH0 DUP4 PUSH20 0xFFFFFFFFFFFFFFFFFFFFFFFFFFFFFFFFFFFFFFFF AND PUSH20 0xFFFFFFFFFFFFFFFFFFFFFFFFFFFFFFFFFFFFFFFF AND DUP2 MSTORE PUSH1 0x20 ADD SWAP1 DUP2 MSTORE PUSH1 0x20 ADD PUSH0 KECCAK256 SLOAD SWAP1 POP SWAP3 SWAP2 POP POP JUMP JUMPDEST PUSH1 0x6 PUSH0 SWAP1 SLOAD SWAP1 PUSH2 0x100 EXP SWAP1 DIV PUSH20 0xFFFFFFFFFFFFFFFFFFFFFFFFFFFFFFFFFFFFFFFF AND DUP2 JUMP JUMPDEST PUSH1 0x8 SLOAD DUP2 JUMP JUMPDEST PUSH0 CALLER SWAP1 POP SWAP1 JUMP JUMPDEST PUSH2 0xCB1 DUP4 DUP4 DUP4 PUSH1 0x1 PUSH2 0xFE9 JUMP JUMPDEST POP POP POP JUMP JUMPDEST PUSH1 0x7 SLOAD DUP2 GT ISZERO PUSH2 0xCFB JUMPI PUSH1 0x40 MLOAD PUSH32 0x8C379A000000000000000000000000000000000000000000000000000000000 DUP2 MSTORE PUSH1 0x4 ADD PUSH2 0xCF2 SWAP1 PUSH2 0x1C06 JUMP JUMPDEST PUSH1 0x40 MLOAD DUP1 SWAP2 SUB SWAP1 REVERT JUMPDEST PUSH0 PUSH3 0x15180 TIMESTAMP PUSH2 0xD0B SWAP2 SWAP1 PUSH2 0x1C51 JUMP JUMPDEST SWAP1 POP PUSH0 PUSH1 0xA PUSH0 DUP6 PUSH20 0xFFFFFFFFFFFFFFFFFFFFFFFFFFFFFFFFFFFFFFFF AND PUSH20 0xFFFFFFFFFFFFFFFFFFFFFFFFFFFFFFFFFFFFFFFF AND DUP2 MSTORE PUSH1 0x20 ADD SWAP1 DUP2 MSTORE PUSH1 0x20 ADD PUSH0 KECCAK256 SLOAD SWAP1 POP DUP1 DUP3 GT ISZERO PUSH2 0xDDB JUMPI PUSH0 PUSH1 0x9 PUSH0 DUP7 PUSH20 0xFFFFFFFFFFFFFFFFFFFFFFFFFFFFFFFFFFFFFFFF AND PUSH20 0xFFFFFFFFFFFFFFFFFFFFFFFFFFFFFFFFFFFFFFFF AND DUP2 MSTORE PUSH1 0x20 ADD SWAP1 DUP2 MSTORE PUSH1 0x20 ADD PUSH0 KECCAK256 DUP2 SWAP1 SSTORE POP DUP2 PUSH1 0xA PUSH0 DUP7 PUSH20 0xFFFFFFFFFFFFFFFFFFFFFFFFFFFFFFFFFFFFFFFF AND PUSH20 0xFFFFFFFFFFFFFFFFFFFFFFFFFFFFFFFFFFFFFFFF AND DUP2 MSTORE PUSH1 0x20 ADD SWAP1 DUP2 MSTORE PUSH1 0x20 ADD PUSH0 KECCAK256 DUP2 SWAP1 SSTORE POP JUMPDEST PUSH1 0x8 SLOAD PUSH1 0x9 PUSH0 DUP7 PUSH20 0xFFFFFFFFFFFFFFFFFFFFFFFFFFFFFFFFFFFFFFFF AND PUSH20 0xFFFFFFFFFFFFFFFFFFFFFFFFFFFFFFFFFFFFFFFF AND DUP2 MSTORE PUSH1 0x20 ADD SWAP1 DUP2 MSTORE PUSH1 0x20 ADD PUSH0 KECCAK256 SLOAD LT PUSH2 0xE5C JUMPI PUSH1 0x40 MLOAD PUSH32 0x8C379A000000000000000000000000000000000000000000000000000000000 DUP2 MSTORE PUSH1 0x4 ADD PUSH2 0xE53 SWAP1 PUSH2 0x1CCB JUMP JUMPDEST PUSH1 0x40 MLOAD DUP1 SWAP2 SUB SWAP1 REVERT JUMPDEST PUSH1 0x9 PUSH0 DUP6 PUSH20 0xFFFFFFFFFFFFFFFFFFFFFFFFFFFFFFFFFFFFFFFF AND PUSH20 0xFFFFFFFFFFFFFFFFFFFFFFFFFFFFFFFFFFFFFFFF AND DUP2 MSTORE PUSH1 0x20 ADD SWAP1 DUP2 MSTORE PUSH1 0x20 ADD PUSH0 KECCAK256 PUSH0 DUP2 SLOAD DUP1 SWAP3 SWAP2 SWAP1 PUSH2 0xEA9 SWAP1 PUSH2 0x1CE9 JUMP JUMPDEST SWAP2 SWAP1 POP SSTORE POP POP POP POP POP JUMP JUMPDEST PUSH0 PUSH2 0x2710 PUSH1 0x5 SLOAD DUP4 PUSH2 0xEC6 SWAP2 SWAP1 PUSH2 0x1D30 JUMP JUMPDEST PUSH2 0xED0 SWAP2 SWAP1 PUSH2 0x1C51 JUMP JUMPDEST SWAP1 POP SWAP2 SWAP1 POP JUMP JUMPDEST PUSH0 PUSH20 0xFFFFFFFFFFFFFFFFFFFFFFFFFFFFFFFFFFFFFFFF AND DUP4 PUSH20 0xFFFFFFFFFFFFFFFFFFFFFFFFFFFFFFFFFFFFFFFF AND SUB PUSH2 0xF47 JUMPI PUSH0 PUSH1 0x40 MLOAD PUSH32 0x96C6FD1E00000000000000000000000000000000000000000000000000000000 DUP2 MSTORE PUSH1 0x4 ADD PUSH2 0xF3E SWAP2 SWAP1 PUSH2 0x161E JUMP JUMPDEST PUSH1 0x40 MLOAD DUP1 SWAP2 SUB SWAP1 REVERT JUMPDEST PUSH0 PUSH20 0xFFFFFFFFFFFFFFFFFFFFFFFFFFFFFFFFFFFFFFFF AND DUP3 PUSH20 0xFFFFFFFFFFFFFFFFFFFFFFFFFFFFFFFFFFFFFFFF AND SUB PUSH2 0xFB7 JUMPI PUSH0 PUSH1 0x40 MLOAD PUSH32 0xEC442F0500000000000000000000000000000000000000000000000000000000 DUP2 MSTORE PUSH1 0x4 ADD PUSH2 0xFAE SWAP2 SWAP1 PUSH2 0x161E JUMP JUMPDEST PUSH1 0x40 MLOAD DUP1 SWAP2 SUB SWAP1 REVERT JUMPDEST PUSH2 0xFC2 DUP4 DUP4 DUP4 PUSH2 0x11B8 JUMP JUMPDEST POP POP POP JUMP JUMPDEST PUSH0 PUSH0 PUSH2 0xFD1 PUSH2 0xC9D JUMP JUMPDEST SWAP1 POP PUSH2 0xFDE DUP2 DUP6 DUP6 PUSH2 0xED7 JUMP JUMPDEST PUSH1 0x1 SWAP2 POP POP SWAP3 SWAP2 POP POP JUMP JUMPDEST PUSH0 PUSH20 0xFFFFFFFFFFFFFFFFFFFFFFFFFFFFFFFFFFFFFFFF AND DUP5 PUSH20 0xFFFFFFFFFFFFFFFFFFFFFFFFFFFFFFFFFFFFFFFF AND SUB PUSH2 0x1059 JUMPI PUSH0 PUSH1 0x40 MLOAD PUSH32 0xE602DF0500000000000000000000000000000000000000000000000000000000 DUP2 MSTORE PUSH1 0x4 ADD PUSH2 0x1050 SWAP2 SWAP1 PUSH2 0x161E JUMP JUMPDEST PUSH1 0x40 MLOAD DUP1 SWAP2 SUB SWAP1 REVERT JUMPDEST PUSH0 PUSH20 0xFFFFFFFFFFFFFFFFFFFFFFFFFFFFFFFFFFFFFFFF AND DUP4 PUSH20 0xFFFFFFFFFFFFFFFFFFFFFFFFFFFFFFFFFFFFFFFF AND SUB PUSH2 0x10C9 JUMPI PUSH0 PUSH1 0x40 MLOAD PUSH32 0x94280D6200000000000000000000000000000000000000000000000000000000 DUP2 MSTORE PUSH1 0x4 ADD PUSH2 0x10C0 SWAP2 SWAP1 PUSH2 0x161E JUMP JUMPDEST PUSH1 0x40 MLOAD DUP1 SWAP2 SUB SWAP1 REVERT JUMPDEST DUP2 PUSH1 0x1 PUSH0 DUP7 PUSH20 0xFFFFFFFFFFFFFFFFFFFFFFFFFFFFFFFFFFFFFFFF AND PUSH20 0xFFFFFFFFFFFFFFFFFFFFFFFFFFFFFFFFFFFFFFFF AND DUP2 MSTORE PUSH1 0x20 ADD SWAP1 DUP2 MSTORE PUSH1 0x20 ADD PUSH0 KECCAK256 PUSH0 DUP6 PUSH20 0xFFFFFFFFFFFFFFFFFFFFFFFFFFFFFFFFFFFFFFFF AND PUSH20 0xFFFFFFFFFFFFFFFFFFFFFFFFFFFFFFFFFFFFFFFF AND DUP2 MSTORE PUSH1 0x20 ADD SWAP1 DUP2 MSTORE PUSH1 0x20 ADD PUSH0 KECCAK256 DUP2 SWAP1 SSTORE POP DUP1 ISZERO PUSH2 0x11B2 JUMPI DUP3 PUSH20 0xFFFFFFFFFFFFFFFFFFFFFFFFFFFFFFFFFFFFFFFF AND DUP5 PUSH20 0xFFFFFFFFFFFFFFFFFFFFFFFFFFFFFFFFFFFFFFFF AND PUSH32 0x8C5BE1E5EBEC7D5BD14F71427D1E84F3DD0314C0F7B2291E5B200AC8C7C3B925 DUP5 PUSH1 0x40 MLOAD PUSH2 0x11A9 SWAP2 SWAP1 PUSH2 0x1572 JUMP JUMPDEST PUSH1 0x40 MLOAD DUP1 SWAP2 SUB SWAP1 LOG3 JUMPDEST POP POP POP POP JUMP JUMPDEST PUSH0 PUSH20 0xFFFFFFFFFFFFFFFFFFFFFFFFFFFFFFFFFFFFFFFF AND DUP4 PUSH20 0xFFFFFFFFFFFFFFFFFFFFFFFFFFFFFFFFFFFFFFFF AND SUB PUSH2 0x1208 JUMPI DUP1 PUSH1 0x2 PUSH0 DUP3 DUP3 SLOAD PUSH2 0x11FC SWAP2 SWAP1 PUSH2 0x1848 JUMP JUMPDEST SWAP3 POP POP DUP2 SWAP1 SSTORE POP PUSH2 0x12D6 JUMP JUMPDEST PUSH0 PUSH0 PUSH0 DUP6 PUSH20 0xFFFFFFFFFFFFFFFFFFFFFFFFFFFFFFFFFFFFFFFF AND PUSH20 0xFFFFFFFFFFFFFFFFFFFFFFFFFFFFFFFFFFFFFFFF AND DUP2 MSTORE PUSH1 0x20 ADD SWAP1 DUP2 MSTORE PUSH1 0x20 ADD PUSH0 KECCAK256 SLOAD SWAP1 POP DUP2 DUP2 LT ISZERO PUSH2 0x1291 JUMPI DUP4 DUP2 DUP4 PUSH1 0x40 MLOAD PUSH32 0xE450D38C00000000000000000000000000000000000000000000000000000000 DUP2 MSTORE PUSH1 0x4 ADD PUSH2 0x1288 SWAP4 SWAP3 SWAP2 SWAP1 PUSH2 0x1D71 JUMP JUMPDEST PUSH1 0x40 MLOAD DUP1 SWAP2 SUB SWAP1 REVERT JUMPDEST DUP2 DUP2 SUB PUSH0 PUSH0 DUP7 PUSH20 0xFFFFFFFFFFFFFFFFFFFFFFFFFFFFFFFFFFFFFFFF AND PUSH20 0xFFFFFFFFFFFFFFFFFFFFFFFFFFFFFFFFFFFFFFFF AND DUP2 MSTORE PUSH1 0x20 ADD SWAP1 DUP2 MSTORE PUSH1 0x20 ADD PUSH0 KECCAK256 DUP2 SWAP1 SSTORE POP POP JUMPDEST PUSH0 PUSH20 0xFFFFFFFFFFFFFFFFFFFFFFFFFFFFFFFFFFFFFFFF AND DUP3 PUSH20 0xFFFFFFFFFFFFFFFFFFFFFFFFFFFFFFFFFFFFFFFF AND SUB PUSH2 0x131D JUMPI DUP1 PUSH1 0x2 PUSH0 DUP3 DUP3 SLOAD SUB SWAP3 POP POP DUP2 SWAP1 SSTORE POP PUSH2 0x1367 JUMP JUMPDEST DUP1 PUSH0 PUSH0 DUP5 PUSH20 0xFFFFFFFFFFFFFFFFFFFFFFFFFFFFFFFFFFFFFFFF AND PUSH20 0xFFFFFFFFFFFFFFFFFFFFFFFFFFFFFFFFFFFFFFFF AND DUP2 MSTORE PUSH1 0x20 ADD SWAP1 DUP2 MSTORE PUSH1 0x20 ADD PUSH0 KECCAK256 PUSH0 DUP3 DUP3 SLOAD ADD SWAP3 POP POP DUP2 SWAP1 SSTORE POP JUMPDEST DUP2 PUSH20 0xFFFFFFFFFFFFFFFFFFFFFFFFFFFFFFFFFFFFFFFF AND DUP4 PUSH20 0xFFFFFFFFFFFFFFFFFFFFFFFFFFFFFFFFFFFFFFFF AND PUSH32 0xDDF252AD1BE2C89B69C2B068FC378DAA952BA7F163C4A11628F55A4DF523B3EF DUP4 PUSH1 0x40 MLOAD PUSH2 0x13C4 SWAP2 SWAP1 PUSH2 0x1572 JUMP JUMPDEST PUSH1 0x40 MLOAD DUP1 SWAP2 SUB SWAP1 LOG3 POP POP POP JUMP JUMPDEST PUSH0 DUP2 MLOAD SWAP1 POP SWAP2 SWAP1 POP JUMP JUMPDEST PUSH0 DUP3 DUP3 MSTORE PUSH1 0x20 DUP3 ADD SWAP1 POP SWAP3 SWAP2 POP POP JUMP JUMPDEST DUP3 DUP2 DUP4 MCOPY PUSH0 DUP4 DUP4 ADD MSTORE POP POP POP JUMP JUMPDEST PUSH0 PUSH1 0x1F NOT PUSH1 0x1F DUP4 ADD AND SWAP1 POP SWAP2 SWAP1 POP JUMP JUMPDEST PUSH0 PUSH2 0x1413 DUP3 PUSH2 0x13D1 JUMP JUMPDEST PUSH2 0x141D DUP2 DUP6 PUSH2 0x13DB JUMP JUMPDEST SWAP4 POP PUSH2 0x142D DUP2 DUP6 PUSH1 0x20 DUP7 ADD PUSH2 0x13EB JUMP JUMPDEST PUSH2 0x1436 DUP2 PUSH2 0x13F9 JUMP JUMPDEST DUP5 ADD SWAP2 POP POP SWAP3 SWAP2 POP POP JUMP JUMPDEST PUSH0 PUSH1 0x20 DUP3 ADD SWAP1 POP DUP2 DUP2 SUB PUSH0 DUP4 ADD MSTORE PUSH2 0x1459 DUP2 DUP5 PUSH2 0x1409 JUMP JUMPDEST SWAP1 POP SWAP3 SWAP2 POP POP JUMP JUMPDEST PUSH0 PUSH0 REVERT JUMPDEST PUSH0 PUSH20 0xFFFFFFFFFFFFFFFFFFFFFFFFFFFFFFFFFFFFFFFF DUP3 AND SWAP1 POP SWAP2 SWAP1 POP JUMP JUMPDEST PUSH0 PUSH2 0x148E DUP3 PUSH2 0x1465 JUMP JUMPDEST SWAP1 POP SWAP2 SWAP1 POP JUMP JUMPDEST PUSH2 0x149E DUP2 PUSH2 0x1484 JUMP JUMPDEST DUP2 EQ PUSH2 0x14A8 JUMPI PUSH0 PUSH0 REVERT JUMPDEST POP JUMP JUMPDEST PUSH0 DUP2 CALLDATALOAD SWAP1 POP PUSH2 0x14B9 DUP2 PUSH2 0x1495 JUMP JUMPDEST SWAP3 SWAP2 POP POP JUMP JUMPDEST PUSH0 DUP2 SWAP1 POP SWAP2 SWAP1 POP JUMP JUMPDEST PUSH2 0x14D1 DUP2 PUSH2 0x14BF JUMP JUMPDEST DUP2 EQ PUSH2 0x14DB JUMPI PUSH0 PUSH0 REVERT JUMPDEST POP JUMP JUMPDEST PUSH0 DUP2 CALLDATALOAD SWAP1 POP PUSH2 0x14EC DUP2 PUSH2 0x14C8 JUMP JUMPDEST SWAP3 SWAP2 POP POP JUMP JUMPDEST PUSH0 PUSH0 PUSH1 0x40 DUP4 DUP6 SUB SLT ISZERO PUSH2 0x1508 JUMPI PUSH2 0x1507 PUSH2 0x1461 JUMP JUMPDEST JUMPDEST PUSH0 PUSH2 0x1515 DUP6 DUP3 DUP7 ADD PUSH2 0x14AB JUMP JUMPDEST SWAP3 POP POP PUSH1 0x20 PUSH2 0x1526 DUP6 DUP3 DUP7 ADD PUSH2 0x14DE JUMP JUMPDEST SWAP2 POP POP SWAP3 POP SWAP3 SWAP1 POP JUMP JUMPDEST PUSH0 DUP2 ISZERO ISZERO SWAP1 POP SWAP2 SWAP1 POP JUMP JUMPDEST PUSH2 0x1544 DUP2 PUSH2 0x1530 JUMP JUMPDEST DUP3 MSTORE POP POP JUMP JUMPDEST PUSH0 PUSH1 0x20 DUP3 ADD SWAP1 POP PUSH2 0x155D PUSH0 DUP4 ADD DUP5 PUSH2 0x153B JUMP JUMPDEST SWAP3 SWAP2 POP POP JUMP JUMPDEST PUSH2 0x156C DUP2 PUSH2 0x14BF JUMP JUMPDEST DUP3 MSTORE POP POP JUMP JUMPDEST PUSH0 PUSH1 0x20 DUP3 ADD SWAP1 POP PUSH2 0x1585 PUSH0 DUP4 ADD DUP5 PUSH2 0x1563 JUMP JUMPDEST SWAP3 SWAP2 POP POP JUMP JUMPDEST PUSH0 PUSH0 PUSH0 PUSH1 0x60 DUP5 DUP7 SUB SLT ISZERO PUSH2 0x15A2 JUMPI PUSH2 0x15A1 PUSH2 0x1461 JUMP JUMPDEST JUMPDEST PUSH0 PUSH2 0x15AF DUP7 DUP3 DUP8 ADD PUSH2 0x14AB JUMP JUMPDEST SWAP4 POP POP PUSH1 0x20 PUSH2 0x15C0 DUP7 DUP3 DUP8 ADD PUSH2 0x14AB JUMP JUMPDEST SWAP3 POP POP PUSH1 0x40 PUSH2 0x15D1 DUP7 DUP3 DUP8 ADD PUSH2 0x14DE JUMP JUMPDEST SWAP2 POP POP SWAP3 POP SWAP3 POP SWAP3 JUMP JUMPDEST PUSH0 PUSH1 0xFF DUP3 AND SWAP1 POP SWAP2 SWAP1 POP JUMP JUMPDEST PUSH2 0x15F0 DUP2 PUSH2 0x15DB JUMP JUMPDEST DUP3 MSTORE POP POP JUMP JUMPDEST PUSH0 PUSH1 0x20 DUP3 ADD SWAP1 POP PUSH2 0x1609 PUSH0 DUP4 ADD DUP5 PUSH2 0x15E7 JUMP JUMPDEST SWAP3 SWAP2 POP POP JUMP JUMPDEST PUSH2 0x1618 DUP2 PUSH2 0x1484 JUMP JUMPDEST DUP3 MSTORE POP POP JUMP JUMPDEST PUSH0 PUSH1 0x20 DUP3 ADD SWAP1 POP PUSH2 0x1631 PUSH0 DUP4 ADD DUP5 PUSH2 0x160F JUMP JUMPDEST SWAP3 SWAP2 POP POP JUMP JUMPDEST PUSH0 PUSH1 0x20 DUP3 DUP5 SUB SLT ISZERO PUSH2 0x164C JUMPI PUSH2 0x164B PUSH2 0x1461 JUMP JUMPDEST JUMPDEST PUSH0 PUSH2 0x1659 DUP5 DUP3 DUP6 ADD PUSH2 0x14AB JUMP JUMPDEST SWAP2 POP POP SWAP3 SWAP2 POP POP JUMP JUMPDEST PUSH0 PUSH1 0x20 DUP3 DUP5 SUB SLT ISZERO PUSH2 0x1677 JUMPI PUSH2 0x1676 PUSH2 0x1461 JUMP JUMPDEST JUMPDEST PUSH0 PUSH2 0x1684 DUP5 DUP3 DUP6 ADD PUSH2 0x14DE JUMP JUMPDEST SWAP2 POP POP SWAP3 SWAP2 POP POP JUMP JUMPDEST PUSH0 PUSH1 0x40 DUP3 ADD SWAP1 POP PUSH2 0x16A0 PUSH0 DUP4 ADD DUP6 PUSH2 0x1563 JUMP JUMPDEST PUSH2 0x16AD PUSH1 0x20 DUP4 ADD DUP5 PUSH2 0x1563 JUMP JUMPDEST SWAP4 SWAP3 POP POP POP JUMP JUMPDEST PUSH0 PUSH0 PUSH1 0x40 DUP4 DUP6 SUB SLT ISZERO PUSH2 0x16CA JUMPI PUSH2 0x16C9 PUSH2 0x1461 JUMP JUMPDEST JUMPDEST PUSH0 PUSH2 0x16D7 DUP6 DUP3 DUP7 ADD PUSH2 0x14DE JUMP JUMPDEST SWAP3 POP POP PUSH1 0x20 PUSH2 0x16E8 DUP6 DUP3 DUP7 ADD PUSH2 0x14DE JUMP JUMPDEST SWAP2 POP POP SWAP3 POP SWAP3 SWAP1 POP JUMP JUMPDEST PUSH0 PUSH0 PUSH1 0x40 DUP4 DUP6 SUB SLT ISZERO PUSH2 0x1708 JUMPI PUSH2 0x1707 PUSH2 0x1461 JUMP JUMPDEST JUMPDEST PUSH0 PUSH2 0x1715 DUP6 DUP3 DUP7 ADD PUSH2 0x14AB JUMP JUMPDEST SWAP3 POP POP PUSH1 0x20 PUSH2 0x1726 DUP6 DUP3 DUP7 ADD PUSH2 0x14AB JUMP JUMPDEST SWAP2 POP POP SWAP3 POP SWAP3 SWAP1 POP JUMP JUMPDEST PUSH32 0x4E487B7100000000000000000000000000000000000000000000000000000000 PUSH0 MSTORE PUSH1 0x22 PUSH1 0x4 MSTORE PUSH1 0x24 PUSH0 REVERT JUMPDEST PUSH0 PUSH1 0x2 DUP3 DIV SWAP1 POP PUSH1 0x1 DUP3 AND DUP1 PUSH2 0x1774 JUMPI PUSH1 0x7F DUP3 AND SWAP2 POP JUMPDEST PUSH1 0x20 DUP3 LT DUP2 SUB PUSH2 0x1787 JUMPI PUSH2 0x1786 PUSH2 0x1730 JUMP JUMPDEST JUMPDEST POP SWAP2 SWAP1 POP JUMP JUMPDEST PUSH32 0x45524332303A207472616E7366657220616D6F756E7420657863656564732061 PUSH0 DUP3 ADD MSTORE PUSH32 0x6C6C6F77616E6365000000000000000000000000000000000000000000000000 PUSH1 0x20 DUP3 ADD MSTORE POP JUMP JUMPDEST PUSH0 PUSH2 0x17E7 PUSH1 0x28 DUP4 PUSH2 0x13DB JUMP JUMPDEST SWAP2 POP PUSH2 0x17F2 DUP3 PUSH2 0x178D JUMP JUMPDEST PUSH1 0x40 DUP3 ADD SWAP1 POP SWAP2 SWAP1 POP JUMP JUMPDEST PUSH0 PUSH1 0x20 DUP3 ADD SWAP1 POP DUP2 DUP2 SUB PUSH0 DUP4 ADD MSTORE PUSH2 0x1814 DUP2 PUSH2 0x17DB JUMP JUMPDEST SWAP1 POP SWAP2 SWAP1 POP JUMP JUMPDEST PUSH32 0x4E487B7100000000000000000000000000000000000000000000000000000000 PUSH0 MSTORE PUSH1 0x11 PUSH1 0x4 MSTORE PUSH1 0x24 PUSH0 REVERT JUMPDEST PUSH0 PUSH2 0x1852 DUP3 PUSH2 0x14BF JUMP JUMPDEST SWAP2 POP PUSH2 0x185D DUP4 PUSH2 0x14BF JUMP JUMPDEST SWAP3 POP DUP3 DUP3 ADD SWAP1 POP DUP1 DUP3 GT ISZERO PUSH2 0x1875 JUMPI PUSH2 0x1874 PUSH2 0x181B JUMP JUMPDEST JUMPDEST SWAP3 SWAP2 POP POP JUMP JUMPDEST PUSH32 0x496E73756666696369656E742062616C616E636520696E636C7564696E672074 PUSH0 DUP3 ADD MSTORE PUSH32 0x6178000000000000000000000000000000000000000000000000000000000000 PUSH1 0x20 DUP3 ADD MSTORE POP JUMP JUMPDEST PUSH0 PUSH2 0x18D5 PUSH1 0x22 DUP4 PUSH2 0x13DB JUMP JUMPDEST SWAP2 POP PUSH2 0x18E0 DUP3 PUSH2 0x187B JUMP JUMPDEST PUSH1 0x40 DUP3 ADD SWAP1 POP SWAP2 SWAP1 POP JUMP JUMPDEST PUSH0 PUSH1 0x20 DUP3 ADD SWAP1 POP DUP2 DUP2 SUB PUSH0 DUP4 ADD MSTORE PUSH2 0x1902 DUP2 PUSH2 0x18C9 JUMP JUMPDEST SWAP1 POP SWAP2 SWAP1 POP JUMP JUMPDEST PUSH0 PUSH2 0x1913 DUP3 PUSH2 0x14BF JUMP JUMPDEST SWAP2 POP PUSH2 0x191E DUP4 PUSH2 0x14BF JUMP JUMPDEST SWAP3 POP DUP3 DUP3 SUB SWAP1 POP DUP2 DUP2 GT ISZERO PUSH2 0x1936 JUMPI PUSH2 0x1935 PUSH2 0x181B JUMP JUMPDEST JUMPDEST SWAP3 SWAP2 POP POP JUMP JUMPDEST PUSH32 0x4C697175696469747920706F6F6C206E6F742073657400000000000000000000 PUSH0 DUP3 ADD MSTORE POP JUMP JUMPDEST PUSH0 PUSH2 0x1970 PUSH1 0x16 DUP4 PUSH2 0x13DB JUMP JUMPDEST SWAP2 POP PUSH2 0x197B DUP3 PUSH2 0x193C JUMP JUMPDEST PUSH1 0x20 DUP3 ADD SWAP1 POP SWAP2 SWAP1 POP JUMP JUMPDEST PUSH0 PUSH1 0x20 DUP3 ADD SWAP1 POP DUP2 DUP2 SUB PUSH0 DUP4 ADD MSTORE PUSH2 0x199D DUP2 PUSH2 0x1964 JUMP JUMPDEST SWAP1 POP SWAP2 SWAP1 POP JUMP JUMPDEST PUSH0 PUSH1 0x60 DUP3 ADD SWAP1 POP PUSH2 0x19B7 PUSH0 DUP4 ADD DUP7 PUSH2 0x160F JUMP JUMPDEST PUSH2 0x19C4 PUSH1 0x20 DUP4 ADD DUP6 PUSH2 0x160F JUMP JUMPDEST PUSH2 0x19D1 PUSH1 0x40 DUP4 ADD DUP5 PUSH2 0x1563 JUMP JUMPDEST SWAP5 SWAP4 POP POP POP POP JUMP JUMPDEST PUSH2 0x19E2 DUP2 PUSH2 0x1530 JUMP JUMPDEST DUP2 EQ PUSH2 0x19EC JUMPI PUSH0 PUSH0 REVERT JUMPDEST POP JUMP JUMPDEST PUSH0 DUP2 MLOAD SWAP1 POP PUSH2 0x19FD DUP2 PUSH2 0x19D9 JUMP JUMPDEST SWAP3 SWAP2 POP POP JUMP JUMPDEST PUSH0 PUSH1 0x20 DUP3 DUP5 SUB SLT ISZERO PUSH2 0x1A18 JUMPI PUSH2 0x1A17 PUSH2 0x1461 JUMP JUMPDEST JUMPDEST PUSH0 PUSH2 0x1A25 DUP5 DUP3 DUP6 ADD PUSH2 0x19EF JUMP JUMPDEST SWAP2 POP POP SWAP3 SWAP2 POP POP JUMP JUMPDEST PUSH0 DUP2 MLOAD SWAP1 POP PUSH2 0x1A3C DUP2 PUSH2 0x14C8 JUMP JUMPDEST SWAP3 SWAP2 POP POP JUMP JUMPDEST PUSH0 PUSH0 PUSH1 0x40 DUP4 DUP6 SUB SLT ISZERO PUSH2 0x1A58 JUMPI PUSH2 0x1A57 PUSH2 0x1461 JUMP JUMPDEST JUMPDEST PUSH0 PUSH2 0x1A65 DUP6 DUP3 DUP7 ADD PUSH2 0x1A2E JUMP JUMPDEST SWAP3 POP POP PUSH1 0x20 PUSH2 0x1A76 DUP6 DUP3 DUP7 ADD PUSH2 0x1A2E JUMP JUMPDEST SWAP2 POP POP SWAP3 POP SWAP3 SWAP1 POP JUMP JUMPDEST PUSH32 0x45544820616D6F756E74206D69736D6174636800000000000000000000000000 PUSH0 DUP3 ADD MSTORE POP JUMP JUMPDEST PUSH0 PUSH2 0x1AB4 PUSH1 0x13 DUP4 PUSH2 0x13DB JUMP JUMPDEST SWAP2 POP PUSH2 0x1ABF DUP3 PUSH2 0x1A80 JUMP JUMPDEST PUSH1 0x20 DUP3 ADD SWAP1 POP SWAP2 SWAP1 POP JUMP JUMPDEST PUSH0 PUSH1 0x20 DUP3 ADD SWAP1 POP DUP2 DUP2 SUB PUSH0 DUP4 ADD MSTORE PUSH2 0x1AE1 DUP2 PUSH2 0x1AA8 JUMP JUMPDEST SWAP1 POP SWAP2 SWAP1 POP JUMP JUMPDEST PUSH0 DUP2 SWAP1 POP SWAP3 SWAP2 POP POP JUMP JUMPDEST POP JUMP JUMPDEST PUSH0 PUSH2 0x1B00 PUSH0 DUP4 PUSH2 0x1AE8 JUMP JUMPDEST SWAP2 POP PUSH2 0x1B0B DUP3 PUSH2 0x1AF2 JUMP JUMPDEST PUSH0 DUP3 ADD SWAP1 POP SWAP2 SWAP1 POP JUMP JUMPDEST PUSH0 PUSH2 0x1B1F DUP3 PUSH2 0x1AF5 JUMP JUMPDEST SWAP2 POP DUP2 SWAP1 POP SWAP2 SWAP1 POP JUMP JUMPDEST PUSH32 0x455448207472616E73666572206661696C656400000000000000000000000000 PUSH0 DUP3 ADD MSTORE POP JUMP JUMPDEST PUSH0 PUSH2 0x1B5D PUSH1 0x13 DUP4 PUSH2 0x13DB JUMP JUMPDEST SWAP2 POP PUSH2 0x1B68 DUP3 PUSH2 0x1B29 JUMP JUMPDEST PUSH1 0x20 DUP3 ADD SWAP1 POP SWAP2 SWAP1 POP JUMP JUMPDEST PUSH0 PUSH1 0x20 DUP3 ADD SWAP1 POP DUP2 DUP2 SUB PUSH0 DUP4 ADD MSTORE PUSH2 0x1B8A DUP2 PUSH2 0x1B51 JUMP JUMPDEST SWAP1 POP SWAP2 SWAP1 POP JUMP JUMPDEST PUSH0 PUSH1 0x20 DUP3 DUP5 SUB SLT ISZERO PUSH2 0x1BA6 JUMPI PUSH2 0x1BA5 PUSH2 0x1461 JUMP JUMPDEST JUMPDEST PUSH0 PUSH2 0x1BB3 DUP5 DUP3 DUP6 ADD PUSH2 0x1A2E JUMP JUMPDEST SWAP2 POP POP SWAP3 SWAP2 POP POP JUMP JUMPDEST PUSH32 0x5472616E73616374696F6E20616D6F756E742065786365656473206C696D6974 PUSH0 DUP3 ADD MSTORE POP JUMP JUMPDEST PUSH0 PUSH2 0x1BF0 PUSH1 0x20 DUP4 PUSH2 0x13DB JUMP JUMPDEST SWAP2 POP PUSH2 0x1BFB DUP3 PUSH2 0x1BBC JUMP JUMPDEST PUSH1 0x20 DUP3 ADD SWAP1 POP SWAP2 SWAP1 POP JUMP JUMPDEST PUSH0 PUSH1 0x20 DUP3 ADD SWAP1 POP DUP2 DUP2 SUB PUSH0 DUP4 ADD MSTORE PUSH2 0x1C1D DUP2 PUSH2 0x1BE4 JUMP JUMPDEST SWAP1 POP SWAP2 SWAP1 POP JUMP JUMPDEST PUSH32 0x4E487B7100000000000000000000000000000000000000000000000000000000 PUSH0 MSTORE PUSH1 0x12 PUSH1 0x4 MSTORE PUSH1 0x24 PUSH0 REVERT JUMPDEST PUSH0 PUSH2 0x1C5B DUP3 PUSH2 0x14BF JUMP JUMPDEST SWAP2 POP PUSH2 0x1C66 DUP4 PUSH2 0x14BF JUMP JUMPDEST SWAP3 POP DUP3 PUSH2 0x1C76 JUMPI PUSH2 0x1C75 PUSH2 0x1C24 JUMP JUMPDEST JUMPDEST DUP3 DUP3 DIV SWAP1 POP SWAP3 SWAP2 POP POP JUMP JUMPDEST PUSH32 0x4461696C79207472616E73616374696F6E206C696D6974206578636565646564 PUSH0 DUP3 ADD MSTORE POP JUMP JUMPDEST PUSH0 PUSH2 0x1CB5 PUSH1 0x20 DUP4 PUSH2 0x13DB JUMP JUMPDEST SWAP2 POP PUSH2 0x1CC0 DUP3 PUSH2 0x1C81 JUMP JUMPDEST PUSH1 0x20 DUP3 ADD SWAP1 POP SWAP2 SWAP1 POP JUMP JUMPDEST PUSH0 PUSH1 0x20 DUP3 ADD SWAP1 POP DUP2 DUP2 SUB PUSH0 DUP4 ADD MSTORE PUSH2 0x1CE2 DUP2 PUSH2 0x1CA9 JUMP JUMPDEST SWAP1 POP SWAP2 SWAP1 POP JUMP JUMPDEST PUSH0 PUSH2 0x1CF3 DUP3 PUSH2 0x14BF JUMP JUMPDEST SWAP2 POP PUSH32 0xFFFFFFFFFFFFFFFFFFFFFFFFFFFFFFFFFFFFFFFFFFFFFFFFFFFFFFFFFFFFFFFF DUP3 SUB PUSH2 0x1D25 JUMPI PUSH2 0x1D24 PUSH2 0x181B JUMP JUMPDEST JUMPDEST PUSH1 0x1 DUP3 ADD SWAP1 POP SWAP2 SWAP1 POP JUMP JUMPDEST PUSH0 PUSH2 0x1D3A DUP3 PUSH2 0x14BF JUMP JUMPDEST SWAP2 POP PUSH2 0x1D45 DUP4 PUSH2 0x14BF JUMP JUMPDEST SWAP3 POP DUP3 DUP3 MUL PUSH2 0x1D53 DUP2 PUSH2 0x14BF JUMP JUMPDEST SWAP2 POP DUP3 DUP3 DIV DUP5 EQ DUP4 ISZERO OR PUSH2 0x1D6A JUMPI PUSH2 0x1D69 PUSH2 0x181B JUMP JUMPDEST JUMPDEST POP SWAP3 SWAP2 POP POP JUMP JUMPDEST PUSH0 PUSH1 0x60 DUP3 ADD SWAP1 POP PUSH2 0x1D84 PUSH0 DUP4 ADD DUP7 PUSH2 0x160F JUMP JUMPDEST PUSH2 0x1D91 PUSH1 0x20 DUP4 ADD DUP6 PUSH2 0x1563 JUMP JUMPDEST PUSH2 0x1D9E PUSH1 0x40 DUP4 ADD DUP5 PUSH2 0x1563 JUMP JUMPDEST SWAP5 SWAP4 POP POP POP POP JUMP INVALID LOG2 PUSH5 0x6970667358 0x22 SLT KECCAK256 RETF RJUMP 0xF307 PUSH8 0xBC3FD53532E36D1F STATICCALL 0xB9 SWAP10 0xCE GAS 0xC2 RJUMPI 0xE03 REVERT MULMOD PUSH3 0x394629 0xC7 SHL EXP 0x4F PUSH5 0x736F6C6343 STOP ADDMOD 0x1E STOP CALLER "
				},
				"gasEstimates": {
					"creation": {
						"codeDepositCost": "1528800",
						"executionCost": "infinite",
						"totalCost": "infinite"
					},
					"external": {
						"addLiquidity(uint256,uint256)": "infinite",
						"allowance(address,address)": "infinite",
						"approve(address,uint256)": "infinite",
						"balanceOf(address)": "2895",
						"dailyTransactionCountLimit()": "2513",
						"decimals()": "361",
						"liquidityPool()": "2553",
						"maxTransactionAmount()": "2447",
						"name()": "infinite",
						"removeLiquidity(uint256)": "infinite",
						"symbol()": "infinite",
						"taxRate()": "2514",
						"taxReceiver()": "2574",
						"totalSupply()": "2500",
						"transfer(address,uint256)": "infinite",
						"transferFrom(address,address,uint256)": "infinite"
					},
					"internal": {
						"_calculateTax(uint256)": "infinite",
						"_checkTransactionLimits(address,uint256)": "infinite"
					}
				},
				"methodIdentifiers": {
					"addLiquidity(uint256,uint256)": "9cd441da",
					"allowance(address,address)": "dd62ed3e",
					"approve(address,uint256)": "095ea7b3",
					"balanceOf(address)": "70a08231",
					"dailyTransactionCountLimit()": "f450c23a",
					"decimals()": "313ce567",
					"liquidityPool()": "665a11ca",
					"maxTransactionAmount()": "c8c8ebe4",
					"name()": "06fdde03",
					"removeLiquidity(uint256)": "9c8f9f23",
					"symbol()": "95d89b41",
					"taxRate()": "771a3a1d",
					"taxReceiver()": "e6ef73d6",
					"totalSupply()": "18160ddd",
					"transfer(address,uint256)": "a9059cbb",
					"transferFrom(address,address,uint256)": "23b872dd"
				}
			},
			"storageLayout": {
				"storage": [
					{
						"astId": 552,
						"contract": "ShibStyleToken.sol:ShibStyleToken",
						"label": "_balances",
						"offset": 0,
						"slot": "0",
						"type": "t_mapping(t_address,t_uint256)"
					},
					{
						"astId": 558,
						"contract": "ShibStyleToken.sol:ShibStyleToken",
						"label": "_allowances",
						"offset": 0,
						"slot": "1",
						"type": "t_mapping(t_address,t_mapping(t_address,t_uint256))"
					},
					{
						"astId": 560,
						"contract": "ShibStyleToken.sol:ShibStyleToken",
						"label": "_totalSupply",
						"offset": 0,
						"slot": "2",
						"type": "t_uint256"
					},
					{
						"astId": 562,
						"contract": "ShibStyleToken.sol:ShibStyleToken",
						"label": "_name",
						"offset": 0,
						"slot": "3",
						"type": "t_string_storage"
					},
					{
						"astId": 564,
						"contract": "ShibStyleToken.sol:ShibStyleToken",
						"label": "_symbol",
						"offset": 0,
						"slot": "4",
						"type": "t_string_storage"
					},
					{
						"astId": 25,
						"contract": "ShibStyleToken.sol:ShibStyleToken",
						"label": "taxRate",
						"offset": 0,
						"slot": "5",
						"type": "t_uint256"
					},
					{
						"astId": 27,
						"contract": "ShibStyleToken.sol:ShibStyleToken",
						"label": "taxReceiver",
						"offset": 0,
						"slot": "6",
						"type": "t_address"
					},
					{
						"astId": 29,
						"contract": "ShibStyleToken.sol:ShibStyleToken",
						"label": "maxTransactionAmount",
						"offset": 0,
						"slot": "7",
						"type": "t_uint256"
					},
					{
						"astId": 31,
						"contract": "ShibStyleToken.sol:ShibStyleToken",
						"label": "dailyTransactionCountLimit",
						"offset": 0,
						"slot": "8",
						"type": "t_uint256"
					},
					{
						"astId": 35,
						"contract": "ShibStyleToken.sol:ShibStyleToken",
						"label": "dailyTransactionCount",
						"offset": 0,
						"slot": "9",
						"type": "t_mapping(t_address,t_uint256)"
					},
					{
						"astId": 39,
						"contract": "ShibStyleToken.sol:ShibStyleToken",
						"label": "lastTransactionDay",
						"offset": 0,
						"slot": "10",
						"type": "t_mapping(t_address,t_uint256)"
					},
					{
						"astId": 41,
						"contract": "ShibStyleToken.sol:ShibStyleToken",
						"label": "liquidityPool",
						"offset": 0,
						"slot": "11",
						"type": "t_address"
					}
				],
				"types": {
					"t_address": {
						"encoding": "inplace",
						"label": "address",
						"numberOfBytes": "20"
					},
					"t_mapping(t_address,t_mapping(t_address,t_uint256))": {
						"encoding": "mapping",
						"key": "t_address",
						"label": "mapping(address => mapping(address => uint256))",
						"numberOfBytes": "32",
						"value": "t_mapping(t_address,t_uint256)"
					},
					"t_mapping(t_address,t_uint256)": {
						"encoding": "mapping",
						"key": "t_address",
						"label": "mapping(address => uint256)",
						"numberOfBytes": "32",
						"value": "t_uint256"
					},
					"t_string_storage": {
						"encoding": "bytes",
						"label": "string",
						"numberOfBytes": "32"
					},
					"t_uint256": {
						"encoding": "inplace",
						"label": "uint256",
						"numberOfBytes": "32"
					}
				}
			},
			"userdoc": {
				"kind": "user",
				"methods": {},
				"version": 1
			}
		}
	}
}